:020000040800F2
:1000000000000824AD170008491500085115000824
:100010005915000861150008691500080000000066
:100020000000000000000000000000007115000842
:100030007F150008000000008D1500089B150008C2
:10004000011800080118000801180008011800082C
:10005000011800080118000801180008011800081C
:10006000011800080118000801180008A915000867
:1000700001180008011800080118000801180008FC
:1000800001180008011800080118000801180008EC
:1000900001180008011800080118000801180008DC
:1000A00001180008011800080118000801180008CC
:1000B00001180008011800080118000801180008BC
:1000C00001180008011800080118000801180008AC
:1000D000011800080118000801180008BD150008E3
:1000E00001180008011800080000000001180008AD
:1000F000011800080118000801180008011800087C
:10010000011800080118000801180008011800086B
:10011000011800080118000801180008011800085B
:10012000011800080118000801180008011800084B
:10013000011800080118000801180008011800083B
:1001400000000000000000000000000000000000AF
:10015000011800080118000801180008011800081B
:10016000011800080118000801180008011800080B
:10017000011800080118000801180008000000001C
:1001800001180008011800080118000801180008EB
:1001900001180008011800080118000801180008DB
:1001A00001180008011800080118000801180008CB
:1001B00001180008011800080118000801180008BB
:1001C00001180008011800080118000801180008AB
:1001D000011800080118000801180008011800089B
:1001E000011800080118000801180008011800088B
:1001F000011800080118000801180008011800087B
:10020000011800080118000801180008011800086A
:10021000011800080118000801180008011800085A
:10022000011800080118000801180008000000006B
:10023000011800080118000800000000011800085B
:10024000011800080118000801180008011800082A
:10025000011800080118000801180008011800081A
:10026000011800080118000801180008011800080A
:10027000011800080118000801180008000000001B
:10028000011800080118000801180008000000000B
:08029000000000000118000845
:1002A00010B5054C237833B9044B13B10448AFF3B0
:1002B00000800123237010BDE02000240000000016
:1002C000DC37010808B5034B1BB103490348AFF302
:1002D000008008BD00000000E4200024DC37010895
:1002E000034613F8012B002AFBD1181A0138704776
:1002F00001F0FF01102A2BDB10F0070F08D010F8D7
:10030000013B013A8B422DD010F0070F42B3F6D1DA
:10031000F0B441EA012141EA014122F007047FF0F3
:1003200000070023F0E80256083C85EA010586EA4A
:10033000010685FA47F5A3FA87F586FA47F6A5FA86
:1003400087F68EB9EED1F0BC01F0FF0102F0070292
:1003500032B110F8013B013A83EA010313B1F8D13D
:100360000020704701387047002D06BF354603381E
:10037000073815F0010F07D1013015F4807F02BF57
:10038000013015F4C03F0130F0BC0138704700BFA8
:1003900081F0004102E000BF83F0004330B54FEA36
:1003A00041044FEA430594EA050F08BF90EA020FA3
:1003B0001FBF54EA000C55EA020C7FEA645C7FEA36
:1003C000655C00F0E2804FEA5454D4EB5555B8BF59
:1003D0006D420CDD2C4480EA020281EA030382EACA
:1003E000000083EA010180EA020281EA0303362D5C
:1003F00088BF30BD11F0004F4FEA01314FF4801C2F
:100400004CEA113102D0404261EB410113F0004F40
:100410004FEA03334CEA133302D0524263EB4303F7
:1004200094EA050F00F0A780A4F10104D5F1200E95
:100430000DDB02FA0EFC22FA05F2801841F10001F0
:1004400003FA0EF2801843FA05F359410EE0A5F1C4
:1004500020050EF1200E012A03FA0EFC28BF4CF0F5
:10046000020C43FA05F3C01851EBE37101F00045AB
:1004700007D54FF0000EDCF1000C7EEB00006EEBB8
:100480000101B1F5801F1BD3B1F5001F0CD3490842
:100490005FEA30004FEA3C0C04F101044FEA445299
:1004A00012F5800F80F09A80BCF1004F08BF5FEA20
:1004B000500C50F1000041EB045141EA050130BD00
:1004C0005FEA4C0C404141EB0101013C28BFB1F512
:1004D000801FE9D291F0000F04BF01460020B1FA5D
:1004E00081F308BF2033A3F10B03B3F120020CDA30
:1004F0000C3208DD02F1140CC2F10C0201FA0CF00E
:1005000021FA02F10CE002F11402D8BFC2F1200C72
:1005100001FA02F120FA0CFCDCBF41EA0C01904028
:10052000E41AA2BF01EB0451294330BD6FEA040471
:100530001F3C1CDA0C340EDC04F11404C4F120025C
:1005400020FA04F001FA02F340EA030021FA04F36E
:1005500045EA030130BDC4F10C04C4F1200220FAC5
:1005600002F001FA04F340EA0300294630BD21FA03
:1005700004F0294630BD94F0000F83F4801306BFC9
:1005800081F480110134013D4EE77FEA645C18BFBD
:100590007FEA655C29D094EA050F08BF90EA020F54
:1005A00005D054EA000C04BF1946104630BD91EA4C
:1005B000030F1EBF0021002030BD5FEA545C05D14F
:1005C0004000494128BF41F0004130BD14F580048E
:1005D0003CBF01F5801130BD01F0004545F0FE4102
:1005E00041F470014FF0000030BD7FEA645C1ABF37
:1005F000194610467FEA655C1CBF0B46024650EA6E
:10060000013406BF52EA033591EA030F41F4002199
:1006100030BD00BF90F0000F04BF0021704730B51F
:100620004FF4806404F132044FF000054FF00001F4
:1006300050E700BF90F0000F04BF0021704730B5B5
:100640004FF4806404F1320410F0004548BF40428A
:100650004FF000013EE700BF42004FEAE2014FEADF
:1006600031014FEA02701FBF12F07F4393F07F4FBA
:1006700081F06051704732F07F4208BF704793F0BD
:100680007F4F04BF41F40021704730B54FF46074D0
:1006900001F0004521F000411CE700BF50EA0102D3
:1006A00008BF704730B54FF000050AE050EA01027C
:1006B00008BF704730B511F0004502D5404261EBEC
:1006C00041014FF4806404F132045FEA915C3FF42D
:1006D000D8AE4FF003025FEADC0C18BF03325FEACA
:1006E000DC0C18BF033202EBDC02C2F1200300FA7B
:1006F00003FC20FA02F001FA03FE40EA0E0021FAA0
:1007000002F11444BDE600BF53B94AB9002908BF3D
:1007100000281CBF4FF0FF314FF0FF3000F0A2B9AE
:10072000ADF1080C6DE904CE00F03EF8DDF804E010
:10073000DDE9022304B0704708B502460B4643ECDE
:10074000172BB5EEC07BF1EE10FA03D4BDE80840DC
:1007500000F00AB8B1EE477B51EC170B00F004F83B
:10076000404261EB410108BD9FED0B6B41EC170B63
:100770009FED0B5B27EE066BBCEEC66BB8EE464BEF
:10078000A4EE457BFCEEC77B16EE101A17EE900A1E
:10079000704700BFAFF30080000000000000F03D94
:1007A000000000000000F0412DE9F047089D0C46D4
:1007B000002B4ED194468C458646B2FA82F262D91D
:1007C0004AB1C2F12003914020FA03F30CFA02FC73
:1007D000194300FA02FE4FEA1C471FFA8CF6B1FBE0
:1007E000F7F44FEA1E4307FB141143EA014304FBED
:1007F00006F199420AD91CEB030304F1FF3080F0A3
:100800001281994240F20F81023C6344591A1FFA47
:100810008EF3B1FBF7F007FB101143EA014300FB35
:1008200006F69E420AD91CEB030300F1FF3180F06B
:10083000FC809E4240F2F980634402389B1B40EAF0
:10084000044000211DB1D3400022C5E90032BDE8BB
:10085000F0878B4205D90DB1C5E90001002108469A
:10086000F5E7B3FA83F1002946D1A34202D39042BF
:10087000C0F0F080861A64EB03030120002DE6D05F
:10088000C5E90063E3E7002A40F09080A1EB0C0487
:100890004FEA1C481FFA8CF70121B4FBF8F64FEA27
:1008A0001E4308FB164443EA044307FB06F0984244
:1008B00008D91CEB030306F1FF3402D2984200F280
:1008C000CD8026461C1A1FFA8EF3B4FBF8F008FB05
:1008D000104443EA044300FB07F79F4208D91CEB8E
:1008E000030300F1FF3402D29F4200F2B0802046A1
:1008F000DB1B40EA0640A5E7C1F120068B4022FA47
:1009000006F71F4320FA06FC04FA01F343EA0C033E
:10091000F44000FA01F8380C4FEA1349B4FBF0FE3A
:100920001FFA87FC00FB1E4449EA04440EFB0CF945
:10093000A14502FA01F20AD93C190EF1FF3A80F002
:100940008480A14540F28180AEF1020E3C44A4EBCC
:1009500009041FFA83F9B4FBF0F300FB134449EADE
:10096000044403FB0CFCA44507D93C1903F1FF30F8
:1009700067D2A44565D9023B3C4443EA0E40A0FB44
:100980000293A4EB0C049C42CE469C4651D34ED01D
:1009900055B1B8EB0E0364EB0C0404FA06F6CB4039
:1009A0001E43CC40C5E90064002150E7C2F120039A
:1009B00020FA03F10CFA02FC24FA03F394400C43EE
:1009C0004FEA1C4800FA02FE1FFA8CF7B3FBF8F05E
:1009D00008FB1031230C43EA014300FB07F1994265
:1009E00008D91CEB030300F1FF362CD299422AD917
:1009F000023863445B1AA4B2B3FBF8F108FB11336D
:100A000044EA034401FB07F3A34208D91CEB0404A6
:100A100001F1FF3613D2A34211D902396444E41A1A
:100A200041EA004139E70446F0E6084606E7C845D2
:100A3000AED2B9EB020E63EB070C0138A8E73146E2
:100A4000EDE7034699E73046D4E7D6467FE76344AF
:100A500002384DE70646234608460FE7023E634448
:100A600030E700BF704700BF0FB480B5AAB000AF39
:100A700007F1B4033B60381D3B68D7F8B020A021D4
:100A80000FF068F9C7F8A400D7F8A430002B10DDE8
:100A9000D7F8A430A02B02D9A023C7F8A430D7F8E8
:100AA000A4309AB2391D4FF0FF33054808F000FE1C
:100AB00000E000BFA837BD46BDE8804004B07047E5
:100AC000587B002480B582B000AF0F48FFF7CCFF01
:100AD0004FF4B4620D490E4804F07AFF0346FB71EF
:100AE000FB79002B03D10B48FFF7BEFF04E0FB7935
:100AF00019460948FFF7B8FF0848FFF7B5FF00BFE0
:100B00000837BD4680BD00BF00380108FC20002426
:100B10008C7A00241C3801083C3801086C38010824
:100B200080B586B000AF7860396001F073FC386141
:100B300000237B6130E0204B1B6801331F4AA2FB7E
:100B40000312520B42F2107101FB02F29B1AFB607E
:100B50001B4B1B68FA689A4208D11A4B1B68013379
:100B6000184A1360184B01221A7019E07B695B0068
:100B70007A681A44104B1B68B2F90010134A22F825
:100B800013100D4AFB681360114B1B680133104AA8
:100B900013607B6918337B617A693B689A42CAD3D8
:100BA00001F038FC02463B69D31A0A4A136000BFC1
:100BB0001837BD4680BD00BF607A00245917B7D1F1
:100BC000647A0024747A00248A7A0024402C002459
:100BD000707A0024847A002480B584B000AF7860F5
:100BE00001F018FCF8607B681B68114A934214D12D
:100BF000104B1B6801330F4A13604FF434710E48D9
:100C0000FFF78EFF0D4B01221A700D4B1B6801334D
:100C10000B4A13600B4B01221A7001F0FBFB0246DA
:100C2000FB68D31A084A136000BF1037BD4680BD69
:100C300000300140687A0024FC2000243C2C002471
:100C4000787A0024887A00247C7A002480B584B0E5
:100C500000AF786001F0DEFBF8607B681B68114A2A
:100C6000934214D1104B1B6801330F4A13604FF4A9
:100C700034710E48FFF754FF0D4B01221A700D4BD3
:100C80001B6801330B4A13600B4B01221A7001F0F1
:100C9000C1FB0246FB68D31A084A136000BF103735
:100CA000BD4680BD003001406C7A00249C260024A3
:100CB0003C2C0024787A0024897A0024807A00244D
:100CC000B0B588B000AF00F003FA454B5B6903F4A0
:100CD0000033002B1BD1BFF34F8F00BFBFF36F8FCB
:100CE00000BF3F4B0022C3F85022BFF34F8F00BF1D
:100CF000BFF36F8F00BF3A4B5B69394A43F400334F
:100D00005361BFF34F8F00BFBFF36F8F00E000BF91
:100D1000334B5B6903F48033002B38D1304B002216
:100D2000C3F88420BFF34F8F00BF2D4BD3F8803022
:100D3000FB61FB695B0BC3F30E03BB61FB69DB0863
:100D4000C3F309037B61BB695A0143F6E0731340A7
:100D50007A69920722491343C1F860327B695A1EAF
:100D60007A61002BEFD1BB695A1EBA61002BE5D125
:100D7000BFF34F8F00BF1A4B5B69194A43F48033AE
:100D80005361BFF34F8F00BFBFF36F8F00E000BF11
:100D900001F0BAFA00F02AF800F042F900F020F968
:100DA00000F0A0F800F0D0F80AF040FB0D4B3C46F4
:100DB0001D460FCD0FC42B6823803B461846FFF716
:100DC0008FFA03469AB239464FF0FF33064808F0CF
:100DD0006FFC00F0AFF9FFF775FE0AF043FBFCE78C
:100DE00000ED00E070390108587B002480B59CB00C
:100DF00000AF07F124034C22002118460EF0D2FF69
:100E00003B1D2022002118460EF0CCFF022004F0EA
:100E1000E1FE00233B60314BDB6A304A23F00103E3
:100E2000D3622E4BDB6A03F001033B602C4B9B69C2
:100E300023F440432A4A43F480439361284B9B693F
:100E400003F440433B603B6800BF254B9B6903F4C0
:100E50000053B3F5005FF8D101237B624FF4803378
:100E6000BB620223BB640223FB6404233B6518239B
:100E70007B650223BB651423FB6502233B660823C5
:100E80007B660223BB660023FB6607F1240318463A
:100E900004F0DAFE0346002B01D000F045F93F23B1
:100EA0007B600223BB600023FB6008233B6140237F
:100EB0007B614023BB614FF48063FB6140233B6255
:100EC0003B1D0021184605F019FB0346002B01D0FD
:100ED00000F02AF900BF7037BD4680BD00040058FD
:100EE0000048025880B500AF154B164A1A60144BE3
:100EF00006225A60124B00229A60114B0022DA60DF
:100F00000F4B00221A610E4B4BF680325A610C4B8C
:100F100000229A610A4B0022DA61094B00221A6210
:100F2000074B00225A62064B00229A62044804F0E2
:100F30002DFC0346002B01D000F0F6F800BF80BD69
:100F40008C7A00240030014080B500AF224B234A48
:100F50001A60214B4FF4E1325A601F4B00229A6015
:100F60001D4B0022DA601C4B00221A611A4B0C2226
:100F70005A61194B00229A61174B0022DA61164B15
:100F800000221A62144B00225A62134B00229A620A
:100F9000114808F03DFB0346002B01D000F0C4F8D7
:100FA00000210D480AF024F80346002B01D000F080
:100FB000BBF8002108480AF059F80346002B01D07D
:100FC00000F0B2F8044809F0DAFF0346002B01D024
:100FD00000F0AAF800BF80BD587B00240048004004
:100FE00080B582B000AF0D4BD3F8D8300B4A43F038
:100FF0000103C2F8D830094BD3F8D83003F001030D
:101000007B607B68002200210B2001F00CFB0B2091
:1010100001F023FB00BF0837BD4680BD00440258E5
:1010200080B588B000AF07F10C0300221A605A6047
:101030009A60DA601A61244BD3F8E030224A43F018
:101040008003C2F8E030204BD3F8E03003F0800397
:10105000BB60BB681C4BD3F8E0301B4A43F0010374
:10106000C2F8E030184BD3F8E03003F001037B60A6
:101070007B68154BD3F8E030134A43F00203C2F803
:10108000E030114BD3F8E03003F002033B603B68E3
:10109000002202210D4804F05FFB0223FB600123C4
:1010A0003B6100237B610023BB6107F10C03194600
:1010B000064804F0A1F900214FF0007001F0C2F9D8
:1010C00000BF2037BD4680BD0044025800000258D2
:1010D00080B584B000AF3B4600221A605A609A6027
:1010E000DA6001F0D5FA01233B7000237B70002306
:1010F0007B601F233B7287237B720023BB7200231C
:10110000FB7201233B7301237B730023BB7300231A
:10111000FB733B46184601F0F3FA042001F0D0FAC5
:1011200000BF1037BD4680BD80B400AF72B600BFAF
:1011300000BFFDE780B500AF1022002157480EF038
:1011400031FE564B564A022156480EF0B7F94FF47D
:101150008272002154480EF025FE4FF48272002165
:1011600052480EF01FFE524B00221A60514B0022D3
:101170001A6001224FF496614F4801F009F80346C6
:10118000002B01D0FFF7D0FF4FF480714B480EF0D9
:1011900061F94B4B4B4A1A60494B4B4A5A60484BDA
:1011A0004A4A9A60464B80221A61454B4FF480723E
:1011B0005A61434B4BF680329A61414B4FF000022B
:1011C000DA613F4B424A1A623D4B012283F82420E8
:1011D0003B4B01229A623A4B0122DA62384800F016
:1011E00051FD374BDB68B3F5005F01D9FFF79CFF7A
:1011F000334BDB68374A1360374B0D221A60364B8E
:1012000080225A60344B02221A72334B0022DA6079
:10121000314B324A1A61304800F0F6FA0346002B8F
:1012200001D0FFF781FF2E4B244A1A602C4B01227C
:101230001A712B4B204A9A60294B4BF68032DA60A8
:10124000274B4FF496621A61254B4FF480725A6116
:10125000234B244A9A61244B214A1A60224B184A94
:101260005A60224B204A1A60204B01221A711F4BF0
:101270004FF07E529A601D4B4FF0FF42DA601C4BDC
:101280001A4A1A601A4B144A5A60194B0D229A6076
:10129000174B184ADA6000BF80BD00BF987C00245D
:1012A000000000248C7C002458FE01245CFF0124F3
:1012B0006000022464000224AC7C0024EC7B002447
:1012C000047C00246C2F01246C3101246CAF0024B9
:1012D0000080BB46A87C0024347C00246C9300244E
:1012E000487C00246C8F0024647C00246C7C0024E7
:1012F0007C7C00246CAD002480B483B000AF0A4B2A
:10130000D3F8F430084A43F00203C2F8F430064B35
:10131000D3F8F43003F002037B607B6800BF0C3726
:10132000BD465DF8047B70470044025880B5BAB0F2
:1013300000AF786007F1D40300221A605A609A6007
:10134000DA601A6107F11003C022002118460EF07E
:1013500029FD7B681B683E4A934274D14FF480524A
:101360004FF00003C7E9042300233B6707F1100394
:10137000184605F04FFC0346002B01D0FFF7D4FEC2
:10138000344BD3F8F030334A43F48053C2F8F03092
:10139000304BD3F8F03003F48053FB60FB682D4BE7
:1013A000D3F8E0302B4A43F00103C2F8E030294B78
:1013B000D3F8E03003F00103BB60BB687023C7F8CB
:1013C000D4300223C7F8D8300023C7F8DC3000231C
:1013D000C7F8E0300523C7F8E43007F1D403194615
:1013E0001D4804F009F81D4B1D4A1A601B4B2522AD
:1013F0005A601A4B00229A60184B0022DA60174B91
:101400004FF480621A61154B4FF400625A61134B1E
:101410004FF400529A61114B4FF48072DA610F4B16
:1014200000221A620D4B00225A620C4801F0A8F902
:101430000346002B01D0FFF777FE7B68074A9A64CA
:10144000064A7B68936300BFE837BD4680BD00BF96
:10145000003001400044025800000258E07A0024A5
:101460001000024080B5BAB000AF786007F1D40335
:1014700000221A605A609A60DA601A6107F110035C
:10148000C022002118460EF08DFC7B681B682B4A99
:1014900093424ED14FF002024FF00003C7E90423FC
:1014A0000023C7F8883007F11003184605F0B2FB97
:1014B0000346002B01D0FFF737FE214BD3F8E8306D
:1014C0001F4A43F48023C2F8E8301D4BD3F8E830BC
:1014D00003F48023FB60FB68194BD3F8E030184A13
:1014E00043F00203C2F8E030154BD3F8E03003F0CC
:1014F0000203BB60BB684FF44063C7F8D4300223DB
:10150000C7F8D8300023C7F8DC300023C7F8E03034
:101510000723C7F8E43007F1D4031946094803F05C
:101520006BFF00220021272001F07DF8272001F029
:1015300094F800BFE837BD4680BD00BF00480040BA
:10154000004402580004025880B400AF00BFFDE719
:1015500080B400AF00BFFDE780B400AF00BFFDE77F
:1015600080B400AF00BFFDE780B400AF00BFFDE76F
:1015700080B400AF00BFBD465DF8047B704780B407
:1015800000AF00BFBD465DF8047B704780B400AF7C
:1015900000BFBD465DF8047B704780B500AF00F02A
:1015A00025FF00BF80BD000080B500AF024802F0FB
:1015B00011FC00BF80BD00BFE07A002480B500AF01
:1015C000024808F003F900BF80BD00BF587B00242B
:1015D00080B586B000AF7860144A154BD31A7B6192
:1015E0007B693B61134B1B68002B02D1114B124AE4
:1015F0001A60104B1A687B6813443A699A4207D202
:101600000EF02EFC03460C221A604FF0FF3309E067
:10161000084B1B68FB60074B1A687B681344054A3C
:101620001360FB6818461837BD4680BD00000824CB
:1016300000080000680002240000002080B400AF11
:10164000434BD3F88830424A43F47003C2F88830E1
:10165000404B1B6803F00F03062B07D83D4B1B685C
:1016600023F00F033B4A43F0070313603A4B1B6818
:10167000394A43F001031360374B00221A61364B9D
:101680001A683549354B13400B60324B1B6803F029
:101690000803002B07D02F4B1B6823F00F032D4AA4
:1016A00043F0070313602C4B00229A612A4B00225F
:1016B000DA61294B00221A62274B294A9A62264B8B
:1016C000284ADA62244B284A1A63234B00225A63C1
:1016D000214B254A9A63204B0022DA631E4B224A93
:1016E0001A641D4B00225A641B4B1B681A4A23F4D0
:1016F00080231360184B00221A661C4B1A681C4B7F
:101700001340B3F1005F02D21A4B01221A60124B50
:10171000D3F8D43003F48053002B13D10E4BD3F8FD
:10172000D4300D4A43F48053C2F8D430124B43F204
:10173000D2021A60084BD3F8D430074A23F48053FE
:10174000C2F8D43000BFBD465DF8047B704700BFCF
:1017500000ED00E000200052004402587FEDF6EA60
:10176000000202020000FF01800201010010005C83
:101770000000FFFF088100510040005280B400AF1C
:10178000094BDB68084A43F00203D36000BF064BF5
:101790005B6803F40053002BF9D000BF00BFBD46C7
:1017A0005DF8047B704700BF00480258DFF838D06E
:1017B000FFF7E4FFFFF742FF0C480D490D4A0023F5
:1017C00002E0D458C4500433C4188C42F9D30A4AF6
:1017D0000A4C002301E013600432A242FBD30EF056
:1017E00045FBFFF76DFA7047000008240000002455
:1017F000D4200024B0ED0208E020002420D40324EB
:10180000FEE700000000000080B598B000AF7860EF
:101810007B681B687B627B685B683B627B681B69DB
:10182000FB617B68DB68002B0BD07B681B7A042B89
:1018300004D04FF0FF33FB65FB6D1FE20123BB6556
:1018400001E00023BB657B681B7A013B042B00F29F
:10185000108201A252F823F06D1800080319000845
:10186000111A0008CF1A0008691B000800237B65C5
:1018700040E000233B6536E03B6D07EE903AB8EE62
:10188000677BB6EE006B37EE067B9FEDC16B27EEF4
:10189000065B3B6A07EE903AB8EE676B85EE067B17
:1018A00087ED027B7B6D07EE903AB8EE676B97EDA4
:1018B000027B26EE077BB0EE470B11F055F8B0EE39
:1018C000407B37EE077B7B6D3A6A03FB02F23B6D90
:1018D00013449B00FA691344F7EEC77BC3ED007A0B
:1018E0003B6D01333B653A6D3B6A9A42C4D37B6DD5
:1018F00001337B657A6D7B6A9A42BAD30023FB651C
:10190000BBE13B6A9B0007EE903AB8EE677BB7EE0F
:10191000005B85EE076BB0EE460B11F005F8B0EEFC
:10192000407B37EE077B87ED047B0023FB640CE0F4
:10193000FB6C9B00FA69134497ED047BF7EEC77BC1
:10194000C3ED007AFB6C0133FB64FA6C3B6A9A428C
:10195000EED33B6A5B0007EE903AB8EE677BB0EEE1
:10196000470B10F0E1FFB0EE406BB0EE005B85EE90
:10197000067B87ED047B0123BB6442E000237B648C
:1019800038E07B6C07EE903AB8EE677BB6EE006B02
:1019900037EE067B9FED7E6B27EE065B3B6A07EE1C
:1019A000903AB8EE676B85EE067B87ED027BBB6CE9
:1019B00007EE903AB8EE676B97ED027B26EE077B59
:1019C000B0EE470B10F0D0FFB0EE406B97ED047B0C
:1019D00026EE077BBB6C3A6A03FB02F27B6C134476
:1019E0009B00FA691344F7EEC77BC3ED007A7B6C6A
:1019F00001337B647A6C3B6A9A42C2D3BB6C01337D
:101A0000BB64BA6C7B6A9A42B8D30023FB6534E1AD
:101A10003B6A5B0007EE903AB8EE677BB0EE470B8F
:101A200010F082FFB0EE406BB0EE005B85EE067BFF
:101A300087ED047B00233B6442E00023FB6338E036
:101A4000FB6B07EE903AB8EE677BB6EE006B37EEB5
:101A5000067B9FED4F6B27EE065B3B6A07EE903AE5
:101A6000B8EE676B85EE067B87ED027B3B6C07EE7D
:101A7000903AB8EE676B97ED027B26EE077BB0EEEF
:101A8000470B10F071FFB0EE406B97ED047B26EE34
:101A9000077B3B6C3A6A03FB02F2FB6B13449B002F
:101AA000FA691344F7EEC77BC3ED007AFB6B013391
:101AB000FB63FA6B3B6A9A42C2D33B6C01333B64D3
:101AC0003A6C7B6A9A42B8D30023FB65D5E00023C9
:101AD000BB6342E0BA6BBB6D134407EE903AB8EEBD
:101AE000677BB6EE006B37EE067B9FED296B27EE2A
:101AF000065B3B6A07EE903AB8EE676B85EE067BB5
:101B000087ED027B00237B6320E07B6B07EE903A3E
:101B1000B8EE676B97ED027B26EE077BB0EE470BC6
:101B200010F022FFB0EE407B37EE077BBB6B3A6ACA
:101B300003FB02F27B6B13449B00FA691344F7EE3C
:101B4000C77BC3ED007A7B6B01337B637A6B3B6AA7
:101B50009A42DAD3BB6B0133BB63BA6B7B6A9A429E
:101B6000B8D30023FB6588E03B6A07EE903AB8EEF5
:101B7000677BB0EE470B10F0D7FEB0EE406BB7EED0
:101B8000005B85EE067B87ED047B00233B6310E062
:101B9000182D4454FB2109403B6B9B00FA69134408
:101BA00097ED047BF7EEC77BC3ED007A3B6B013307
:101BB0003B633A6B3B6A9A42EED33B6A07EE903A3C
:101BC000B8EE677BB0EE005B85EE076BB0EE460BC0
:101BD00010F0AAFE87ED040B0023FB6242E0012314
:101BE000BB6238E0FB6A07EE903AB8EE677BB6EE70
:101BF000006B37EE067B1FED1A6B27EE065B3B6A28
:101C000007EE903AB8EE676B85EE067B87ED027BB8
:101C1000BB6A07EE903AB8EE676B97ED027B26EE53
:101C2000077BB0EE470B10F09FFEB0EE406B97EDD8
:101C3000047B26EE077BFB6A3A6A03FB02F2BB6A6F
:101C400013449B00FA691344F7EEC77BC3ED007A97
:101C5000BB6A0133BB62BA6A3B6A9A42C2D3FB6A6F
:101C60000133FB62FA6A7B6A9A42B8D30023FB65B0
:101C700003E04FF0FF33FB6500BFFB6D1846603794
:101C8000BD4680BD80B5A4B000AF78607B689B6A1C
:101C90003B667B68DB6AFB657B6893F8243087F8DA
:101CA0005B307B681B687B657B685B683B657B683A
:101CB0009B68C7F884307B680C33FB647B689B6946
:101CC000BB647B681B697B647B685B693B647B6886
:101CD000DB69FB637B681B6ABB6397F85B30184664
:101CE00097ED0F0A00F072F987ED0D0A97F85B3057
:101CF000184697ED0E0A00F069F987ED0C0A97ED8A
:101D00000C7AD7ED0D7A77EE676A7B6C013307EEBC
:101D1000903AB8EE677AC6EE877AC7ED0B7ABB6C5D
:101D200007EE903AF8EE677AB0EE007AC7EE876A6F
:101D30003B6C5B0807EE903AB8EE677AC6EE877A9E
:101D4000C7ED0A7AFB6C00221A600023BB6633E100
:101D5000FB6D002B44D0BB6E07EE903AB8EE677A6D
:101D6000D7ED0B7A27EE277AD7ED0D7A77EE277A23
:101D700097F85B301846B0EE670A00F097F987EDE8
:101D8000200ABB6E013307EE903AB8EE677AD7EDC2
:101D90000B7A27EE277AD7ED0D7A77EE277A97F828
:101DA0005B301846B0EE670A00F080F987ED1F0A35
:101DB000BB6E023307EE903AB8EE677AD7ED0B7A36
:101DC00027EE277AD7ED0D7A77EE277A97F85B30F2
:101DD0001846B0EE670A00F069F987ED1E0A2EE09A
:101DE000BB6E07EE903AB8EE677AD7ED0B7A67EEE6
:101DF000277A97ED0D7A77EE277AC7ED207ABB6EBA
:101E0000013307EE903AB8EE677AD7ED0B7A67EEBA
:101E1000277A97ED0D7A77EE277AC7ED1F7ABB6E9A
:101E2000023307EE903AB8EE677AD7ED0B7A67EE99
:101E3000277A97ED0D7A77EE277AC7ED1E7A97ED20
:101E40001F7AD7ED207A77EE677AC7ED097A97ED9A
:101E50001E7AD7ED1F7A77EE677AC7ED087A4FF0D2
:101E6000FF33C7F88C304FF0FF33C7F888300023BA
:101E70007B6698E0FB6D002B0BD07B6E07EE903AF3
:101E8000F8EE677A97ED0A7A67EE277AC7ED1D7A42
:101E900011E07B6E07EE903AB8EE677AD7ED0A7ADA
:101EA00067EE277A97F85B301846B0EE670A00F0C5
:101EB0008DF887ED1D0A97ED207AD7ED1D7A77EE24
:101EC000677AC7ED077A97ED1E7AD7ED1D7A77EE20
:101ED000677AC7ED067AD7ED077AF1EE676A97ED74
:101EE000097AC6EE877AC7ED057AD7ED066A97EDCF
:101EF000087AC6EE877AC7ED047A97ED057AD7EDB2
:101F0000047AB4EEE77AF1EE10FA02D57B693B670A
:101F100001E03B693B67D7ED1C7AF5EEC07AF1EE44
:101F200010FA2FDD3B6FFB663B6E002B13D097ED55
:101F30001E7AD7ED207A37EE677AF0EE006AC6EEA9
:101F4000877AC7ED037A97ED1B7AD7ED037A67EEB0
:101F5000277AC7ED1B7AD7F884301A1DC7F884207A
:101F6000FA6E1A60D7F88C30B3F1FF3F02D17B6E66
:101F7000C7F88C307B6EC7F88830FB6C1B685A1C26
:101F8000FB6C1A60BB6E9B007A6D1344D7F88C20F3
:101F90001A60BB6E9B003A6D1344D7F888201A6014
:101FA0007B6E01337B663B6C5B087A6E9A42FFF472
:101FB00061AFBB6E0133BB66BA6E7B6C9A42FFF4B5
:101FC000C7AE00BF00BF9037BD4680BD80B588B0AA
:101FD00000AF87ED010A0346FB70FB78002B42D06F
:101FE0004FF00003BB612C4B7B6197ED017AD7ED7D
:101FF000067A77EE676A97ED057AC6EE877AC7EDBF
:10200000077A264B3B6197ED047AD7ED067A77EE97
:10201000676A97ED057AC6EE877AC7ED037A204B9B
:10202000BB6097ED017AD7ED047AB4EEE77AF1EE72
:1020300010FA15DB97ED017AD7ED047AC7EE276A1F
:10204000B0EE660A10F050FDF0EE406A97ED027AAD
:10205000C6EE877A97ED037A77EE277AC7ED077A8F
:10206000D7ED077A13E097ED017ADFED0E6AC7EE40
:10207000267AB7EE007A77EE877AB0EE670A10F02C
:1020800033FDF0EE407A9FED087A67EE877AB0EE86
:10209000670A2037BD4680BD5555854200007A4409
:1020A000BBCD8C3D00002F4400E08C4480B588B04F
:1020B00000AF87ED010A0346FB70FB78002B42D08E
:1020C0004FF00003BB612C4B7B6197ED057AD7ED98
:1020D000017A67EE277A97ED067A77EE277AC7EDD1
:1020E000077A264B3B6197ED047AD7ED067A77EEB7
:1020F000676A97ED057AC6EE877AC7ED037A204BBB
:10210000BB6097ED017AD7ED037AB4EEE77AF1EE92
:1021100010FA15DB97ED017AD7ED037A37EE677A7F
:10212000D7ED027A67EE277AB0EE670A10F068FC06
:10213000B0EE407AD7ED047A67EE877AC7ED077A7A
:10214000D7ED077A13E0D7ED017ADFED0E6A87EE5F
:10215000A67AB0EE470A10F053FCF0EE407AB7EEE4
:10216000007A77EEC77A9FED087A67EE877AB0EE4D
:10217000670A2037BD4680BD5555854200007A4428
:10218000BBCD8C3D00E08C4400002F4400000000DB
:1021900080B586B000AFF860B9601346FB710023CC
:1021A0007B61FB79022B1CD0022B25DC002B02D09B
:1021B000012B0BD020E09FED162BB6EE001BB6EEE8
:1021C000000BB968F86800F037F819E09FED102BA4
:1021D0009FED111B9FED120BB968F86800F02CF809
:1021E0000EE09FED112BB6EE001B9FED110BB968B1
:1021F000F86800F021F803E04FF0FF337B6100BF87
:102200007B6918461837BD4680BD00BFAFF300801C
:102210000000000000000000713D0AD7A370DD3F00
:1022200048E17A14AE47E13F7B14AE47E17AB43F10
:10223000E17A14AE47E1DA3F80B52DED028B8AB02A
:1022400000AFF861B96187ED040B87ED021B87EDE4
:10225000002B00237B6243E07B6A07EE903AB8EEE6
:10226000677B9FED256B27EE066BBB6907EE903A07
:10227000B8EE677B86EE075BB0EE450B10F074FBA3
:10228000B0EE406B97ED027B26EE077B97ED046B7B
:1022900036EE478B7B6A07EE903AB8EE677B9FED90
:1022A000186B27EE066BBB6907EE903AB8EE677BBA
:1022B00086EE075BB0EE450B10F056FBB0EE406BC0
:1022C00097ED007B26EE077B38EE077BFB691A1D36
:1022D000FA61F7EEC77BC3ED007A7B6A01337B625C
:1022E0007A6ABB699A42B7D300BF00BF2837BD46A0
:1022F000BDEC028B80BD00BF182D4454FB2119405A
:10230000182D4454FB21294080B582B000AF032032
:1023100000F07EF904F0A8FA0246154B9B691B0AEF
:1023200003F00F031349CB5C03F01F0322FA03F3FE
:102330007B600F4B9B6903F00F030E4AD35C03F0E5
:102340001F037A6822FA03F30B4A13600B4A7B6877
:1023500013600F2000F014F80346002B01D0012376
:1023600002E0FEF7C9FF002318460837BD4680BDCE
:1023700000440258BC3A01082C0000242800002424
:1023800080B582B000AF7860154B1B78002B01D16F
:10239000012321E0134B1A68114B1B7819464FF4A7
:1023A0007A73B3FBF1F3B2FBF3F3184600F063F971
:1023B0000346002B01D001230EE07B680F2B0AD8C7
:1023C000002279684FF0FF3000F02DF9064A7B6853
:1023D0001360002300E0012318460837BD4680BD86
:1023E00034000024280000243000002480B400AF12
:1023F000064B1B781A46064B1B681344044A1360AD
:1024000000BFBD465DF8047B704700BF3400002468
:102410006C00022480B400AF034B1B681846BD4615
:102420005DF8047B704700BF6C00022480B400AFED
:10243000034B1B681B0C1846BD465DF8047B7047B8
:102440000010005C80B483B000AF78603960074B47
:102450005A687B68DB431A4004493B6813434B606E
:1024600000BF0C37BD465DF8047B70470004005880
:1024700080B485B000AF78607B6803F00703FB6031
:102480000B4BDB68BB60BA684FF6FF031340BB60C1
:10249000FB681A02BB681A43064B1343BB60044A2D
:1024A000BB68D36000BF1437BD465DF8047B70473E
:1024B00000ED00E00000FA0580B400AF044BDB68DB
:1024C0001B0A03F007031846BD465DF8047B7047FE
:1024D00000ED00E080B483B000AF0346FB80B7F9A5
:1024E0000630002B0BDBFB8803F01F020749B7F90E
:1024F00006305B09012000FA02F241F8232000BFF8
:102500000C37BD465DF8047B704700BF00E100E07A
:1025100080B483B000AF03463960FB80B7F9063062
:10252000002B0ADB3B68DAB20C49B7F9063012011E
:10253000D2B20B4483F800230AE03B68DAB20849C0
:10254000FB8803F00F03043B1201D2B20B441A764E
:1025500000BF0C37BD465DF8047B704700E100E02A
:1025600000ED00E080B489B000AFF860B9607A6037
:10257000FB6803F00703FB61FB69C3F10703042B4E
:1025800028BF0423BB61FB690433062B02D9FB6916
:10259000033B00E000237B614FF0FF32BB6902FA8E
:1025A00003F3DA43BB681A407B699A404FF0FF316E
:1025B0007B6901FA03F3D9437B680B401343184648
:1025C0002437BD465DF8047B7047000080B582B0BB
:1025D00000AF78607B68013BB3F1807F01D30123BA
:1025E0000FE00A4A7B68013B53600F214FF0FF3038
:1025F000FFF78EFF054B00229A60044B07221A60FA
:10260000002318460837BD4680BD00BF10E000E03B
:1026100080B582B000AF78607868FFF729FF00BF0F
:102620000837BD4680BD80B586B000AF0346B960AF
:102630007A60FB81FFF740FF78617A68B968786952
:10264000FFF790FF0246B7F90E3011461846FFF724
:102650005FFF00BF1837BD4680BD80B582B000AFB8
:102660000346FB80B7F906301846FFF733FF00BF7B
:102670000837BD4680BD80B582B000AF786078680D
:10268000FFF7A4FF034618460837BD4680BD00008B
:1026900080B400AFBFF35F8F00BF074B5B6A064A91
:1026A00023F480335362054B00225A6000BFBD46BD
:1026B0005DF8047B704700BF00ED00E090ED00E0A6
:1026C00080B483B000AF78600B4A7B6843F00103AD
:1026D00053600A4B5B6A094A43F480335362BFF389
:1026E0004F8F00BFBFF36F8F00BF00BF0C37BD46D9
:1026F0005DF8047B704700BF90ED00E000ED00E066
:1027000080B483B000AF78607B685A781B4B9A60C6
:102710001A4B1B69194A23F001031361174A7B689E
:102720005B68D3607B681B7B1A077B68DB7A1B06C0
:102730001A437B689B7ADB041A437B685B7B9B04B0
:102740001A437B689B7B5B041A437B68DB7B1B041F
:102750001A437B685B7A1B021A437B681B7A5B0017
:1027600013437A6812781146044A0B43136100BF81
:102770000C37BD465DF8047B704700BF90ED00E06C
:1027800080B586B000AF7860FFF744FE38617B68A3
:10279000002B01D1012316E37B681B68664A934234
:1027A0004AD07B681B68654A934245D07B681B68AA
:1027B000634A934240D07B681B68624A93423BD095
:1027C0007B681B68604A934236D07B681B685F4A0F
:1027D000934231D07B681B685D4A93422CD07B6862
:1027E0001B685C4A934227D07B681B685A4A934215
:1027F00022D07B681B68594A93421DD07B681B68B6
:10280000574A934218D07B681B68564A934213D0AC
:102810007B681B68544A93420ED07B681B68534AFE
:10282000934209D07B681B68514A934204D07B686D
:102830001B68504A934201D1012300E00023002B82
:1028400000F03B817B68022283F835207B68002200
:1028500083F834207B681B68374A93424AD07B68F0
:102860001B68364A934245D07B681B68344A9342C2
:1028700040D07B681B68334A93423BD07B681B681F
:10288000314A934236D07B681B68304A934231D03C
:102890007B681B682E4A93422CD07B681B682D4AAC
:1028A000934227D07B681B682B4A934222D07B68D7
:1028B0001B682A4A93421DD07B681B68284A9342B2
:1028C00018D07B681B68274A934213D07B681B682B
:1028D000254A93420ED07B681B68244A934209D054
:1028E0007B681B68224A934204D07B681B68214A9C
:1028F000934208D17B681B681A687B681B6822F0CA
:1029000001021A6007E07B681B681A687B681B6815
:1029100022F001021A602FE0FFF77CFD02463B69BE
:10292000D31A052B28D97B6820225A657B6803229D
:1029300083F83520012346E21000024028000240BF
:1029400040000240580002407000024088000240EF
:10295000A0000240B80002401004024028040240D7
:1029600040040240580402407004024088040240BF
:10297000A0040240B80402407B681B681B6803F097
:102980000103002BC8D17B681B681B687B617A69D7
:10299000834B13407B617B689A687B68DB681A43D2
:1029A0007B681B691A437B685B691A437B689B6978
:1029B0001A437B68DB691A437B681B6A13437A6995
:1029C00013437B617B685B6A042B07D17B68DA6AFF
:1029D0007B681B6B13437A6913437B61714B1A68E5
:1029E000714B1340B3F1005F28D37B685B68282BE1
:1029F00003D97B685B682E2B17D97B685B683E2BFD
:102A000003D97B685B68422B0FD97B685B68462BD8
:102A100003D97B685B68482B07D97B685B684E2BC2
:102A200005D97B685B68522B01D8012300E00023A5
:102A3000002B03D07B6943F480137B617B681B68A8
:102A40007A691A607B681B685B697B617B6923F02C
:102A500007037B617B685B6A7A6913437B617B68F0
:102A60005B6A042B17D17B689B6A7A6913437B618D
:102A70007B68DB6A002B0ED0786802F033FB0346DC
:102A8000002B08D07B6840225A657B68012283F8BE
:102A90003520012397E17B681B687A695A61786861
:102AA00002F06EFA0346BB607B68DB6D03F01F0328
:102AB0003F229A40BB689A60CDE07B681B683B4A26
:102AC000934222D07B681B68394A93421DD07B68B1
:102AD0001B68384A934218D07B681B68364A934279
:102AE00013D07B681B68354A93420ED07B681B6805
:102AF000334A934209D07B681B68324A934204D020
:102B00007B681B68304A934201D1012300E0002317
:102B1000002B00F097807B681B68244A934221D0E9
:102B20007B681B68224A93421CD07B681B68214A41
:102B3000934217D07B681B681F4A934212D07B6870
:102B40001B681E4A93420DD07B681B681C4A934247
:102B500008D07B681B681B4A934203D07B681B68C4
:102B6000194A93427B68022283F835207B68002251
:102B700083F834207B681B681B687B617A69134B80
:102B800013407B617B689B68402B21D07B689B68EE
:102B9000802B02D14FF480431BE0002319E000BFDB
:102BA0003F8010FE0010005C0000FFFF0854025838
:102BB0001C54025830540258445402585854025875
:102BC0006C54025880540258945402580F00FEFF6F
:102BD00010237A68D268D2081A437B681B69DB0825
:102BE0001A437B685B69DB081A437B689B69DB08D7
:102BF0001A437B68DB69DB081A437B681B6A1B0985
:102C000013437A6913437B617B681B687A691A6096
:102C10007B681B681A466E4B13446E4AA2FB032363
:102C20001B099A007B68DA65786802F0A9F9034607
:102C3000FB607B68DB6D03F01F0301229A40FB6899
:102C40005A6008E07B6840225A657B68032283F85B
:102C500035200123B7E07B681B685F4A934272D03E
:102C60007B681B685D4A93426DD07B681B685C4A39
:102C7000934268D07B681B685A4A934263D07B6852
:102C80001B68594A93425ED07B681B68574A93423F
:102C900059D07B681B68564A934254D07B681B68A6
:102CA000544A93424FD07B681B68534A93424AD0A0
:102CB0007B681B68514A934245D07B681B68504A29
:102CC000934240D07B681B684E4A93423BD07B685E
:102CD0001B684D4A934236D07B681B684B4A93422F
:102CE00031D07B681B684A4A93422CD07B681B68B2
:102CF000484A934227D07B681B68474A934222D0B8
:102D00007B681B68454A93421DD07B681B68444A18
:102D1000934218D07B681B68424A934213D07B6869
:102D20001B68414A93420ED07B681B683F4A93421E
:102D300009D07B681B683E4A934204D07B681B68BD
:102D40003C4A934201D1012300E00023002B32D002
:102D5000786802F043FA7B689B68802B02D17B681D
:102D600000225A607B685A687B681B6ED2B21A6078
:102D70007B685B6E7A68926E5A607B685B68002B3A
:102D800010D07B685B68082B0CD8786802F0C0FA1A
:102D90007B68DB6E00221A607B681B6F7A68526F5B
:102DA0005A6008E07B680022DA667B6800221A67B6
:102DB0007B6800225A677B6800225A657B68012283
:102DC00083F83520002318461837BD4680BD00BF64
:102DD000F8ABFDA7CDCCCCCC1000024028000240BF
:102DE000400002405800024070000240880002404B
:102DF000A0000240B8000240100402402804024033
:102E0000400402405804024070040240880402401A
:102E1000A0040240B8040240085402581C5402584E
:102E20003054025844540258585402586C540258B2
:102E3000805402589454025880B586B000AFF860B0
:102E4000B9607A603B600023FB75FB68002B01D101
:102E5000012326E2FB6893F83430012B01D10223D1
:102E60001FE2FB68012283F83420FB6893F83530B9
:102E7000DBB2012B40F00A82FB68022283F8352086
:102E8000FB6800225A65FB681B68684A93424AD077
:102E9000FB681B68664A934245D0FB681B68654A1D
:102EA000934240D0FB681B68634A93423BD0FB6867
:102EB0001B68624A934236D0FB681B68604A9342A3
:102EC00031D0FB681B685F4A93422CD0FB681B68BB
:102ED0005D4A934227D0FB681B685C4A934222D02C
:102EE000FB681B685A4A93421DD0FB681B68594A0D
:102EF000934218D0FB681B68574A934213D0FB6873
:102F00001B68564A93420ED0FB681B68544A934292
:102F100009D0FB681B68534A934204D0FB681B68C6
:102F2000514A934208D1FB681B681A68FB681B680A
:102F300022F001021A6007E0FB681B681A68FB6850
:102F40001B6822F001021A603B687A68B968F86869
:102F500001F06AFEFB681B68344A93424AD0FB6862
:102F60001B68334A934245D0FB681B68314A934241
:102F700040D0FB681B68304A93423BD0FB681B681B
:102F80002E4A934236D0FB681B682D4A934231D0BB
:102F9000FB681B682B4A93422CD0FB681B682A4AAB
:102FA000934227D0FB681B68284A934222D0FB68D3
:102FB0001B68274A93421DD0FB681B68254A934231
:102FC00018D0FB681B68244A934213D0FB681B6827
:102FD000224A93420ED0FB681B68214A934209D0D3
:102FE000FB681B681F4A934204D0FB681B681E4A9B
:102FF000934201D1012300E00023002B36D0FB686F
:103000001B681B6823F01E02FB681B6842F0160257
:103010001A60FB681B6C002B3ED0FB681B681A68AB
:10302000FB681B6842F008021A6035E0100002409D
:103030002800024040000240580002407000024058
:1030400088000240A0000240B80002401004024084
:103050002804024040040240580402407004024028
:1030600088040240A0040240B8040240FB681B68C8
:103070001B6823F00E02FB681B6842F00A021A600C
:10308000FB681B6C002B07D0FB681B681A68FB6889
:103090001B6842F004021A60FB681B68834A934273
:1030A00072D0FB681B68824A93426DD0FB681B6834
:1030B000804A934268D0FB681B687F4A934263D082
:1030C000FB681B687D4A93425ED0FB681B687C4AA4
:1030D000934259D0FB681B687A4A934254D0FB68EC
:1030E0001B68794A93424FD0FB681B68774A93422A
:1030F0004AD0FB681B68764A934245D0FB681B6840
:10310000744A934240D0FB681B68734A93423BD099
:10311000FB681B68714A934236D0FB681B68704A93
:10312000934231D0FB681B686E4A93422CD0FB68F7
:103130001B686D4A934227D0FB681B686B4A934219
:1031400022D0FB681B686A4A93421DD0FB681B684B
:10315000684A934218D0FB681B68674A934213D0B1
:10316000FB681B68654A93420ED0FB681B68644A83
:10317000934209D0FB681B68624A934204D0FB6803
:103180001B68614A934201D1012300E00023002B18
:103190001AD0FB681B6E1B6803F48033002B07D02A
:1031A000FB681B6E1A68FB681B6E42F480721A6023
:1031B000FB68DB6E002B07D0FB68DB6E1A68FB68D0
:1031C000DB6E42F480721A60FB681B68374A9342D8
:1031D0004AD0FB681B68364A934245D0FB681B689F
:1031E000344A934240D0FB681B68334A93423BD039
:1031F000FB681B68314A934236D0FB681B68304A33
:10320000934231D0FB681B682E4A93422CD0FB6856
:103210001B682D4A934227D0FB681B682B4A9342B8
:1032200022D0FB681B682A4A93421DD0FB681B68AA
:10323000284A934218D0FB681B68274A934213D050
:10324000FB681B68254A93420ED0FB681B68244A22
:10325000934209D0FB681B68224A934204D0FB6862
:103260001B68214A934208D1FB681B681A68FB68F7
:103270001B6842F001021A6012E0FB681B681A68C2
:10328000FB681B6842F001021A6009E0FB684FF41A
:1032900000625A65FB68002283F834200123FB7525
:1032A000FB7D18461837BD4680BD00BF10000240A8
:1032B00028000240400002405800024070000240D6
:1032C00088000240A0000240B80002401004024002
:1032D00028040240400402405804024070040240A6
:1032E00088040240A0040240B80402400854025876
:1032F0001C5402583054025844540258585402582E
:103300006C540258805402589454025880B586B0C8
:1033100000AF7860FFF77EF838617B68002B01D141
:103320000123DCE27B6893F83530DBB2022B08D056
:103330007B6880225A657B68002283F83420012351
:10334000CDE27B681B68764A93424AD07B681B6853
:10335000744A934245D07B681B68734A934240D0BD
:103360007B681B68714A93423BD07B681B68704A3C
:10337000934236D07B681B686E4A934231D07B689B
:103380001B686D4A93422CD07B681B686B4A934242
:1033900027D07B681B686A4A934222D07B681B68EF
:1033A000684A93421DD07B681B68674A934218D0D5
:1033B0007B681B68654A934213D07B681B68644A2C
:1033C00093420ED07B681B68624A934209D07B68A7
:1033D0001B68614A934204D07B681B685F4A934232
:1033E00001D1012300E00023002B13D07B681B6870
:1033F0001A687B681B6822F01E021A607B681B68D3
:103400005A697B681B6822F080025A617B681B68DE
:103410007B610AE07B681B681A687B681B6822F086
:103420000E021A607B681B687B617B681B683C4AE4
:10343000934272D07B681B683A4A93426DD07B6896
:103440001B68394A934268D07B681B68374A9342AD
:1034500063D07B681B68364A93425ED07B681B68EA
:10346000344A934259D07B681B68334A934254D004
:103470007B681B68314A93424FD07B681B68304A97
:1034800093424AD07B681B682E4A934245D07B68A2
:103490001B682D4A934240D07B681B682B4A93429D
:1034A0003BD07B681B682A4A934236D07B681B68F6
:1034B000284A934231D07B681B68274A93422CD01C
:1034C0007B681B68254A934227D07B681B68244A87
:1034D000934222D07B681B68224A93421DD07B68AE
:1034E0001B68214A934218D07B681B681F4A93428D
:1034F00013D07B681B681E4A93420ED07B681B6802
:103500001C4A934209D07B681B681B4A934204D033
:103510007B681B68194A934232D1012331E000BF16
:1035200010000240280002404000024058000240C3
:103530007000024088000240A0000240B800024033
:103540001004024028040240400402405804024093
:103550007004024088040240A0040240B804024003
:10356000085402581C54025830540258445402580B
:10357000585402586C5402588054025894540258BB
:103580000023002B07D07B681B6E1A687B681B6EBC
:1035900022F480721A607B681B686D4A93424AD09D
:1035A0007B681B686B4A934245D07B681B686A4AFC
:1035B000934240D07B681B68684A93423BD07B684B
:1035C0001B68674A934236D07B681B68654A934202
:1035D00031D07B681B68644A93422CD07B681B689F
:1035E000624A934227D07B681B68614A934222D08B
:1035F0007B681B685F4A93421DD07B681B685E4AEC
:10360000934218D07B681B685C4A934213D07B6856
:103610001B685B4A93420ED07B681B68594A9342F1
:1036200009D07B681B68584A934204D07B681B68AA
:10363000564A934208D17B681B681A687B681B68EE
:1036400022F001021A6007E07B681B681A687B6839
:103650001B6822F001021A6013E0FEF7DBFE02464F
:103660003B69D31A052B0CD97B6820225A657B68ED
:10367000032283F835207B68002283F8342001235D
:103680002DE17B691B6803F00103002BE5D17B680A
:103690001B682F4A93424AD07B681B682D4A93428D
:1036A00045D07B681B682C4A934240D07B681B68DE
:1036B0002A4A93423BD07B681B68294A934236D002
:1036C0007B681B68274A934231D07B681B68264A77
:1036D00093422CD07B681B68244A934227D07B6896
:1036E0001B68234A934222D07B681B68214A93427D
:1036F0001DD07B681B68204A934218D07B681B68EA
:103700001E4A934213D07B681B681D4A93420ED019
:103710007B681B681B4A934209D07B681B681A4A66
:10372000934204D07B681B68184A934201D101235D
:1037300000E00023002B2BD07B689B6DBB607B6877
:10374000DB6D03F01F033F229A40BB689A602AE0BA
:103750001000024028000240400002405800024091
:103760007000024088000240A0000240B800024001
:103770001004024028040240400402405804024061
:103780007004024088040240A0040240B8040240D1
:103790007B689B6DFB607B68DB6D03F01F03012280
:1037A0009A40FB685A607B681B684F4A934272D00C
:1037B0007B681B684D4A93426DD07B681B684C4AFE
:1037C000934268D07B681B684A4A934263D07B6807
:1037D0001B68494A93425ED07B681B68474A934204
:1037E00059D07B681B68464A934254D07B681B685B
:1037F000444A93424FD07B681B68434A93424AD065
:103800007B681B68414A934245D07B681B68404AED
:10381000934240D07B681B683E4A93423BD07B6812
:103820001B683D4A934236D07B681B683B4A9342F3
:1038300031D07B681B683A4A93422CD07B681B6866
:10384000384A934227D07B681B68374A934222D07C
:103850007B681B68354A93421DD07B681B68344ADD
:10386000934218D07B681B68324A934213D07B681E
:103870001B68314A93420ED07B681B682F4A9342E3
:1038800009D07B681B682E4A934204D07B681B6872
:103890002C4A934201D1012300E00023002B15D0D4
:1038A0007B685B6E7A68926E5A607B68DB6E002B79
:1038B0000CD07B68DB6E1A687B68DB6E22F480724A
:1038C0001A607B681B6F7A68526F5A607B680122AE
:1038D00083F835207B68002283F8342000231846C3
:1038E0001837BD4680BD00BF1000024028000240CE
:1038F0004000024058000240700002408800024030
:10390000A0000240B8000240100402402804024017
:1039100040040240580402407004024088040240FF
:10392000A0040240B8040240085402581C54025833
:103930003054025844540258585402586C54025897
:10394000805402589454025880B584B000AF786017
:103950007B68002B01D1012337E27B6893F8353077
:10396000DBB2022B04D07B6880225A6501232CE253
:103970007B681B685C4A93424AD07B681B685B4A41
:10398000934245D07B681B68594A934240D07B687C
:103990001B68584A93423BD07B681B68564A934247
:1039A00036D07B681B68554A934231D07B681B68D0
:1039B000534A93422CD07B681B68524A934227D0CB
:1039C0007B681B68504A934222D07B681B684F4A31
:1039D00093421DD07B681B684D4A934218D07B6888
:1039E0001B684C4A934213D07B681B684A4A934237
:1039F0000ED07B681B68494A934209D07B681B68DC
:103A0000474A934204D07B681B68464A934201D1DF
:103A1000012300E00023002B00F086807B68042255
:103A200083F835207B681B682F4A93424AD07B6815
:103A30001B682E4A934245D07B681B682C4A9342F0
:103A400040D07B681B682B4A93423BD07B681B6845
:103A5000294A934236D07B681B68284A934231D06A
:103A60007B681B68264A93422CD07B681B68254ADA
:103A7000934227D07B681B68234A934222D07B68FD
:103A80001B68224A93421DD07B681B68204A9342E0
:103A900018D07B681B681F4A934213D07B681B6851
:103AA0001D4A93420ED07B681B681C4A934209D082
:103AB0007B681B681A4A934204D07B681B68194ACA
:103AC000934208D17B681B681A687B681B6822F0E8
:103AD00001021A6078E17B681B681A687B681B68C2
:103AE00022F001021A606FE110000240280002403B
:103AF000400002405800024070000240880002402E
:103B0000A0000240B8000240100402402804024015
:103B100040040240580402407004024088040240FD
:103B2000A0040240B80402407B681B681A687B68E6
:103B30001B6822F00E021A607B681B686C4A934275
:103B40004AD07B681B686B4A934245D07B681B68F0
:103B5000694A934240D07B681B68684A93423BD0D5
:103B60007B681B68664A934236D07B681B68654A4F
:103B7000934231D07B681B68634A93422CD07B68A8
:103B80001B68624A934227D07B681B68604A934255
:103B900022D07B681B685F4A93421DD07B681B68FC
:103BA0005D4A934218D07B681B685C4A934213D0ED
:103BB0007B681B685A4A93420ED07B681B68594A3F
:103BC000934209D07B681B68574A934204D07B68B4
:103BD0001B68564A934208D17B681B681A687B6849
:103BE0001B6822F001021A6007E07B681B681A68F4
:103BF0007B681B6822F001021A607B681B683C4AE4
:103C0000934272D07B681B683A4A93426DD07B68BE
:103C10001B68394A934268D07B681B68374A9342D5
:103C200063D07B681B68364A93425ED07B681B6812
:103C3000344A934259D07B681B68334A934254D02C
:103C40007B681B68314A93424FD07B681B68304ABF
:103C500093424AD07B681B682E4A934245D07B68CA
:103C60001B682D4A934240D07B681B682B4A9342C5
:103C70003BD07B681B682A4A934236D07B681B681E
:103C8000284A934231D07B681B68274A93422CD044
:103C90007B681B68254A934227D07B681B68244AAF
:103CA000934222D07B681B68224A93421DD07B68D6
:103CB0001B68214A934218D07B681B681F4A9342B5
:103CC00013D07B681B681E4A93420ED07B681B682A
:103CD0001C4A934209D07B681B681B4A934204D05C
:103CE0007B681B68194A934232D1012331E000BF3F
:103CF00010000240280002404000024058000240EC
:103D00007000024088000240A0000240B80002405B
:103D100010040240280402404004024058040240BB
:103D20007004024088040240A0040240B80402402B
:103D3000085402581C540258305402584454025833
:103D4000585402586C5402588054025894540258E3
:103D50000023002B28D07B681B6E1A687B681B6EC3
:103D600022F480721A607B689B6DFB607B68DB6D60
:103D700003F01F0301229A40FB685A607B685B6E68
:103D80007A68926E5A607B68DB6E002B0CD07B6881
:103D9000DB6E1A687B68DB6E22F480721A607B68C7
:103DA0001B6F7A68526F5A607B68012283F8352056
:103DB0007B68002283F834207B681B6D002B03D0C6
:103DC0007B681B6D78689847002318461037BD46FE
:103DD00080BD00BF80B58AB000AF78600023FB6073
:103DE000674B1B68674AA2FB03239B0A7B627B68C5
:103DF0009B6D3B627B689B6DFB613B6A1B68BB6193
:103E0000FB691B687B617B681B685F4A93424AD0F1
:103E10007B681B685D4A934245D07B681B685C4A9F
:103E2000934240D07B681B685A4A93423BD07B68E0
:103E30001B68594A934236D07B681B68574A9342A5
:103E400031D07B681B68564A93422CD07B681B6834
:103E5000544A934227D07B681B68534A934222D02E
:103E60007B681B68514A93421DD07B681B68504A8F
:103E7000934218D07B681B684E4A934213D07B68EC
:103E80001B684D4A93420ED07B681B684B4A934295
:103E900009D07B681B684A4A934204D07B681B6840
:103EA000484A934201D1012300E00023002B00F097
:103EB0002B847B68DB6D03F01F0308229A40BB69EB
:103EC0001340002B00F0A2807B681B682E4A9342AF
:103ED0004AD07B681B682D4A934245D07B681B689B
:103EE0002B4A934240D07B681B682A4A93423BD0BE
:103EF0007B681B68284A934236D07B681B68274A38
:103F0000934231D07B681B68254A93422CD07B6852
:103F10001B68244A934227D07B681B68224A93423D
:103F200022D07B681B68214A93421DD07B681B68A6
:103F30001F4A934218D07B681B681E4A934213D0D5
:103F40007B681B681C4A93420ED07B681B681B4A27
:103F5000934209D07B681B68194A934204D07B685E
:103F60001B68184A93422FD17B681B681B6803F0BB
:103F70000403002B14BF01230023DBB22EE000BF9B
:103F800028000024B5814E1B10000240280002408A
:103F90004000024058000240700002408800024089
:103FA000A0000240B8000240100402402804024071
:103FB0004004024058040240700402408804024059
:103FC000A0040240B80402407B681B681B6803F031
:103FD0000803002B14BF01230023DBB2002B15D0F4
:103FE0007B681B681A687B681B6822F004021A60F1
:103FF0007B68DB6D03F01F0308229A403B6A9A60DE
:104000007B685B6D43F001027B685A657B68DB6D02
:1040100003F01F03BA6922FA03F303F00103002B34
:104020006ED07B681B68694A93424AD07B681B68E4
:10403000674A934245D07B681B68664A934240D0EA
:104040007B681B68644A93423BD07B681B68634A69
:10405000934236D07B681B68614A934231D07B68BB
:104060001B68604A93422CD07B681B685E4A93426F
:1040700027D07B681B685D4A934222D07B681B680F
:104080005B4A93421DD07B681B685A4A934218D002
:104090007B681B68584A934213D07B681B68574A59
:1040A00093420ED07B681B68554A934209D07B68C7
:1040B0001B68544A934204D07B681B68524A93425F
:1040C0000AD17B681B685B6903F08003002B14BF77
:1040D00001230023DBB203E07B681B681B6800231D
:1040E000002B0DD07B68DB6D03F01F0301229A408B
:1040F0003B6A9A607B685B6D43F002027B685A659D
:104100007B68DB6D03F01F0304229A40BB691340F8
:10411000002B00F08F807B681B682C4A93424AD0AA
:104120007B681B682A4A934245D07B681B68294AF2
:10413000934240D07B681B68274A93423BD07B6800
:104140001B68264A934236D07B681B68244A9342F8
:1041500031D07B681B68234A93422CD07B681B6854
:10416000214A934227D07B681B68204A934222D081
:104170007B681B681E4A93421DD07B681B681D4AE2
:10418000934218D07B681B681B4A934213D07B680C
:104190001B681A4A93420ED07B681B68184A9342E8
:1041A00009D07B681B68174A934204D07B681B6860
:1041B000154A93422AD17B681B681B6803F00203EF
:1041C000002B14BF01230023DBB223E010000240C8
:1041D00028000240400002405800024070000240A7
:1041E00088000240A0000240B800024010040240D3
:1041F0002804024040040240580402407004024077
:1042000088040240A0040240B80402407B681B6896
:104210001B680023002B0DD07B68DB6D03F01F03B0
:1042200004229A403B6A9A607B685B6D43F004020B
:104230007B685A657B68DB6D03F01F0310229A4090
:10424000BB691340002B00F0A6807B681B68854A81
:1042500093424AD07B681B68834A934245D07B686F
:104260001B68824A934240D07B681B68804A934215
:104270003BD07B681B687F4A934236D07B681B68C3
:104280007D4A934231D07B681B687C4A93422CD094
:104290007B681B687A4A934227D07B681B68794AFF
:1042A000934222D07B681B68774A93421DD07B687B
:1042B0001B68764A934218D07B681B68744A934205
:1042C00013D07B681B68734A93420ED07B681B68CF
:1042D000714A934209D07B681B68704A934204D0AC
:1042E0007B681B686E4A93420AD17B681B681B6817
:1042F00003F00803002B14BF01230023DBB209E005
:104300007B681B681B6803F00403002B14BF0123A8
:104310000023DBB2002B3ED07B68DB6D03F01F0374
:1043200010229A403B6A9A607B681B681B6803F402
:104330008023002B18D07B681B681B6803F40023C4
:10434000002B08D17B681B6C002B24D07B681B6C76
:10435000786898471FE07B689B6C002B1BD07B68BC
:104360009B6C7868984716E07B681B681B6803F4B1
:104370008073002B07D17B681B681A687B681B68F9
:1043800022F008021A607B681B6C002B03D07B684C
:104390001B6C786898477B68DB6D03F01F03202255
:1043A0009A40BB691340002B00F010817B681B68AA
:1043B0002C4A93424AD07B681B682B4A934245D0D3
:1043C0007B681B68294A934240D07B681B68284A57
:1043D00093423BD07B681B68264A934236D07B6869
:1043E0001B68254A934231D07B681B68234A93425D
:1043F0002CD07B681B68224A934227D07B681B68BD
:10440000204A934222D07B681B681F4A93421DD0EA
:104410007B681B681D4A934218D07B681B681C4A46
:10442000934213D07B681B681A4A93420ED07B6874
:104430001B68194A934209D07B681B68174A93424C
:1044400004D07B681B68164A93422BD17B681B689B
:104450001B6803F01003002B14BF01230023DBB201
:104460002AE000BF10000240280002404000024045
:10447000580002407000024088000240A000024044
:10448000B8000240100402402804024040040240E8
:10449000580402407004024088040240A004024014
:1044A000B80402407B681B681B6803F00203002B02
:1044B00014BF01230023DBB2002B00F087807B6850
:1044C000DB6D03F01F0320229A403B6A9A607B68F1
:1044D00093F83530DBB2042B39D17B681B681A683E
:1044E0007B681B6822F016021A607B681B685A6999
:1044F0007B681B6822F080025A617B681B6C002B72
:1045000003D17B689B6C002B07D07B681B681A6803
:104510007B681B6822F008021A607B68DB6D03F081
:104520001F033F229A403B6A9A607B68012283F80E
:1045300035207B68002283F834207B681B6D002BBC
:1045400000F04A837B681B6D7868984744E37B687A
:104550001B681B6803F48023002B18D07B681B6842
:104560001B6803F40023002B08D17B685B6C002BD5
:104570002CD07B685B6C7868984727E07B68DB6BA6
:10458000002B23D07B68DB6B786898471EE07B6844
:104590001B681B6803F48073002B0FD17B681B68BA
:1045A0001A687B681B6822F010021A607B6801227F
:1045B00083F835207B68002283F834207B68DB6B2E
:1045C000002B03D07B68DB6B786898477B685B6D5A
:1045D000002B00F006837B685B6D03F00103002B6A
:1045E00000F088807B68042283F835207B681B6894
:1045F0007A4A93424AD07B681B68794A934245D0F5
:104600007B681B68774A934240D07B681B68764A78
:1046100093423BD07B681B68744A934236D07B68D8
:104620001B68734A934231D07B681B68714A93427E
:104630002CD07B681B68704A934227D07B681B682C
:104640006E4A934222D07B681B686D4A93421DD00C
:104650007B681B686B4A934218D07B681B686A4A68
:10466000934213D07B681B68684A93420ED07B68E4
:104670001B68674A934209D07B681B68654A93426E
:1046800004D07B681B68644A934208D17B681B682E
:104690001A687B681B6822F001021A6007E07B68D9
:1046A0001B681A687B681B6822F001021A60FB68AD
:1046B0000133FB607A6A9A4207D37B681B681B68E8
:1046C00003F00103002BF2D100E000BF7B681B6800
:1046D0001B6803F00103002B04D07B68032283F8DE
:1046E000352003E07B68012283F835207B680022B7
:1046F00083F834207B68DB6C002B00F072827B68CF
:10470000DB6C786898476CE27B681B68434A93428D
:1047100022D07B681B68424A93421DD07B681B688D
:10472000404A934218D07B681B683F4A934213D09B
:104730007B681B683D4A93420ED07B681B683C4AED
:10474000934209D07B681B683A4A934204D07B6845
:104750001B68394A934201D1012300E00023002B5A
:1047600000F03F827B681B681B683B617B68DB6DE8
:1047700003F01F0304229A407B691340002B00F0D2
:10478000CD803B6903F00403002B00F0C7807B68F9
:10479000DB6D03F01F0304229A40FB695A603B69FA
:1047A00003F40043002B49D03B6903F48033002B12
:1047B00009D17B689B6C002B00F010827B689B6C9E
:1047C000786898470AE27B681B6C002B00F0068231
:1047D0007B681B6C7868984700E200BF10000240BD
:1047E0002800024040000240580002407000024091
:1047F00088000240A0000240B800024010040240BD
:104800002804024040040240580402407004024060
:1048100088040240A0040240B80402400854025830
:104820001C540258305402584454025858540258E8
:104830006C54025880540258945402583B6903F057
:104840002003002B60D17B681B687F4A93424AD0CB
:104850007B681B687D4A934245D07B681B687C4A15
:10486000934240D07B681B687A4A93423BD07B6876
:104870001B68794A934236D07B681B68774A93421B
:1048800031D07B681B68764A93422CD07B681B68CA
:10489000744A934227D07B681B68734A934222D0A4
:1048A0007B681B68714A93421DD07B681B68704A05
:1048B000934218D07B681B686E4A934213D07B6882
:1048C0001B686D4A93420ED07B681B686B4A93420B
:1048D00009D07B681B686A4A934204D07B681B68D6
:1048E000684A934208D17B681B681A687B681B681A
:1048F00022F008021A6007E07B681B681A687B6870
:104900001B6822F004021A607B681B6C002B00F00D
:1049100065817B681B6C786898475FE17B68DB6D1D
:1049200003F01F0302229A407B691340002B00F022
:10493000C5803B6903F00203002B00F0BF807B6859
:10494000DB6D03F01F0302229A40FB695A603B694A
:1049500003F40043002B18D03B6903F48033002B91
:1049600009D17B685B6C002B00F03A817B685B6C43
:104970007868984734E17B68DB6B002B00F030816E
:104980007B68DB6B786898472AE13B6903F020037A
:10499000002B40F089807B681B682B4A93424AD0E9
:1049A0007B681B68294A934245D07B681B68284A6C
:1049B000934240D07B681B68264A93423BD07B6879
:1049C0001B68254A934236D07B681B68234A934272
:1049D00031D07B681B68224A93422CD07B681B68CD
:1049E000204A934227D07B681B681F4A934222D0FB
:1049F0007B681B681D4A93421DD07B681B681C4A5C
:104A0000934218D07B681B681A4A934213D07B6884
:104A10001B68194A93420ED07B681B68174A934261
:104A200009D07B681B68164A934204D07B681B68D8
:104A3000144A934228D17B681B681A687B681B68FC
:104A400022F014021A6027E0100002402800024001
:104A500040000240580002407000024088000240BE
:104A6000A0000240B80002401004024028040240A6
:104A7000400402405804024070040240880402408E
:104A8000A0040240B80402407B681B681A687B6877
:104A90001B6822F00A021A607B68012283F8352025
:104AA0007B68002283F834207B68DB6B002B00F0EE
:104AB00097807B68DB6B7868984791E07B68DB6D5B
:104AC00003F01F0308229A407B691340002B00F07B
:104AD00088803B6903F00803002B00F082807B682C
:104AE0001B68414A93424AD07B681B683F4A934205
:104AF00045D07B681B683E4A934240D07B681B6868
:104B00003C4A93423BD07B681B683B4A934236D079
:104B10007B681B68394A934231D07B681B68384AEE
:104B200093422CD07B681B68364A934227D07B681F
:104B30001B68354A934222D07B681B68334A9342F4
:104B40001DD07B681B68324A934218D07B681B6873
:104B5000304A934213D07B681B682F4A93420ED091
:104B60007B681B682D4A934209D07B681B682C4ADE
:104B7000934204D07B681B682A4A934208D17B6821
:104B80001B681A687B681B6822F01C021A6007E029
:104B90007B681B681A687B681B6822F00E021A602B
:104BA0007B68DB6D03F01F0301229A40FB695A60AA
:104BB0007B6801225A657B68012283F835207B6877
:104BC000002283F834207B68DB6C002B09D07B68E3
:104BD000DB6C7868984704E000BF02E000BF00E0AB
:104BE00000BF2837BD4680BD1000024028000240AB
:104BF000400002405800024070000240880002401D
:104C0000A0000240B8000240100402402804024004
:104C100040040240580402407004024088040240EC
:104C2000A0040240B804024080B487B000AFF8602E
:104C3000B9607A603B60FB689B6D7B61FB689B6D34
:104C40003B61FB681B687F4A934272D0FB681B681C
:104C50007D4A93426DD0FB681B687C4A934268D0C2
:104C6000FB681B687A4A934263D0FB681B68794AE9
:104C700093425ED0FB681B68774A934259D0FB6829
:104C80001B68764A934254D0FB681B68744A93426F
:104C90004FD0FB681B68734A93424AD0FB681B687D
:104CA000714A934245D0FB681B68704A934240D0DA
:104CB000FB681B686E4A93423BD0FB681B686D4AD9
:104CC000934236D0FB681B686B4A934231D0FB6835
:104CD0001B686A4A93422CD0FB681B68684A93425F
:104CE00027D0FB681B68674A934222D0FB681B6889
:104CF000654A93421DD0FB681B68644A934218D0F2
:104D0000FB681B68624A934213D0FB681B68614AC8
:104D100093420ED0FB681B685F4A934209D0FB6840
:104D20001B685E4A934204D0FB681B685C4A93424E
:104D300001D1012300E00023002B0DD0FB685B6E46
:104D4000FA68926E5A60FB68DB6E002B04D0FB6839
:104D50001B6FFA68526F5A60FB681B68394A9342AE
:104D60004AD0FB681B68384A934245D0FB681B68F1
:104D7000364A934240D0FB681B68354A93423BD089
:104D8000FB681B68334A934236D0FB681B68324A83
:104D9000934231D0FB681B68304A93422CD0FB68A9
:104DA0001B682F4A934227D0FB681B682D4A934209
:104DB00022D0FB681B682C4A93421DD0FB681B68FD
:104DC0002A4A934218D0FB681B68294A934213D0A1
:104DD000FB681B68274A93420ED0FB681B68264A73
:104DE000934209D0FB681B68244A934204D0FB68B5
:104DF0001B68234A934201D1012300E00023002BCA
:104E000059D0FB68DB6D03F01F033F229A407B699A
:104E10009A60FB681B681A68FB681B6822F4802292
:104E20001A60FB681B683A685A60FB689B68402BF5
:104E300038D1FB681B687A689A60FB681B68BA689F
:104E4000DA6086E010000240280002404000024084
:104E5000580002407000024088000240A00002405A
:104E6000B8000240100402402804024040040240FE
:104E7000580402407004024088040240A00402402A
:104E8000B8040240085402581C54025830540258C6
:104E900044540258585402586C54025880540258D2
:104EA00094540258FB681B68BA689A60FB681B68D8
:104EB0007A68DA604DE0FB681B68294A934222D089
:104EC000FB681B68274A93421DD0FB681B68264A73
:104ED000934218D0FB681B68244A934213D0FB68A6
:104EE0001B68234A93420ED0FB681B68214A9342F9
:104EF00009D0FB681B68204A934204D0FB681B68FA
:104F00001E4A934201D1012300E00023002B20D050
:104F1000FB68DB6D03F01F0301229A403B695A6076
:104F2000FB681B683A685A60FB689B68402B08D195
:104F3000FB681B687A689A60FB681B68BA68DA606D
:104F400007E0FB681B68BA689A60FB681B687A68B0
:104F5000DA6000BF1C37BD465DF8047B704700BFB8
:104F6000085402581C5402583054025844540258F1
:104F7000585402586C5402588054025894540258A1
:104F800080B485B000AF78607B681B68424A93426A
:104F90004AD07B681B68414A934245D07B681B68B6
:104FA0003F4A934240D07B681B683E4A93423BD0C5
:104FB0007B681B683C4A934236D07B681B683B4A3F
:104FC000934231D07B681B68394A93422CD07B686E
:104FD0001B68384A934227D07B681B68364A934245
:104FE00022D07B681B68354A93421DD07B681B68C2
:104FF000334A934218D07B681B68324A934213D0DD
:105000007B681B68304A93420ED07B681B682F4A2E
:10501000934209D07B681B682D4A934204D07B6879
:105020001B682C4A934201D1012300E00023002B8E
:1050300024D07B681B68DBB2103B274AA2FB03230A
:105040001B09FB60FB6803F00703244AD35C1A4684
:105050007B68DA65FB68032B08D97B681B681A46F6
:105060001F4B13401A1D7B689A650DE07B681B6817
:105070001A461B4B13407A68936505E07B681B68F2
:1050800023F0FF027B689A657B689B6D1846143796
:10509000BD465DF8047B70471000024028000240C6
:1050A0004000024058000240700002408800024068
:1050B000A0000240B8000240100402402804024050
:1050C0004004024058040240700402408804024038
:1050D000A0040240B8040240ABAAAAAACC3A010834
:1050E00000FCFFFF80B485B000AF78600023FB7345
:1050F0007B689B69002B20D17B689B6A032B58D867
:1051000001A252F823F000BF195100082B510008EA
:1051100019510008B35100087B68DB6A03F0807303
:10512000002B48D00123FB7345E07B68DB6AB3F1B9
:10513000C07F42D10123FB733FE07B689B69B3F5DD
:10514000005F23D17B689B6A032B38D801A252F8F9
:1051500023F000BF655100086B510008655100083D
:105160007D5100080123FB7330E07B68DB6A03F0AC
:105170008073002B25D00123FB7322E07B68DB6A60
:10518000B3F1C07F1FD10123FB731CE07B689B6AD6
:10519000022B02D9032B03D018E00123FB7315E087
:1051A0007B68DB6A03F08073002B0ED00123FB7356
:1051B0000BE000BF0AE000BF08E000BF06E000BF50
:1051C00004E000BF02E000BF00E000BFFB7B184628
:1051D0001437BD465DF8047B704700BF80B485B0CE
:1051E00000AF78607B681B68BB607B681B68384ACF
:1051F000934222D07B681B68364A93421DD07B685D
:105200001B68354A934218D07B681B68334A934227
:1052100013D07B681B68324A93420ED07B681B68B0
:10522000304A934209D07B681B682F4A934204D0CE
:105230007B681B682D4A934201D1012300E00023C3
:10524000002B1AD07B681B68DBB2083B284AA2FB04
:1052500003231B09FB60FA68264B13449B001A4684
:105260007B681A667B68244A5A66FB6803F01F0352
:1052700001229A407B689A6624E07B681B68DBB257
:10528000103B1E4AA2FB03231B09FB60BB681C4AA0
:10529000934206D8BB681B4A934202D9FB68083385
:1052A000FB60FA68184B13449B001A467B681A6629
:1052B0007B68164A5A66FB6803F01F0301229A4076
:1052C0007B689A6600BF1437BD465DF8047B704763
:1052D000085402581C54025830540258445402587E
:1052E000585402586C54025880540258945402582E
:1052F000CDCCCCCC0096001680580258ABAAAAAAF6
:10530000B80402400F0402400082001080080240EE
:1053100080B485B000AF78607B685B68DBB2FB600F
:10532000FB68002B4AD0FB68082B47D87B681B68BA
:10533000254A934222D07B681B68244A93421DD0A1
:105340007B681B68224A934218D07B681B68214AFD
:10535000934213D07B681B681F4A93420ED07B6830
:105360001B681E4A934209D07B681B681C4A934203
:1053700004D07B681B681B4A934201D1012300E0E3
:105380000023002B0AD0FA68174B13449B001A46DF
:105390007B68DA667B68154A1A6709E0FA68144B7D
:1053A00013449B001A467B68DA667B68114A1A67C9
:1053B000FB68013B01229A407B685A6700BF1437A3
:1053C000BD465DF8047B7047085402581C540258CF
:1053D0003054025844540258585402586C540258DD
:1053E00080540258945402583F960016405902586F
:1053F0003F8200104009024080B489B000AF78605D
:1054000039600023FB61894B7B6194E13B681A683A
:105410000121FB6901FA03F313403B613B69002B57
:1054200000F086813B685B6803F00303012B05D025
:105430003B685B6803F00303022B30D17B689B68F9
:10544000BB61FB695B00032202FA03F3DB43BA6929
:105450001340BB613B68DA68FB695B0002FA03F347
:10546000BA691343BB617B68BA699A607B685B6801
:10547000BB610122FB6902FA03F3DB43BA69134003
:10548000BB613B685B681B0903F00102FB6902FA20
:1054900003F3BA691343BB617B68BA695A603B681E
:1054A0005B6803F00303032B17D07B68DB68BB61E9
:1054B000FB695B00032202FA03F3DB43BA69134082
:1054C000BB613B689A68FB695B0002FA03F3BA6947
:1054D0001343BB617B68BA69DA603B685B6803F0C1
:1054E0000303022B23D1FB69DA087B68083253F8E7
:1054F0002230BB61FB6903F007039B000F2202FA15
:1055000003F3DB43BA691340BB613B681A69FB696B
:1055100003F007039B0002FA03F3BA691343BB616C
:10552000FB69DA087B680832B96943F822107B68A6
:105530001B68BB61FB695B00032202FA03F3DB43D8
:10554000BA691340BB613B685B6803F00302FB6907
:105550005B0002FA03F3BA691343BB617B68BA6963
:105560001A603B685B6803F44033002B00F0E08076
:105570002F4BD3F8F4302E4A43F00203C2F8F43034
:105580002B4BD3F8F43003F00203FB60FB68294A8D
:10559000FB699B08023352F82330BB61FB6903F0BF
:1055A00003039B000F2202FA03F3DB43BA691340A3
:1055B000BB617B68204A934252D07B681F4A93426A
:1055C00031D07B681E4A93422BD07B681D4A9342A0
:1055D00025D07B681C4A93421FD07B681B4A9342AC
:1055E00019D07B681A4A934213D07B68194A9342B8
:1055F0000DD07B68184A934207D07B68174A9342C4
:1056000001D109232DE00A232BE0082329E00723F9
:1056100027E0062325E0052323E0042321E00323DC
:105620001FE002231DE001231BE000BF80000058A3
:1056300000440258000400580000025800040258B8
:1056400000080258000C02580010025800140258BA
:1056500000180258001C025800200258002402586A
:105660000023FA6902F0030292009340BA691343DF
:10567000BB613849FB699B080233BA6941F82320B2
:105680004FF0B0431B68BB613B69DB43BA69134011
:10569000BB613B685B6803F48013002B03D0BA69DD
:1056A0003B691343BB614FF0B042BB6913604FF0DD
:1056B000B0435B68BB613B69DB43BA691340BB61C4
:1056C0003B685B6803F40013002B03D0BA693B69A5
:1056D0001343BB614FF0B042BB6953607B695B68A9
:1056E000BB613B69DB43BA691340BB613B685B68E4
:1056F00003F40033002B03D0BA693B691343BB6149
:105700007B69BA695A607B691B68BB613B69DB4393
:10571000BA691340BB613B685B6803F48033002BBC
:1057200003D0BA693B691343BB617B69BA691A60EC
:10573000FB690133FB613B681A68FB6922FA03F3DA
:10574000002B7FF463AE00BF00BF2437BD465DF879
:10575000047B70470004005880B483B000AF7860C9
:105760000B467B8013467B707B78002B03D07A88B6
:105770007B689A6103E07B881A047B689A6100BFAA
:105780000C37BD465DF8047B7047000080B588B0DB
:1057900000AF78607B68002B01D101230DE17B68AD
:1057A00093F84D30DBB2002B06D17B68002283F8E2
:1057B0004C207868FBF7BAFD7B68022283F84D2005
:1057C0007B681B681B6803F00103012B07D17B6812
:1057D0001B681A687B681B6822F001021A607B68EC
:1057E0001B6800221A657B685B68042B08D07B6805
:1057F0005B68062B04D07B685B680A2B40F08780CF
:105800007B685B69022B5AD07B68DB68002B02D077
:1058100002237B6101E001237B617B689B68302B65
:1058200003D07B689B68B02B02D10123FB6001E0B1
:105830000023FB604FF480504FF0000102F0F4FBB6
:10584000B8607B681B69B3F1007F13D14FF480729D
:10585000FB6822FA03F3BA68B2FBF3F213469B002B
:1058600013445B001A467B685B69B2FBF3F30533B4
:105870003B6114E02022FB6822FA03F37A6902FB01
:1058800003F3BA68B2FBF3F213469B0013445B00C8
:105890001A467B685B69B2FBF3F305333B613B69F6
:1058A000484AA2FB0323DB083B613B6903F0010389
:1058B000BB613A69BB69D31A5B08FB6103E0022351
:1058C000FB610023BB61BB69012B02D1FB69012B8A
:1058D00002D0FB69FF2B07D97B681B6D43F01002D8
:1058E0007B681A65012368E0FB69002B01D1012365
:1058F000BB617B681B681A6D334B1340FA69110456
:10590000BA69120611437A6812680B4313657B6803
:105910001B681A6D2D4B13407A6851687A6892683B
:1059200011437A68D26811437A68926911437A68A0
:10593000126A11437A68526A11437A6812690A43FB
:105940001A437B681B6842F001021A657B681B687A
:1059500040F6F8729A617B681B681A687B681B685E
:1059600022F480321A607B681B68DB6823F4000134
:105970007B68DA697B681B680A43DA607B685B686E
:10598000042B07D07B685B68062B03D07B685B68C1
:105990000A2B0AD17B681B68DB6823F000417B6817
:1059A0009A6A7B681B680A43DA607B6800221A6582
:1059B0007B68012283F84D20002318462037BD461E
:1059C00080BD00BFCDCCCCCCFFFF00FE4090FFFDE2
:1059D00080B586B000AFF860B9601346FB80002345
:1059E000FB75BB68002B02D0FB88002B01D1012383
:1059F00086E0FB6893F84D30DBB2012B01D0022327
:105A00007EE0FB6893F84C30DBB2012B01D102231E
:105A100076E0FB68012283F84C20FB68042283F8BF
:105A20004D20FB6800221A65FB68BA685A63FB6860
:105A3000FA881A87FB68FA885A87FB680022DA62BC
:105A4000FB6800221A86FB6800225A86FB689B6C62
:105A50002D4A1A64FB689B6C2C4ADA63FB689B6CCA
:105A60002B4ADA64FB68986CFB681B683033194674
:105A7000FB685B6B1A46FB685B8F9BB2FDF7DCF93A
:105A80000346002B11D0FB681B6D43F00802FB6836
:105A90001A65FB68012283F84D200123FB75FB6822
:105AA000002283F84C20FB7D2AE0FB681B689B6882
:105AB00003F48043002B07D1FB681B689A68FB68DE
:105AC0001B6842F480429A60FB681B681B6803F005
:105AD0000103002B07D1FB681B681A68FB681B6871
