:020000040800F2
:1000000000000824D5120008851000088D10000893
:10001000951000089D100008A510000800000000C1
:10002000000000000000000000000000AD1000080B
:10003000BB10000800000000C9100008D71000081D
:1000400029130008291300082913000829130008A0
:100050002913000829130008291300082913000890
:100060002913000829130008291300082913000880
:100070002913000829130008291300082913000870
:100080002913000829130008291300082913000860
:100090002913000829130008291300082913000850
:1000A0002913000829130008291300082913000840
:1000B0002913000829130008291300082913000830
:1000C0002913000829130008291300082913000820
:1000D000291300082913000829130008E510000857
:1000E0002913000829130008000000002913000844
:1000F00029130008291300082913000829130008F0
:1001000029130008291300082913000829130008DF
:1001100029130008291300082913000829130008CF
:1001200029130008291300082913000829130008BF
:1001300029130008291300082913000829130008AF
:1001400000000000000000000000000000000000AF
:10015000291300082913000829130008291300088F
:10016000291300082913000829130008291300087F
:1001700029130008291300082913000800000000B3
:10018000291300082913000829130008291300085F
:10019000291300082913000829130008291300084F
:1001A000291300082913000829130008291300083F
:1001B000291300082913000829130008291300082F
:1001C000291300082913000829130008291300081F
:1001D000291300082913000829130008291300080F
:1001E00029130008291300082913000829130008FF
:1001F00029130008291300082913000829130008EF
:1002000029130008291300082913000829130008DE
:1002100029130008291300082913000829130008CE
:100220002913000829130008291300080000000002
:1002300029130008291300080000000029130008F2
:10024000291300082913000829130008291300089E
:10025000291300082913000829130008291300088E
:10026000291300082913000829130008291300087E
:1002700029130008291300082913000800000000B2
:1002800029130008291300082913000800000000A2
:08029000000000002913000822
:1002A00010B5054C237833B9044B13B10448AFF3B0
:1002B00000800123237010BDC02000240000000036
:1002C000ECED000808B5034B1BB103490348AFF33D
:1002D000008008BD00000000C4200024ECED0008F0
:1002E000034613F8012B002AFBD1181A0138704776
:1002F00001F0FF01102A2BDB10F0070F08D010F8D7
:10030000013B013A8B422DD010F0070F42B3F6D1DA
:10031000F0B441EA012141EA014122F007047FF0F3
:1003200000070023F0E80256083C85EA010586EA4A
:10033000010685FA47F5A3FA87F586FA47F6A5FA86
:1003400087F68EB9EED1F0BC01F0FF0102F0070292
:1003500032B110F8013B013A83EA010313B1F8D13D
:100360000020704701387047002D06BF354603381E
:10037000073815F0010F07D1013015F4807F02BF57
:10038000013015F4C03F0130F0BC0138704700BFA8
:1003900081F0004102E000BF83F0004330B54FEA36
:1003A00041044FEA430594EA050F08BF90EA020FA3
:1003B0001FBF54EA000C55EA020C7FEA645C7FEA36
:1003C000655C00F0E2804FEA5454D4EB5555B8BF59
:1003D0006D420CDD2C4480EA020281EA030382EACA
:1003E000000083EA010180EA020281EA0303362D5C
:1003F00088BF30BD11F0004F4FEA01314FF4801C2F
:100400004CEA113102D0404261EB410113F0004F40
:100410004FEA03334CEA133302D0524263EB4303F7
:1004200094EA050F00F0A780A4F10104D5F1200E95
:100430000DDB02FA0EFC22FA05F2801841F10001F0
:1004400003FA0EF2801843FA05F359410EE0A5F1C4
:1004500020050EF1200E012A03FA0EFC28BF4CF0F5
:10046000020C43FA05F3C01851EBE37101F00045AB
:1004700007D54FF0000EDCF1000C7EEB00006EEBB8
:100480000101B1F5801F1BD3B1F5001F0CD3490842
:100490005FEA30004FEA3C0C04F101044FEA445299
:1004A00012F5800F80F09A80BCF1004F08BF5FEA20
:1004B000500C50F1000041EB045141EA050130BD00
:1004C0005FEA4C0C404141EB0101013C28BFB1F512
:1004D000801FE9D291F0000F04BF01460020B1FA5D
:1004E00081F308BF2033A3F10B03B3F120020CDA30
:1004F0000C3208DD02F1140CC2F10C0201FA0CF00E
:1005000021FA02F10CE002F11402D8BFC2F1200C72
:1005100001FA02F120FA0CFCDCBF41EA0C01904028
:10052000E41AA2BF01EB0451294330BD6FEA040471
:100530001F3C1CDA0C340EDC04F11404C4F120025C
:1005400020FA04F001FA02F340EA030021FA04F36E
:1005500045EA030130BDC4F10C04C4F1200220FAC5
:1005600002F001FA04F340EA0300294630BD21FA03
:1005700004F0294630BD94F0000F83F4801306BFC9
:1005800081F480110134013D4EE77FEA645C18BFBD
:100590007FEA655C29D094EA050F08BF90EA020F54
:1005A00005D054EA000C04BF1946104630BD91EA4C
:1005B000030F1EBF0021002030BD5FEA545C05D14F
:1005C0004000494128BF41F0004130BD14F580048E
:1005D0003CBF01F5801130BD01F0004545F0FE4102
:1005E00041F470014FF0000030BD7FEA645C1ABF37
:1005F000194610467FEA655C1CBF0B46024650EA6E
:10060000013406BF52EA033591EA030F41F4002199
:1006100030BD00BF90F0000F04BF0021704730B51F
:100620004FF4806404F132044FF000054FF00001F4
:1006300050E700BF90F0000F04BF0021704730B5B5
:100640004FF4806404F1320410F0004548BF40428A
:100650004FF000013EE700BF42004FEAE2014FEADF
:1006600031014FEA02701FBF12F07F4393F07F4FBA
:1006700081F06051704732F07F4208BF704793F0BD
:100680007F4F04BF41F40021704730B54FF46074D0
:1006900001F0004521F000411CE700BF50EA0102D3
:1006A00008BF704730B54FF000050AE050EA01027C
:1006B00008BF704730B511F0004502D5404261EBEC
:1006C00041014FF4806404F132045FEA915C3FF42D
:1006D000D8AE4FF003025FEADC0C18BF03325FEACA
:1006E000DC0C18BF033202EBDC02C2F1200300FA7B
:1006F00003FC20FA02F001FA03FE40EA0E0021FAA0
:1007000002F11444BDE600BF53B94AB9002908BF3D
:1007100000281CBF4FF0FF314FF0FF3000F0A2B9AE
:10072000ADF1080C6DE904CE00F03EF8DDF804E010
:10073000DDE9022304B0704708B502460B4643ECDE
:10074000172BB5EEC07BF1EE10FA03D4BDE80840DC
:1007500000F00AB8B1EE477B51EC170B00F004F83B
:10076000404261EB410108BD9FED0B6B41EC170B63
:100770009FED0B5B27EE066BBCEEC66BB8EE464BEF
:10078000A4EE457BFCEEC77B16EE101A17EE900A1E
:10079000704700BFAFF30080000000000000F03D94
:1007A000000000000000F0412DE9F047089D0C46D4
:1007B000002B4ED194468C458646B2FA82F262D91D
:1007C0004AB1C2F12003914020FA03F30CFA02FC73
:1007D000194300FA02FE4FEA1C471FFA8CF6B1FBE0
:1007E000F7F44FEA1E4307FB141143EA014304FBED
:1007F00006F199420AD91CEB030304F1FF3080F0A3
:100800001281994240F20F81023C6344591A1FFA47
:100810008EF3B1FBF7F007FB101143EA014300FB35
:1008200006F69E420AD91CEB030300F1FF3180F06B
:10083000FC809E4240F2F980634402389B1B40EAF0
:10084000044000211DB1D3400022C5E90032BDE8BB
:10085000F0878B4205D90DB1C5E90001002108469A
:10086000F5E7B3FA83F1002946D1A34202D39042BF
:10087000C0F0F080861A64EB03030120002DE6D05F
:10088000C5E90063E3E7002A40F09080A1EB0C0487
:100890004FEA1C481FFA8CF70121B4FBF8F64FEA27
:1008A0001E4308FB164443EA044307FB06F0984244
:1008B00008D91CEB030306F1FF3402D2984200F280
:1008C000CD8026461C1A1FFA8EF3B4FBF8F008FB05
:1008D000104443EA044300FB07F79F4208D91CEB8E
:1008E000030300F1FF3402D29F4200F2B0802046A1
:1008F000DB1B40EA0640A5E7C1F120068B4022FA47
:1009000006F71F4320FA06FC04FA01F343EA0C033E
:10091000F44000FA01F8380C4FEA1349B4FBF0FE3A
:100920001FFA87FC00FB1E4449EA04440EFB0CF945
:10093000A14502FA01F20AD93C190EF1FF3A80F002
:100940008480A14540F28180AEF1020E3C44A4EBCC
:1009500009041FFA83F9B4FBF0F300FB134449EADE
:10096000044403FB0CFCA44507D93C1903F1FF30F8
:1009700067D2A44565D9023B3C4443EA0E40A0FB44
:100980000293A4EB0C049C42CE469C4651D34ED01D
:1009900055B1B8EB0E0364EB0C0404FA06F6CB4039
:1009A0001E43CC40C5E90064002150E7C2F120039A
:1009B00020FA03F10CFA02FC24FA03F394400C43EE
:1009C0004FEA1C4800FA02FE1FFA8CF7B3FBF8F05E
:1009D00008FB1031230C43EA014300FB07F1994265
:1009E00008D91CEB030300F1FF362CD299422AD917
:1009F000023863445B1AA4B2B3FBF8F108FB11336D
:100A000044EA034401FB07F3A34208D91CEB0404A6
:100A100001F1FF3613D2A34211D902396444E41A1A
:100A200041EA004139E70446F0E6084606E7C845D2
:100A3000AED2B9EB020E63EB070C0138A8E73146E2
:100A4000EDE7034699E73046D4E7D6467FE76344AF
:100A500002384DE70646234608460FE7023E634448
:100A600030E700BF704700BFB0B58AB000AF00F0FC
:100A7000E3F9454B5B6903F40033002B1BD1BFF353
:100A80004F8F00BFBFF36F8F00BF3F4B0022C3F8F3
:100A90005022BFF34F8F00BFBFF36F8F00BF3A4BA1
:100AA0005B69394A43F400335361BFF34F8F00BF92
:100AB000BFF36F8F00E000BF334B5B6903F48033FB
:100AC000002B38D1304B0022C3F88420BFF34F8F66
:100AD00000BF2D4BD3F880307B627B6A5B0BC3F386
:100AE0000E033B627B6ADB08C3F30903FB613B6ACD
:100AF0005A0143F6E0731340FA69920722491343FF
:100B0000C1F86032FB695A1EFA61002BEFD13B6AD3
:100B10005A1E3A62002BE5D1BFF34F8F00BF1A4B2C
:100B20005B69194A43F480335361BFF34F8F00BFB1
:100B3000BFF36F8F00E000BF00F0F8FB00F02AF871
:100B400000F022F900F0A2F800F0D2F807F01EFA47
:100B50000E4B3C1D1D460FCD0FC495E803002060D1
:100B6000043421703B1D1846FFF7BAFB03469AB2C6
:100B7000391D4FF0FF33064805F0F6FB4FF47A704D
:100B800000F066FC00BFE3E700ED00E020EE0008A7
:100B90003021002480B59CB000AF07F124034C2223
:100BA000002118460BF07FFA3B1D20220021184639
:100BB0000BF079FA022001F069FE00233B60314B13
:100BC0009B69304A43F4404393612E4B9B6903F485
:100BD00040433B602C4BDB6A2B4A43F00103D3625A
:100BE000294BDB6A03F001033B603B6800BF254BE8
:100BF0009B6903F40053B3F5005FF8D101237B62D6
:100C00004FF4A023BB620223BB640223FB640423D2
:100C10003B654FF4F0737B650223BB651423FB65D2
:100C200002233B6604237B660023BB660023FB662E
:100C300007F12403184601F063FE0346002B01D0A0
:100C400000F026F93F237B600323BB600023FB6099
:100C500008233B6140237B614023BB614FF48063E9
:100C6000FB6140233B623B1D0421184602F0A2FABF
:100C70000346002B01D000F00BF900BF7037BD46D2
:100C800080BD00BF004802580004005880B500AF86
:100C9000154B164A1A60144B06225A60124B00225A
:100CA0009A60114B0022DA600F4B00221A610E4B42
:100CB0004BF680325A610C4B00229A610A4B00229B
:100CC000DA61094B00221A62074B00225A62064B76
:100CD00000229A62044801F0B7FC0346002B01D0C1
:100CE00000F0D6F800BF80BDDC20002400300140B9
:100CF00080B500AF224B234A1A60214B4FF4E132FA
:100D00005A601F4B00229A601D4B0022DA601C4B78
:100D100000221A611A4B0C225A61194B00229A6167
:100D2000174B0022DA61164B00221A62144B002284
:100D30005A62134B00229A62114805F0C5FA034625
:100D4000002B01D000F0A4F800210D4806F0ACFF04
:100D50000346002B01D000F09BF80021084806F064
:100D6000E1FF0346002B01D000F092F8044806F0A2
:100D700062FF0346002B01D000F08AF800BF80BD5F
:100D8000302100240048004080B588B000AF07F152
:100D90000C0300221A605A609A60DA601A61244BD0
:100DA000D3F8E030224A43F08003C2F8E030204B11
:100DB000D3F8E03003F08003BB60BB681C4BD3F872
:100DC000E0301B4A43F00103C2F8E030184BD3F87F
:100DD000E03003F001037B607B68154BD3F8E03013
:100DE000134A43F00203C2F8E030114BD3F8E0306D
:100DF00003F002033B603B68002202210D4801F032
:100E000009FC0223FB6001233B6100237B6100237B
:100E1000BB6107F10C031946064801F04BFA0021AB
:100E20004FF0007000F044FB00BF2037BD4680BD8E
:100E3000004402580000025880B584B000AF3B4621
:100E400000221A605A609A60DA6000F057FC0123B1
:100E50003B7000237B7000237B601F233B72872342
:100E60007B720023BB720023FB7201233B730123BF
:100E70007B730023BB730023FB733B46184600F0D3
:100E800075FC042000F052FC00BF1037BD4680BD49
:100E900080B400AF72B600BF00BFFDE780B483B07E
:100EA00000AF0A4BD3F8F430084A43F00203C2F80B
:100EB000F430064BD3F8F43003F002037B607B6818
:100EC00000BF0C37BD465DF8047B704700440258F4
:100ED00080B5BAB000AF786007F1D40300221A6081
:100EE0005A609A60DA601A6107F11003C02200218B
:100EF00018460BF0D8F87B681B68264A934244D109
:100F00004FF480524FF00003C7E9042300233B67EE
:100F100007F11003184602F0D9FC0346002B01D05C
:100F2000FFF7B6FF1C4BD3F8F0301B4A43F4805355
:100F3000C2F8F030184BD3F8F03003F48053FB6064
:100F4000FB68154BD3F8E030134A43F00103C2F8B5
:100F5000E030114BD3F8E03003F00103BB60BB6815
:100F60007023C7F8D4300223C7F8D8300023C7F85D
:100F7000DC300023C7F8E0300523C7F8E43007F180
:100F8000D4031946054801F095F900BFE837BD467E
:100F900080BD00BF003001400044025800000258EC
:100FA00080B5BAB000AF786007F1D40300221A60B0
:100FB0005A609A60DA601A6107F11003C0220021BA
:100FC00018460BF070F87B681B682B4A93424ED191
:100FD0004FF002024FF00003C7E904230023C7F8D3
:100FE000883007F11003184602F070FC0346002B0E
:100FF00001D0FFF74DFF214BD3F8E8301F4A43F4EF
:101000008023C2F8E8301D4BD3F8E83003F4802386
:10101000FB60FB68194BD3F8E030184A43F0020339
:10102000C2F8E030154BD3F8E03003F00203BB60A8
:10103000BB684FF44063C7F8D4300223C7F8D830F8
:101040000023C7F8DC300023C7F8E0300723C7F8D7
:10105000E43007F1D4031946094801F02BF90022C6
:101060000021272000F015FB272000F02CFB00BFFB
:10107000E837BD4680BD00BF00480040004402582C
:101080000004025880B400AF00BFFDE780B400AF99
:1010900000BFFDE780B400AF00BFFDE780B400AF44
:1010A00000BFFDE780B400AF00BFFDE780B400AF34
:1010B00000BFBD465DF8047B704780B400AF00BF41
:1010C000BD465DF8047B704780B400AF00BFBD46ED
:1010D0005DF8047B704780B500AF00F099F900BF60
:1010E00080BD000080B500AF024805F0CBF900BF1D
:1010F00080BD00BF3021002480B586B000AF78608D
:10110000144A154BD31A7B617B693B61134B1B68F7
:10111000002B02D1114B124A1A60104B1A687B68DF
:1011200013443A699A4207D20BF01CF803460C228A
:101130001A604FF0FF3309E0084B1B68FB60074B58
:101140001A687B681344054A1360FB681846183711
:10115000BD4680BD0000082400080000C421002412
:101160000000002080B400AF434BD3F88830424ADF
:1011700043F47003C2F88830404B1B6803F00F0340
:10118000062B07D83D4B1B6823F00F033B4A43F067
:10119000070313603A4B1B68394A43F0010313609D
:1011A000374B00221A61364B1A683549354B1340CC
:1011B0000B60324B1B6803F00803002B07D02F4B4A
:1011C0001B6823F00F032D4A43F0070313602C4BD9
:1011D00000229A612A4B0022DA61294B00221A620E
:1011E000274B294A9A62264B284ADA62244B284A1E
:1011F0001A63234B00225A63214B254A9A63204BE2
:101200000022DA631E4B224A1A641D4B00225A64E4
:101210001B4B1B681A4A23F480231360184B0022CF
:101220001A661C4B1A681C4B1340B3F1005F02D2C4
:101230001A4B01221A60124BD3F8D43003F48053B6
:10124000002B13D10E4BD3F8D4300D4A43F4805306
:10125000C2F8D430124B43F2D2021A60084BD3F8D2
:10126000D430074A23F48053C2F8D43000BFBD46BF
:101270005DF8047B704700BF00ED00E000200052E5
:10128000004402587FEDF6EA000202020000FF016E
:10129000800201010010005C0000FFFF0881005186
:1012A0000040005280B400AF094BDB68084A43F0AD
:1012B0000203D36000BF064B5B6803F40053002BAE
:1012C000F9D000BF00BFBD465DF8047B704700BF8A
:1012D00000480258DFF838D0FFF7E4FFFFF742FF7D
:1012E0000C480D490D4A002302E0D458C450043381
:1012F000C4188C42F9D30A4A0A4C002301E0136057
:101300000432A242FBD30AF033FFFFF7ADFB704774
:101310000000082400000024AC200024706F0108A5
:10132000C02000247CF50124FEE7000080B582B0D7
:1013300000AF032000F0A2F902F0F2F80246154BCC
:101340009B691B0A03F00F031349CB5C03F01F03D7
:1013500022FA03F37B600F4B9B6903F00F030E4AE5
:10136000D35C03F01F037A6822FA03F30B4A13607D
:101370000B4A7B6813600F2000F014F80346002B23
:1013800001D0012302E0FFF789FD0023184608374A
:10139000BD4680BD0044025870EF000804000024E0
:1013A0000000002480B582B000AF7860154B1B7838
:1013B000002B01D1012321E0134B1A68114B1B783C
:1013C00019464FF47A73B3FBF1F3B2FBF3F318460B
:1013D00000F087F90346002B01D001230EE07B6863
:1013E0000F2B0AD8002279684FF0FF3000F051F936
:1013F000064A7B681360002300E001231846083783
:10140000BD4680BD0C00002400000024080000241C
:1014100080B400AF064B1B781A46064B1B6813447A
:10142000044A136000BFBD465DF8047B704700BFEF
:101430000C000024C821002480B400AF034B1B68BB
:101440001846BD465DF8047B704700BFC8210024E4
:1014500080B584B000AF7860FFF7EEFFB8607B68BE
:10146000FB60FB68B3F1FF3F05D00A4B1B781A46BF
:10147000FB681344FB6000BFFFF7DEFF0246BB685A
:10148000D31AFA689A42F7D800BF00BF1037BD469A
:1014900080BD00BF0C00002480B400AF034B1B686C
:1014A0001B0C1846BD465DF8047B70470010005CBD
:1014B00080B483B000AF78603960074B5A687B68AE
:1014C000DB431A4004493B6813434B6000BF0C37B1
:1014D000BD465DF8047B70470004005880B485B0B9
:1014E00000AF78607B6803F00703FB600B4BDB68A1
:1014F000BB60BA684FF6FF031340BB60FB681A027B
:10150000BB681A43064B1343BB60044ABB68D360F5
:1015100000BF1437BD465DF8047B704700ED00E066
:101520000000FA0580B400AF044BDB681B0A03F02F
:1015300007031846BD465DF8047B704700ED00E0E8
:1015400080B483B000AF0346FB80B7F90630002BB0
:101550000BDBFB8803F01F020749B7F906305B0974
:10156000012000FA02F241F8232000BF0C37BD46EB
:101570005DF8047B704700BF00E100E080B483B0F9
:1015800000AF03463960FB80B7F90630002B0ADB59
:101590003B68DAB20C49B7F906301201D2B20B44FB
:1015A00083F800230AE03B68DAB20849FB8803F0BD
:1015B0000F03043B1201D2B20B441A7600BF0C3762
:1015C000BD465DF8047B704700E100E000ED00E0FF
:1015D00080B489B000AFF860B9607A60FB6803F04E
:1015E0000703FB61FB69C3F10703042B28BF042336
:1015F000BB61FB690433062B02D9FB69033B00E0A6
:1016000000237B614FF0FF32BB6902FA03F3DA4338
:10161000BB681A407B699A404FF0FF317B6901FA41
:1016200003F3D9437B680B40134318462437BD4668
:101630005DF8047B7047000080B582B000AF786031
:101640007B68013BB3F1807F01D301230FE00A4A9D
:101650007B68013B53600F214FF0FF30FFF78EFF97
:10166000054B00229A60044B07221A60002318469B
:101670000837BD4680BD00BF10E000E080B582B0F5
:1016800000AF78607868FFF729FF00BF0837BD46D4
:1016900080BD80B586B000AF0346B9607A60FB813B
:1016A000FFF740FF78617A68B9687869FFF790FFC3
:1016B0000246B7F90E3011461846FFF75FFF00BF2C
:1016C0001837BD4680BD80B582B000AF0346FB80B1
:1016D000B7F906301846FFF733FF00BF0837BD469D
:1016E00080BD80B582B000AF78607868FFF7A4FF56
:1016F000034618460837BD4680BD000080B400AFE1
:10170000BFF35F8F00BF074B5B6A064A23F4803349
:101710005362054B00225A6000BFBD465DF8047B52
:10172000704700BF00ED00E090ED00E080B483B0B2
:1017300000AF78600B4A7B6843F0010353600A4BAB
:101740005B6A094A43F480335362BFF34F8F00BF93
:10175000BFF36F8F00BF00BF0C37BD465DF8047B41
:10176000704700BF90ED00E000ED00E080B483B072
:1017700000AF78607B685A781B4B9A601A4B1B69E4
:10178000194A23F001031361174A7B685B68D36031
:101790007B681B7B1A077B68DB7A1B061A437B6816
:1017A0009B7ADB041A437B685B7B9B041A437B6850
:1017B0009B7B5B041A437B68DB7B1B041A437B68BF
:1017C0005B7A1B021A437B681B7A5B0013437A68BF
:1017D00012781146044A0B43136100BF0C37BD4613
:1017E0005DF8047B704700BF90ED00E080B586B0E7
:1017F00000AF7860FFF720FE38617B68002B01D1D5
:101800000123DCE27B6893F83530DBB2022B08D091
:101810007B6880225A657B68002283F8342001238C
:10182000CDE27B681B68764A93424AD07B681B688E
:10183000744A934245D07B681B68734A934240D0F8
:101840007B681B68714A93423BD07B681B68704A77
:10185000934236D07B681B686E4A934231D07B68D6
:101860001B686D4A93422CD07B681B686B4A93427D
:1018700027D07B681B686A4A934222D07B681B682A
:10188000684A93421DD07B681B68674A934218D010
:101890007B681B68654A934213D07B681B68644A67
:1018A00093420ED07B681B68624A934209D07B68E2
:1018B0001B68614A934204D07B681B685F4A93426D
:1018C00001D1012300E00023002B13D07B681B68AB
:1018D0001A687B681B6822F01E021A607B681B680E
:1018E0005A697B681B6822F080025A617B681B681A
:1018F0007B610AE07B681B681A687B681B6822F0C2
:101900000E021A607B681B687B617B681B683C4A1F
:10191000934272D07B681B683A4A93426DD07B68D1
:101920001B68394A934268D07B681B68374A9342E8
:1019300063D07B681B68364A93425ED07B681B6825
:10194000344A934259D07B681B68334A934254D03F
:101950007B681B68314A93424FD07B681B68304AD2
:1019600093424AD07B681B682E4A934245D07B68DD
:101970001B682D4A934240D07B681B682B4A9342D8
:101980003BD07B681B682A4A934236D07B681B6831
:10199000284A934231D07B681B68274A93422CD057
:1019A0007B681B68254A934227D07B681B68244AC2
:1019B000934222D07B681B68224A93421DD07B68E9
:1019C0001B68214A934218D07B681B681F4A9342C8
:1019D00013D07B681B681E4A93420ED07B681B683D
:1019E0001C4A934209D07B681B681B4A934204D06F
:1019F0007B681B68194A934232D1012331E000BF52
:101A000010000240280002404000024058000240FE
:101A10007000024088000240A0000240B80002406E
:101A200010040240280402404004024058040240CE
:101A30007004024088040240A0040240B80402403E
:101A4000085402581C540258305402584454025846
:101A5000585402586C5402588054025894540258F6
:101A60000023002B07D07B681B6E1A687B681B6EF7
:101A700022F480721A607B681B686D4A93424AD0D8
:101A80007B681B686B4A934245D07B681B686A4A37
:101A9000934240D07B681B68684A93423BD07B6886
:101AA0001B68674A934236D07B681B68654A93423D
:101AB00031D07B681B68644A93422CD07B681B68DA
:101AC000624A934227D07B681B68614A934222D0C6
:101AD0007B681B685F4A93421DD07B681B685E4A27
:101AE000934218D07B681B685C4A934213D07B6892
:101AF0001B685B4A93420ED07B681B68594A93422D
:101B000009D07B681B68584A934204D07B681B68E5
:101B1000564A934208D17B681B681A687B681B6829
:101B200022F001021A6007E07B681B681A687B6874
:101B30001B6822F001021A6013E0FFF77DFC0246E9
:101B40003B69D31A052B0CD97B6820225A657B6828
:101B5000032283F835207B68002283F83420012398
:101B60002DE17B691B6803F00103002BE5D17B6845
:101B70001B682F4A93424AD07B681B682D4A9342C8
:101B800045D07B681B682C4A934240D07B681B6819
:101B90002A4A93423BD07B681B68294A934236D03D
:101BA0007B681B68274A934231D07B681B68264AB2
:101BB00093422CD07B681B68244A934227D07B68D1
:101BC0001B68234A934222D07B681B68214A9342B8
:101BD0001DD07B681B68204A934218D07B681B6825
:101BE0001E4A934213D07B681B681D4A93420ED055
:101BF0007B681B681B4A934209D07B681B681A4AA2
:101C0000934204D07B681B68184A934201D1012398
:101C100000E00023002B2BD07B689B6DBB607B68B2
:101C2000DB6D03F01F033F229A40BB689A602AE0F5
:101C300010000240280002404000024058000240CC
:101C40007000024088000240A0000240B80002403C
:101C5000100402402804024040040240580402409C
:101C60007004024088040240A0040240B80402400C
:101C70007B689B6DFB607B68DB6D03F01F030122BB
:101C80009A40FB685A607B681B684F4A934272D047
:101C90007B681B684D4A93426DD07B681B684C4A39
:101CA000934268D07B681B684A4A934263D07B6842
:101CB0001B68494A93425ED07B681B68474A93423F
:101CC00059D07B681B68464A934254D07B681B6896
:101CD000444A93424FD07B681B68434A93424AD0A0
:101CE0007B681B68414A934245D07B681B68404A29
:101CF000934240D07B681B683E4A93423BD07B684E
:101D00001B683D4A934236D07B681B683B4A93422E
:101D100031D07B681B683A4A93422CD07B681B68A1
:101D2000384A934227D07B681B68374A934222D0B7
:101D30007B681B68354A93421DD07B681B68344A18
:101D4000934218D07B681B68324A934213D07B6859
:101D50001B68314A93420ED07B681B682F4A93421E
:101D600009D07B681B682E4A934204D07B681B68AD
:101D70002C4A934201D1012300E00023002B15D00F
:101D80007B685B6E7A68926E5A607B68DB6E002BB4
:101D90000CD07B68DB6E1A687B68DB6E22F4807285
:101DA0001A607B681B6F7A68526F5A607B680122E9
:101DB00083F835207B68002283F8342000231846FE
:101DC0001837BD4680BD00BF100002402800024009
:101DD000400002405800024070000240880002406B
:101DE000A0000240B8000240100402402804024053
:101DF000400402405804024070040240880402403B
:101E0000A0040240B8040240085402581C5402586E
:101E10003054025844540258585402586C540258D2
:101E2000805402589454025880B584B000AF786052
:101E30007B68002B01D1012337E27B6893F83530B2
:101E4000DBB2022B04D07B6880225A6501232CE28E
:101E50007B681B685C4A93424AD07B681B685B4A7C
:101E6000934245D07B681B68594A934240D07B68B7
:101E70001B68584A93423BD07B681B68564A934282
:101E800036D07B681B68554A934231D07B681B680B
:101E9000534A93422CD07B681B68524A934227D006
:101EA0007B681B68504A934222D07B681B684F4A6C
:101EB00093421DD07B681B684D4A934218D07B68C3
:101EC0001B684C4A934213D07B681B684A4A934272
:101ED0000ED07B681B68494A934209D07B681B6817
:101EE000474A934204D07B681B68464A934201D11B
:101EF000012300E00023002B00F086807B68042291
:101F000083F835207B681B682F4A93424AD07B6850
:101F10001B682E4A934245D07B681B682C4A93422B
:101F200040D07B681B682B4A93423BD07B681B6880
:101F3000294A934236D07B681B68284A934231D0A5
:101F40007B681B68264A93422CD07B681B68254A15
:101F5000934227D07B681B68234A934222D07B6838
:101F60001B68224A93421DD07B681B68204A93421B
:101F700018D07B681B681F4A934213D07B681B688C
:101F80001D4A93420ED07B681B681C4A934209D0BD
:101F90007B681B681A4A934204D07B681B68194A05
:101FA000934208D17B681B681A687B681B6822F023
:101FB00001021A6078E17B681B681A687B681B68FD
:101FC00022F001021A606FE1100002402800024076
:101FD0004000024058000240700002408800024069
:101FE000A0000240B8000240100402402804024051
:101FF0004004024058040240700402408804024039
:10200000A0040240B80402407B681B681A687B6821
:102010001B6822F00E021A607B681B686C4A9342B0
:102020004AD07B681B686B4A934245D07B681B682B
:10203000694A934240D07B681B68684A93423BD010
:102040007B681B68664A934236D07B681B68654A8A
:10205000934231D07B681B68634A93422CD07B68E3
:102060001B68624A934227D07B681B68604A934290
:1020700022D07B681B685F4A93421DD07B681B6837
:102080005D4A934218D07B681B685C4A934213D028
:102090007B681B685A4A93420ED07B681B68594A7A
:1020A000934209D07B681B68574A934204D07B68EF
:1020B0001B68564A934208D17B681B681A687B6884
:1020C0001B6822F001021A6007E07B681B681A682F
:1020D0007B681B6822F001021A607B681B683C4A1F
:1020E000934272D07B681B683A4A93426DD07B68FA
:1020F0001B68394A934268D07B681B68374A934211
:1021000063D07B681B68364A93425ED07B681B684D
:10211000344A934259D07B681B68334A934254D067
:102120007B681B68314A93424FD07B681B68304AFA
:1021300093424AD07B681B682E4A934245D07B6805
:102140001B682D4A934240D07B681B682B4A934200
:102150003BD07B681B682A4A934236D07B681B6859
:10216000284A934231D07B681B68274A93422CD07F
:102170007B681B68254A934227D07B681B68244AEA
:10218000934222D07B681B68224A93421DD07B6811
:102190001B68214A934218D07B681B681F4A9342F0
:1021A00013D07B681B681E4A93420ED07B681B6865
:1021B0001C4A934209D07B681B681B4A934204D097
:1021C0007B681B68194A934232D1012331E000BF7A
:1021D0001000024028000240400002405800024027
:1021E0007000024088000240A0000240B800024097
:1021F00010040240280402404004024058040240F7
:102200007004024088040240A0040240B804024066
:10221000085402581C54025830540258445402586E
:10222000585402586C54025880540258945402581E
:102230000023002B28D07B681B6E1A687B681B6EFE
:1022400022F480721A607B689B6DFB607B68DB6D9B
:1022500003F01F0301229A40FB685A607B685B6EA3
:102260007A68926E5A607B68DB6E002B0CD07B68BC
:10227000DB6E1A687B68DB6E22F480721A607B6802
:102280001B6F7A68526F5A607B68012283F8352091
:102290007B68002283F834207B681B6D002B03D001
:1022A0007B681B6D78689847002318461037BD4639
:1022B00080BD00BF80B489B000AF78603960002372
:1022C000FB61894B7B6194E13B681A680121FB69E2
:1022D00001FA03F313403B613B69002B00F0868158
:1022E0003B685B6803F00303012B05D03B685B6828
:1022F00003F00303022B30D17B689B68BB61FB6951
:102300005B00032202FA03F3DB43BA691340BB61AB
:102310003B68DA68FB695B0002FA03F3BA691343AE
:10232000BB617B68BA699A607B685B68BB610122AC
:10233000FB6902FA03F3DB43BA691340BB613B68F4
:102340005B681B0903F00102FB6902FA03F3BA6937
:102350001343BB617B68BA695A603B685B6803F0F2
:102360000303032B17D07B68DB68BB61FB695B0051
:10237000032202FA03F3DB43BA691340BB613B68F3
:102380009A68FB695B0002FA03F3BA691343BB6105
:102390007B68BA69DA603B685B6803F00303022B71
:1023A00023D1FB69DA087B68083253F82230BB611D
:1023B000FB6903F007039B000F2202FA03F3DB43E0
:1023C000BA691340BB613B681A69FB6903F00703F4
:1023D0009B0002FA03F3BA691343BB61FB69DA0895
:1023E0007B680832B96943F822107B681B68BB61BF
:1023F000FB695B00032202FA03F3DB43BA69134073
:10240000BB613B685B6803F00302FB695B0002FA97
:1024100003F3BA691343BB617B68BA691A603B680E
:102420005B6803F44033002B00F0E0802F4BD3F8BF
:10243000F4302E4A43F00203C2F8F4302B4BD3F8A9
:10244000F43003F00203FB60FB68294AFB699B0838
:10245000023352F82330BB61FB6903F003039B0096
:102460000F2202FA03F3DB43BA691340BB617B68B6
:10247000204A934252D07B681F4A934231D07B68F6
:102480001E4A93422BD07B681D4A934225D07B681D
:102490001C4A93421FD07B681B4A934219D07B6829
:1024A0001A4A934213D07B68194A93420DD07B6835
:1024B000184A934207D07B68174A934201D10923F7
:1024C0002DE00A232BE0082329E0072327E0062339
:1024D00025E0052323E0042321E003231FE002235A
:1024E0001DE001231BE000BF80000058004402589B
:1024F0000004005800000258000402580008025866
:10250000000C02580010025800140258001802581B
:10251000001C025800200258002402580023FA69C7
:1025200002F0030292009340BA691343BB61384939
:10253000FB699B080233BA6941F823204FF0B0438E
:102540001B68BB613B69DB43BA691340BB613B68F5
:102550005B6803F48013002B03D0BA693B69134313
:10256000BB614FF0B042BB6913604FF0B0435B6892
:10257000BB613B69DB43BA691340BB613B685B6885
:1025800003F40013002B03D0BA693B691343BB610A
:102590004FF0B042BB6953607B695B68BB613B69CC
:1025A000DB43BA691340BB613B685B6803F40033EB
:1025B000002B03D0BA693B691343BB617B69BA69DD
:1025C0005A607B691B68BB613B69DB43BA69134096
:1025D000BB613B685B6803F48033002B03D0BA69AE
:1025E0003B691343BB617B69BA691A60FB690133BC
:1025F000FB613B681A68FB6922FA03F3002B7FF446
:1026000063AE00BF00BF2437BD465DF8047B704752
:102610000004005880B483B000AF78600B467B8024
:1026200013467B707B78002B03D07A887B689A6195
:1026300003E07B881A047B689A6100BF0C37BD46B3
:102640005DF8047B7047000080B588B000AF78600B
:102650007B68002B01D101230DE17B6893F84D309D
:10266000DBB2002B06D17B68002283F84C2078680F
:10267000FEF72EFC7B68022283F84D207B681B68E6
:102680001B6803F00103012B07D17B681B681A68E4
:102690007B681B6822F001021A607B681B680022BD
:1026A0001A657B685B68042B08D07B685B68062B27
:1026B00004D07B685B680A2B40F087807B685B698D
:1026C000022B5AD07B68DB68002B02D002237B618F
:1026D00001E001237B617B689B68302B03D07B6822
:1026E0009B68B02B02D10123FB6001E00023FB605B
:1026F0004FF480504FF0000102F0F2FAB8607B68AE
:102700001B69B3F1007F13D14FF48072FB6822FA8A
:1027100003F3BA68B2FBF3F213469B0013445B0069
:102720001A467B685B69B2FBF3F305333B6114E047
:102730002022FB6822FA03F37A6902FB03F3BA68EA
:10274000B2FBF3F213469B0013445B001A467B680E
:102750005B69B2FBF3F305333B613B69484AA2FB7B
:102760000323DB083B613B6903F00103BB613A696A
:10277000BB69D31A5B08FB6103E00223FB61002302
:10278000BB61BB69012B02D1FB69012B02D0FB6944
:10279000FF2B07D97B681B6D43F010027B681A651D
:1027A000012368E0FB69002B01D10123BB617B6839
:1027B0001B681A6D334B1340FA691104BA6912068B
:1027C00011437A6812680B4313657B681B681A6DA6
:1027D0002D4B13407A6851687A68926811437A6881
:1027E000D26811437A68926911437A68126A114378
:1027F0007A68526A11437A6812690A431A437B68FD
:102800001B6842F001021A657B681B6840F6F8728B
:102810009A617B681B681A687B681B6822F48032A7
:102820001A607B681B68DB6823F400017B68DA6947
:102830007B681B680A43DA607B685B68042B07D0FF
:102840007B685B68062B03D07B685B680A2B0AD128
:102850007B681B68DB6823F000417B689A6A7B68B1
:102860001B680A43DA607B6800221A657B680122D4
:1028700083F84D20002318462037BD4680BD00BF99
:10288000CDCCCCCCFFFF00FE4090FFFD80B584B0E6
:1028900000AF7860194BDB6803F00403042B0AD007
:1028A000164BDB6803F007037A689A4201D00123D4
:1028B0001FE000231DE0114BDB6823F007020F49E6
:1028C0007B681343CB60FEF7B7FDF86009E0FEF7C5
:1028D000B3FD0246FB68D31AB3F57A7F01D9012311
:1028E00007E0064B5B6803F40053B3F5005FEED1DD
:1028F000002318461037BD4680BD00BF004802586F
:1029000080B58CB000AF78607B68002B02D10123CA
:1029100000F048BC7B681B6803F00103002B00F04B
:102920008880994B1B6903F03803FB62964B9B6AC6
:10293000BB62FB6A102B07D0FB6A182B11D1BB6A54
:1029400003F00303022B0CD18F4B1B6803F40033FD
:10295000002B6DD07B685B68002B69D1012300F0F0
:1029600021BC7B685B68B3F5803F06D1864B1B6852
:10297000854A43F4803313602EE07B685B68002B4C
:102980000CD1814B1B68804A23F4803313607E4B4B
:102990001B687D4A23F4802313601DE07B685B681D
:1029A000B3F5A02F0CD1784B1B68774A43F48023F2
:1029B0001360754B1B68744A43F4803313600BE05B
:1029C000714B1B68704A23F4803313606E4B1B6895
:1029D0006D4A23F4802313607B685B68002B13D05F
:1029E000FEF72AFD786208E0FEF726FD02467B6AC4
:1029F000D31A642B01D90323D4E3634B1B6803F47C
:102A00000033002BF0D014E0FEF716FD786208E0EA
:102A1000FEF712FD02467B6AD31A642B01D9032309
:102A2000C0E3594B1B6803F40033002BF0D100E0E6
:102A300000BF7B681B6803F00203002B00F0CA8014
:102A4000514B1B6903F038033B624F4B9B6AFB61A0
:102A50003B6A002B07D03B6A182B56D1FB6903F069
:102A60000303002B51D1484B1B6803F00403002BD8
:102A700005D07B68DB68002B01D1012392E3424B38
:102A80001B6823F019027B68DB683F4913430B6026
:102A9000FEF7D2FC786208E0FEF7CEFC02467B6AC5
:102AA000D31A022B01D903237CE3374B1B6803F0B5
:102AB0000403002BF0D0FEF7EFFC034641F20302C3
:102AC000934217D87B681B69402B08D12E4B5B685B
:102AD00023F47C332C4A43F4003353607AE02A4BCE
:102AE0005B6823F47C327B681B691B032649134314
:102AF0004B606FE0244B5B6823F0FE427B681B69F0
:102B00001B06214913434B6064E07B68DB68002BA4
:102B100047D01D4B1B6823F019027B68DB681A49FC
:102B200013430B60FEF788FC786208E0FEF784FC34
:102B300002467B6AD31A022B01D9032332E3124BDC
:102B40001B6803F00403002BF0D0FEF7A5FC03463E
:102B500041F20302934219D87B681B69402B08D1CC
:102B6000094B5B6823F47C33074A43F4003353601A
:102B700030E0054B5B6823F47C327B681B691B03E8
:102B8000014913434B6025E0004402589A4B5B68AF
:102B900023F0FE427B681B691B06974913434B6079
:102BA00018E0954B1B68944A23F001031360FEF76D
:102BB00043FC786208E0FEF73FFC02467B6AD31ACA
:102BC000022B01D90323EDE28B4B1B6803F00403B6
:102BD000002BF0D17B681B6803F01003002B00F082
:102BE000A980854B1B6903F03803BB61824B9B6A4C
:102BF0007B61BB69082B07D0BB69182B3AD17B6975
:102C000003F00303012B35D17B4B1B6803F4807366
:102C1000002B05D07B68DB69802B01D00123C1E24A
:102C2000FEF73AFC034641F20302934217D87B6851
:102C30001B6A202B08D1704B5B6823F0F8436E4A67
:102C400043F08043536075E06B4B5B6823F0F842C0
:102C50007B681B6A9B06684913434B606AE0664BBE
:102C6000DB6823F07C527B681B6A1B0662491343B6
:102C7000CB605FE07B68DB69002B42D05E4B1B685A
:102C80005D4A43F080031360FEF7D6FB786208E0EC
:102C9000FEF7D2FB02467B6AD31A022B01D903232B
:102CA00080E2554B1B6803F48073002BF0D0FEF7D5
:102CB000F3FB034641F20302934217D87B681B6A79
:102CC000202B08D14C4B5B6823F0F8434A4A43F071
:102CD000804353602EE0484B5B6823F0F8427B68EA
:102CE0001B6A9B06444913434B6023E0424BDB685D
:102CF00023F07C527B681B6A1B063F491343CB6061
:102D000018E03D4B1B683C4A23F080031360FEF73C
:102D100093FB786208E0FEF78FFB02467B6AD31ACA
:102D2000022B01D903233DE2334B1B6803F480736C
:102D3000002BF0D17B681B6803F00803002B36D012
:102D40007B685B69002B19D02B4B5B6F2A4A43F0E1
:102D500001035367FEF770FB786208E0FEF76CFB37
:102D600002467B6AD31A022B01D903231AE2224BB3
:102D70005B6F03F00203002BF0D018E01E4B5B6F7B
:102D80001D4A23F001035367FEF756FB786208E003
:102D9000FEF752FB02467B6AD31A022B01D90323AA
:102DA00000E2154B5B6F03F00203002BF0D17B6850
:102DB0001B6803F02003002B39D07B689B69002B34
:102DC0001CD00D4B1B680C4A43F480531360FEF774
:102DD00033FB786208E0FEF72FFB02467B6AD31ACA
:102DE000022B01D90323DDE1034B1B6803F40053DD
:102DF000002BF0D01BE000BF004402589B4B1B6827
:102E00009A4A23F480531360FEF716FB786208E0B9
:102E1000FEF712FB02467B6AD31A022B01D9032369
:102E2000C0E1924B1B6803F40053002BF0D17B6888
:102E30001B6803F00403002B00F081808C4B1B689F
:102E40008B4A43F480731360FEF7F6FA786208E069
:102E5000FEF7F2FA02467B6AD31A642B01D90323E8
:102E6000A0E1834B1B6803F48073002BF0D07B68D8
:102E70009B68012B06D17D4B1B6F7C4A43F00103FD
:102E800013672DE07B689B68002B0CD1774B1B6F81
:102E9000764A23F001031367744B1B6F734A23F0C8
:102EA000040313671CE07B689B68052B0CD16F4BF8
:102EB0001B6F6E4A43F0040313676C4B1B6F6B4A26
:102EC00043F0010313670BE0684B1B6F674A23F065
:102ED00001031367654B1B6F644A23F004031367F8
:102EE0007B689B68002B15D0FEF7A6FA78620AE093
:102EF000FEF7A2FA02467B6AD31A41F28832934265
:102F000001D903234EE1594B1B6F03F00203002B41
:102F1000EED014E0FEF790FA78620AE0FEF78CFA41
:102F200002467B6AD31A41F28832934201D90323C5
:102F300038E14E4B1B6F03F00203002BEED17B6890
:102F40005B6A002B00F02D81484B1B6903F03803AE
:102F5000182B00F0BD807B685B6A022B40F09E80DE
:102F6000424B1B68414A23F080731360FEF764FAFA
:102F7000786208E0FEF760FA02467B6AD31A022BF9
:102F800001D903230EE1394B1B6803F00073002BBA
:102F9000F0D1364B9A6A374B13407A68916A7A6857
:102FA000D26A12010A43314913438B627B681B6B5F
:102FB000013BC3F308027B685B6B013B5B029BB286
:102FC0001A437B689B6B013B1B0403F4FE031A430B
:102FD0007B68DB6B013B1B0603F0FE432349134375
:102FE0000B63224BDB6A214A23F00103D3621F4BA0
:102FF0005A6B214B13407A68926CD2001B491343E1
:103000004B631A4BDB6A23F00C027B681B6C17497D
:103010001343CB62154BDB6A23F002027B685B6CC7
:1030200012491343CB62114BDB6A104A43F48033DD
:10303000D3620E4BDB6A0D4A43F40033D3620B4B71
:10304000DB6A0A4A43F48023D362084BDB6A074AEF
:1030500043F00103D362054B1B68044A43F08073BD
:103060001360FEF7E9F9786211E000BF00440258EE
:10307000004802580CFCFFFF0700FFFFFEF7DCF9D9
:1030800002467B6AD31A022B01D903238AE0474BFD
:103090001B6803F00073002BF0D082E0434B1B68E9
:1030A000424A23F080731360FEF7C6F9786208E0A5
:1030B000FEF7C2F902467B6AD31A022B01D9032319
:1030C00070E03A4B1B6803F00073002BF0D168E00E
:1030D000364B9B6A3B61354B1B6BFB607B685B6AC5
:1030E000012B31D03B6903F003027B689B6A9A4253
:1030F0002AD13B691B0903F03F027B68DB6A9A42D5
:1031000022D1FB68C3F308027B681B6B013B9A4228
:103110001AD1FB685B0A03F07F027B685B6B013BA3
:103120009A4211D1FB681B0C03F07F027B689B6BFA
:10313000013B9A4208D1FB681B0E03F07F027B68BB
:10314000DB6B013B9A4201D001232BE0174B5B6BF9
:10315000DB08C3F30C033B617B689B6C3A699A42C2
:103160001FD0124BDB6A114A23F00103D362FEF732
:1031700063F9786200BFFEF75FF902467B6A93420B
:10318000F9D00A4B5A6B0A4B13407A68926CD20002
:10319000064913434B63054BDB6A044A43F00103C2
:1031A000D362002318463037BD4680BD0044025824
:1031B0000700FFFF80B586B000AF786039607B689C
:1031C000002B01D101239CE18A4B1B6803F00F0304
:1031D0003A689A4210D9874B1B6823F00F02854941
:1031E0003B6813430B60834B1B6803F00F033A6883
:1031F0009A4201D0012384E17B681B6803F0040339
:10320000002B10D07B681A697B4B9B6903F070031D
:103210009A4208D9784B9B6923F070027B681B693E
:10322000754913438B617B681B6803F00803002B0F
:1032300010D07B685A69704BDB6903F070039A42C7
:1032400008D96D4BDB6923F070027B685B696A49C2
:103250001343CB617B681B6803F01003002B10D075
:103260007B689A69644BDB6903F4E0639A4208D98E
:10327000614BDB6923F4E0627B689B695E49134321
:10328000CB617B681B6803F02003002B10D07B68A8
:10329000DA69594B1B6A03F070039A4208D9564BFE
:1032A0001B6A23F070027B68DB69534913430B628E
:1032B0007B681B6803F00203002B10D07B68DA6880
:1032C0004D4B9B6903F00F039A4208D94A4B9B6907
:1032D00023F00F027B68DB68474913438B617B68EF
:1032E0001B6803F00103002B55D0434B9B6923F46B
:1032F00070627B689B68404913438B617B685B68A5
:10330000022B07D13C4B1B6803F40033002B21D167
:103310000123F6E07B685B68032B07D1364B1B6803
:1033200003F00073002B15D10123EAE07B685B6892
:10333000012B07D1304B1B6803F48073002B09D19C
:103340000123DEE02C4B1B6803F00403002B01D1AA
:103350000123D6E0284B1B6923F007027B685B68DA
:10336000254913430B61FEF767F878610AE0FEF721
:1033700063F802467B69D31A41F28832934201D93D
:103380000323BEE01C4B1B6903F038027B685B68BB
:10339000DB009A42EBD17B681B6803F00203002B31
:1033A00010D07B68DA68144B9B6903F00F039A42D4
:1033B00008D2114B9B6923F00F027B68DB680E4932
:1033C00013438B610B4B1B6803F00F033A689A425F
:1033D00014D2084B1B6823F00F0206493B681343C5
:1033E0000B60044B1B6803F00F033A689A4205D048
:1033F000012386E000200052004402587B681B68CD
:1034000003F00403002B10D07B681A693F4B9B69C3
:1034100003F070039A4208D23C4B9B6923F0700280
:103420007B681B69394913438B617B681B6803F018
:103430000803002B10D07B685A69344BDB6903F01A
:1034400070039A4208D2314BDB6923F070027B682B
:103450005B692E491343CB617B681B6803F0100343
:10346000002B10D07B689A69284BDB6903F4E0637A
:103470009A4208D2254BDB6923F4E0627B689B69A2
:1034800022491343CB617B681B6803F02003002BA8
:1034900010D07B68DA691D4B1B6A03F070039A42F7
:1034A00008D21A4B1B6A23F070027B68DB6917494C
:1034B00013430B6200F034F80246144B9B691B0A5D
:1034C00003F00F031249CB5C03F01F0322FA03F34E
:1034D0003B610E4B9B6903F00F030D4AD35C03F075
:1034E0001F033A6922FA03F30A4A13600A4A3B6946
:1034F00013600A4B1B681846FDF754FF0346FB7325
:10350000FB7B18461837BD4680BD00BF00440258FB
:1035100070EF0008040000240000002408000024CC
:1035200080B489B000AFB34B1B6903F03803182B8C
:1035300000F2558101A252F823F000BFA135000826
:10354000DF370008DF370008DF370008DF37000803
:10355000DF370008DF370008DF370008C73500080D
:10356000DF370008DF370008DF370008DF370008E3
:10357000DF370008DF370008DF370008CD350008E7
:10358000DF370008DF370008DF370008DF370008C3
:10359000DF370008DF370008DF370008D3350008C1
:1035A000944B1B6803F02003002B09D0914B1B6840
:1035B000DB0803F00303904A22FA03F3BB6111E135
:1035C0008D4BBB610EE18D4BBB610BE18C4BBB6145
:1035D00008E1884B9B6A03F003037B61854B9B6A80
:1035E0001B0903F03F033B61824BDB6A03F00103DD
:1035F000FB60804B5B6BDB08C3F30C03FA6802FBD8
:1036000003F307EE903AF8EE677AC7ED027A3B696A
:10361000002B00F0E1807B69022B00F083807B6946
:10362000022B00F2A1807B69002B03D07B69012B68
:1036300056D099E06F4B1B6803F02003002B2DD070
:103640006C4B1B68DB0803F003036B4A22FA03F39D
:103650007B607B6807EE903AF8EE676A3B6907EE9D
:10366000903AF8EE677A86EEA77A624B1B6BC3F34B
:10367000080307EE903AF8EE676A97ED026ADFED0D
:10368000615AC6EE257A76EEA77AF7EE006A77EEF3
:10369000A67A67EE277AC7ED077A87E03B6907EEDF
:1036A000903AF8EE677ADFED586A86EEA77A514BCA
:1036B0001B6BC3F3080307EE903AF8EE676A97EDC9
:1036C000026ADFED505AC6EE257A76EEA77AF7EE5B
:1036D000006A77EEA67A67EE277AC7ED077A65E08B
:1036E0003B6907EE903AF8EE677ADFED486A86EEBE
:1036F000A77A404B1B6BC3F3080307EE903AF8EE32
:10370000676A97ED026ADFED3F5AC6EE257A76EEDC
:10371000A77AF7EE006A77EEA67A67EE277AC7ED0A
:10372000077A43E03B6907EE903AF8EE677ADFEDFF
:10373000386A86EEA77A2F4B1B6BC3F3080307EE9C
:10374000903AF8EE676A97ED026ADFED2E5AC6EE00
:10375000257A76EEA77AF7EE006A77EEA67A67EE1C
:10376000277AC7ED077A21E03B6907EE903AF8EE39
:10377000677ADFED266A86EEA77A1E4B1B6BC3F3D2
:10378000080307EE903AF8EE676A97ED026ADFEDFC
:103790001D5AC6EE257A76EEA77AF7EE006A77EE26
:1037A000A67A67EE277AC7ED077A00BF114B1B6B2D
:1037B0005B0A03F07F0301333B603B6807EE903AFE
:1037C000B8EE677AD7ED076AC6EE877AFCEEE77A3D
:1037D00017EE903ABB6105E00023BB6102E0074BA6
:1037E000BB6100BFBB6918462437BD465DF8047B4A
:1037F000704700BF004402580090D00300093D000C
:1038000000127A00000000460024744C0024744A20
:103810000024F44A80B582B000AFFFF781FE024673
:10382000104B9B691B0A03F00F030F49CB5C03F09D
:103830001F0322FA03F37B600A4B9B6903F00F031B
:10384000094AD35C03F01F037A6822FA03F3074A9C
:103850001360074A7B681360044B1B6818460837DF
:10386000BD4680BD0044025870EF000804000024EB
:103870000000002480B500AFFFF7CCFF0246064BE6
:10388000DB691B0903F007030449CB5C03F01F034A
:1038900022FA03F3184680BD0044025870EF000876
:1038A00080B500AFFFF7B6FF0246064BDB691B0A87
:1038B00003F007030449CB5C03F01F0322FA03F370
:1038C000184680BD0044025870EF00082DE9B04F43
:1038D000CAB000AFC7F81401002387F827310023CE
:1038E00087F82631D7F81431D3E9002302F00064B9
:1038F000002554EA050349D0D7F814319B6EB3F57F
:10390000401F2FD0B3F5401F28D8B3F5001F1AD0A1
:10391000B3F5001F22D8002B03D0B3F5801F07D0CA
:103920001CE0B84BDB6AB74A43F40033D3621AE0B9
:10393000D7F8143108330221184602F061FB034620
:1039400087F827310FE0D7F81431283302211846C1
:1039500002F008FC034687F8273104E0012387F8CA
:10396000273100E000BF97F82731002B0AD1A54B83
:103970001B6D23F44011D7F814319B6EA14A0B4301
:10398000136503E097F8273187F82631D7F814310B
:10399000D3E9002302F480784FF0000958EA0903C4
:1039A00047D0D7F814319B6D042B2AD801A252F8C6
:1039B00023F000BFC9390008D7390008ED390008E5
:1039C0000B3A00080B3A00088E4BDB6A8D4A43F431
:1039D0000033D3621AE0D7F81431083300211846B7
:1039E00002F00EFB034687F827310FE0D7F81431B9
:1039F00028330021184602F0B5FB034687F827312B
:103A000004E0012387F8273100E000BF97F8273151
:103A1000002B0AD17B4B1B6D23F00701D7F8143123
:103A20009B6D784A0B43136503E097F8273187F8BD
:103A30002631D7F81431D3E9002302F4007A4FF08D
:103A4000000B5AEA0B034CD0D7F81431DB6DB3F5F9
:103A5000807F30D0B3F5807F29D8C02B2DD0C02BEC
:103A600025D8802B18D0802B21D8002B02D0402BBA
:103A700007D01CE0634BDB6A624A43F40033D36235
:103A80001CE0D7F8143108330021184602F0B8FAC8
:103A9000034687F8273111E0D7F814312833002185
:103AA000184602F05FFB034687F8273106E0012342
:103AB00087F8273102E000BF00E000BF97F8273108
:103AC000002B0AD14F4B1B6D23F4E071D7F8143152
:103AD000DB6D4C4A0B43136503E097F8273187F8F9
:103AE0002631D7F81431D3E9002302F48063C7F8F4
:103AF00008310023C7F80C31D7E942120B461343B3
:103B000053D0D7F81431D3F8A830B3F5000F35D01F
:103B1000B3F5000F2ED8B3F5C00F31D0B3F5C00FF9
:103B200028D8B3F5800F1AD0B3F5800F22D8002B18
:103B300003D0B3F5001F07D01CE0324BDB6A314ADB
:103B400043F40033D3621CE0D7F81431083300216A
:103B5000184602F055FA034687F8273111E0D7F8E6
:103B6000143128330021184602F0FCFA034687F886
:103B7000273106E0012387F8273102E000BF00E08B
:103B800000BF97F82731002B0BD11E4B9B6D23F400
:103B90006001D7F81431D3F8A8301A4A0B43936563
:103BA00003E097F8273187F82631D7F81431D3E9A5
:103BB000002302F40063C7F800310023C7F8043182
:103BC000D7E940120B46134356D0D7F81431D3F837
:103BD000AC30B3F1806F38D0B3F1806F31D8B3F12E
:103BE000407F34D0B3F1407F2BD8B3F1007F1DD09C
:103BF000B3F1007F25D8002B06D0B3F1807F0AD027
:103C00001FE000BF00440258A24BDB6AA14A43F404
:103C10000033D3621CE0D7F8143108330021184672
:103C200002F0EEF9034687F8273111E0D7F8143196
:103C300028330021184602F095FA034687F8273109
:103C400006E0012387F8273102E000BF00E000BF53
:103C500097F82731002B0BD18E4B9B6D23F0E06141
:103C6000D7F81431D3F8AC308A4A0B43936503E09C
:103C700097F8273187F82631D7F81431D3E9002394
:103C800002F00073C7F8F8300023C7F8FC30D7E91A
:103C90003E120B4613433AD0D7F81431DB6C302B6D
:103CA0001FD0302B19D8202B0CD0202B15D8002B4F
:103CB00019D0102B11D1774BDB6A764A43F40033CD
:103CC000D36211E0D7F8143108330221184602F00C
:103CD00097F9034687F8273106E0012387F8273153
:103CE00002E000BF00E000BF97F82731002B0AD1A7
:103CF000684BDB6C23F03001D7F81431DB6C654A7C
:103D00000B43D36403E097F8273187F82631D7F8BF
:103D10001431D3E9002302F48053C7F8F0300023B4
:103D2000C7F8F430D7E93C120B46134351D0D7F80B
:103D300014311B6EB3F5804F35D0B3F5804F2ED8BC
:103D4000B3F5405F31D0B3F5405F28D8B3F5005FDD
:103D50001AD0B3F5005F22D8002B03D0B3F5805FF3
:103D600007D01CE04B4BDB6A4A4A43F40033D36272
:103D70001CE0D7F8143108330021184602F040F94E
:103D8000034687F8273111E0D7F814312833002192
:103D9000184602F0E7F9034687F8273106E00123C9
:103DA00087F8273102E000BF00E000BF97F8273115
:103DB000002B0AD1374B1B6D23F4E041D7F81431A7
:103DC0001B6E344A0B43136503E097F8273187F8DD
:103DD0002631D7F81431D3E9002302F40053C7F891
:103DE000E8300023C7F8EC30D7E93A120B4613430A
:103DF00056D0D7F814315B6EB3F5A02F33D0B3F59E
:103E0000A02F2CD8B3F5802F2FD0B3F5802F26D834
:103E1000B3F5403F2BD0B3F5403F20D8B3F5003F7A
:103E200012D0B3F5003F1AD8002B22D0B3F5803F53
:103E300015D1D7F8143108330121184602F0E0F803
:103E4000034687F8273115E0D7F8143128330121CC
:103E5000184602F087F9034687F827310AE0012364
:103E600087F8273106E000BF04E000BF02E000BF92
:103E700000E000BF97F82731002B0DD1054B1B6DDB
:103E800023F4E021D7F814315B6E024A0B4313652B
:103E900006E000BF0044025897F8273187F8263122
:103EA000D7F81431D3E9002302F48043C7F8E03097
:103EB0000023C7F8E430D7E938120B46134355D036
:103EC000D7F81431D3F8B030B3F1A04F33D0B3F1F9
:103ED000A04F2CD8B3F1804F2FD0B3F1804F26D80C
:103EE000B3F1405F2BD0B3F1405F20D8B3F1005F56
:103EF00012D0B3F1005F1AD8002B22D0B3F1805F4B
:103F000015D1D7F8143108330121184602F078F89A
:103F1000034687F8273115E0D7F8143128330121FB
:103F2000184602F01FF9034687F827310AE00123FB
:103F300087F8273106E000BF04E000BF02E000BFC1
:103F400000E000BF97F82731002B0BD1A34B9B6DEE
:103F500023F0E041D7F81431D3F8B0309F4A0B4337
:103F6000936503E097F8273187F82631D7F81431A5
:103F7000D3E9002302F40043C7F8D8300023C7F880
:103F8000DC30D7E936120B46134337D0D7F814315B
:103F90001B6FB3F1005F0ED0B3F1005F16D8002B9A
:103FA00018D0B3F1805F11D18C4BDB6A8B4A43F49C
:103FB0000033D3620FE0D7F81431083301211846DB
:103FC00002F01EF8034687F8273104E0012387F842
:103FD000273100E000BF97F82731002B0AD17F4B33
:103FE0001B6D23F04051D7F814311B6F7B4A0B43F4
:103FF000136503E097F8273187F82631D7F8143195
:10400000D3E9002302F08073C7F8D0300023C7F84B
:10401000D430D7E934120B46134339D0D7F81431D2
:104020009B6C032B1CD801A252F823F069400008B6
:104030003D4000084B40000869400008674BDB6AC0
:10404000664A43F40033D3620FE0D7F814310833E3
:104050000221184601F0D4FF034687F8273104E017
:10406000012387F8273100E000BF97F82731002BA4
:104070000AD15A4BDB6C23F00301D7F814319B6C47
:10408000564A0B43D36403E097F8273187F826316B
:10409000D7F81431D3E9002302F48003C7F8C830FD
:1040A0000023C7F8CC30D7E932120B46134300F097
:1040B0009F804B4B1B684A4A43F480731360FDF7A3
:1040C000BBF9C7F820010BE0FDF7B6F90246D7F8B7
:1040D0002031D31A642B03D9032387F8273105E055
:1040E0003F4B1B6803F48073002BEDD097F827310A
:1040F000002B79D1394B1A6FD7F81431D3F8B4307B
:10410000534003F44073002B15D0344B1B6F23F442
:104110004073C7F81C31314B1B6F304A43F4803376
:1041200013672E4B1B6F2D4A23F4803313672B4AE2
:10413000D7F81C311367D7F81431D3F8B430B3F57E
:10414000807F18D1FDF778F9C7F820010DE0FDF761
:1041500073F90246D7F82031D21A41F288339A42D5
:1041600003D9032387F8273105E01C4B1B6F03F0AD
:104170000203002BEBD097F82731002B29D1D7F879
:104180001431D3F8B43003F44073B3F5407F0ED14B
:10419000124B1B6923F47C51D7F81431D3F8B43097
:1041A0001A09104B13400D4A0B43136105E00B4BEA
:1041B0001B690A4A23F47C531361084B196FD7F823
:1041C0001431D3F8B430C3F30B03044A0B43136721
:1041D0000EE097F8273187F8263109E000440258AD
:1041E00000480258CFFFFF0097F8273187F82631A3
:1041F000D7F81431D3E9002302F00103C7F8C03027
:104200000023C7F8C430D7E930120B46134300F03F
:104210008980D7F81431DB6F282B6BD801A252F8B4
:1042200023F000BFFD420008F5420008F5420008F7
:10423000F5420008F5420008F5420008F542000882
:10424000F5420008C9420008F5420008F54200089E
:10425000F5420008F5420008F5420008F542000862
:10426000F5420008DF420008F5420008F542000868
:10427000F5420008F5420008F5420008F542000842
:10428000F5420008FD420008F5420008F54200082A
:10429000F5420008F5420008F5420008F542000822
:1042A000F5420008FD420008F5420008F54200080A
:1042B000F5420008F5420008F5420008F542000802
:1042C000F5420008FD420008D7F8143108330121F7
:1042D000184601F095FE034687F827310FE0D7F81E
:1042E000143128330121184601F03CFF034687F8BA
:1042F000273104E0012387F8273100E000BF97F859
:104300002731002B0AD1BF4B5B6D23F03801D7F862
:104310001431DB6FBB4A0B43536503E097F8273139
:1043200087F82631D7F81431D3E9002302F00203CD
:10433000C7F8B8300023C7F8BC30D7E92E120B46B7
:10434000134341D0D7F814319B6F052B24D801A219
:1043500052F823F0A14300086D430008834300088E
:10436000A1430008A1430008A1430008D7F8143175
:1043700008330121184601F043FE034687F8273130
:104380000FE0D7F8143128330121184601F0EAFE76
:10439000034687F8273104E0012387F8273100E03E
:1043A00000BF97F82731002B0AD1964B5B6D23F0A5
:1043B0000701D7F814319B6F924A0B43536503E012
:1043C00097F8273187F82631D7F81431D3E900233D
:1043D00002F00403C7F8B0300023C7F8B430D7E9BF
:1043E0002C120B46134344D0D7F81431D3F8943031
:1043F000052B25D801A252F823F000BF494400083C
:10440000154400082B4400084944000849440008AA
:1044100049440008D7F8143108330121184601F047
:10442000EFFD034687F827310FE0D7F81431283322
:104430000121184601F096FE034687F8273104E073
:10444000012387F8273100E000BF97F82731002BC0
:104450000BD16C4B9B6D23F00701D7F81431D3F8C7
:104460009430684A0B43936503E097F8273187F847
:104470002631D7F81431D3E9002302F02003C7F81E
:10448000A8300023C7F8AC30D7E92A120B461343F3
:1044900055D0D7F81431D3F89030B3F1A04F33D0C2
:1044A000B3F1A04F2CD8B3F1804F2FD0B3F1804F90
:1044B00026D8B3F1405F2BD0B3F1405F20D8B3F1E1
:1044C000005F12D0B3F1005F1AD8002B22D0B3F1F5
:1044D000805F15D1D7F8143108330021184601F058
:1044E0008FFD034687F8273115E0D7F814312833BC
:1044F0000221184601F036FE034687F827310AE00C
:10450000012387F8273106E000BF04E000BF02E086
:1045100000BF00E000BF97F82731002B0BD1394BCB
:104520005B6D23F0E041D7F81431D3F89030354A71
:104530000B43536503E097F8273187F82631D7F806
:104540001431D3E9002302F04003C7F8A030002360
:10455000C7F8A430D7E928120B46134358D0D7F830
:104560001431D3F89C30B3F5A05F33D0B3F5A05F1E
:104570002CD8B3F5805F2FD0B3F5805F26D8B3F584
:10458000406F2BD0B3F5406F20D8B3F5006F12D039
:10459000B3F5006F1AD8002B22D0B3F5806F15D178
:1045A000D7F8143108330021184601F029FD0346DD
:1045B00087F8273115E0D7F814312833022118463F
:1045C00001F0D0FD034687F827310AE0012387F880
:1045D000273106E000BF04E000BF02E000BF00E0BA
:1045E00000BF97F82731002B0ED1064B9B6D23F4AB
:1045F000E051D7F81431D3F89C30024A0B4393654D
:1046000006E000BF0044025897F8273187F82631AA
:10461000D7F81431D3E9002302F08003C7F89830AB
:104620000023C7F89C30D7E926120B46134355D018
:10463000D7F81431D3F8A030B3F5204F33D0B3F509
:10464000204F2CD8B3F5004F2FD0B3F5004F26D80C
:10465000B3F5C04F2BD0B3F5C04F20D8B3F5804F82
:1046600012D0B3F5804F1AD8002B22D0B3F5005FDB
:1046700015D1D7F8143108330021184601F0C0FCD9
:10468000034687F8273115E0D7F814312833022183
:10469000184601F067FD034687F827310AE0012339
:1046A00087F8273106E000BF04E000BF02E000BF4A
:1046B00000E000BF97F82731002B0BD1A14B9B6D79
:1046C00023F46041D7F81431D3F8A0309D4A0B434E
:1046D000936503E097F8273187F82631D7F814312E
:1046E000D3E9002302F00803C7F890300023C7F88D
:1046F0009430D7E924120B4613431ED0D7F8143157
:10470000D3F88430B3F5805F0CD1D7F81431283357
:104710000221184601F026FD0346002B02D001239A
:1047200087F82631874B5B6D23F44051D7F814315D
:10473000D3F88430834A0B435365D7F81431D3E957
:10474000002302F01003C7F888300023C7F88C302C
:10475000D7E922120B4613431ED0D7F81431D3F8F1
:104760009830B3F5807F0CD1D7F81431283302216B
:10477000184601F0F7FC0346002B02D0012387F80E
:104780002631704B9B6D23F44071D7F81431D3F868
:1047900098306C4A0B439365D7F81431D3E9002362
:1047A00002F40023C7F880300023C7F88430D7E92B
:1047B00020120B4613433ED0D7F81431D3F8A4305F
:1047C000B3F5003F22D0B3F5003F1BD8002B03D038
:1047D000B3F5803F0BD015E0D7F814310833002132
:1047E000184601F00DFC034687F827310FE0D7F893
:1047F000143128330221184601F0B4FC034687F82F
:10480000273104E0012387F8273100E000BF97F843
:104810002731002B0BD14B4B9B6D23F44031D7F844
:104820001431D3F8A430474A0B43936503E097F85B
:10483000273187F82631D7F81431D3E9002302F461
:104840008023BB670023FB67D7E91E120B46134387
:104850003BD0D7F81431D3F88830B3F5401F1FD0C0
:10486000B3F5401F18D8B3F5801F03D0B3F5001F70
:1048700007D011E0334BDB6A324A43F40033D36292
:104880000FE0D7F8143128330121184601F06AFCF3
:10489000034687F8273104E0012387F8273100E039
:1048A00000BF97F82731002B0BD1264B5B6D23F40B
:1048B0004011D7F81431D3F88830224A0B4353659E
:1048C00003E097F8273187F82631D7F81431D3E978
:1048D000002302F480333B6700237B67D7E91C1277
:1048E0000B46134334D0D7F814311B6D002B03D083
:1048F000B3F5803F07D011E0124BDB6A114A43F455
:104900000033D3620EE0D7F8143108330221184681
:1049100001F076FB034687F8273103E0012387F88F
:10492000273100BF97F82731002B0DD1054BDB6CE9
:1049300023F48031D7F814311B6D024A0B43D36442
:1049400006E000BF0044025897F8273187F8263167
:10495000D7F81431D3E9002302F00053BB660023DB
:10496000FB66D7E91A120B4613430CD0D7F8143163
:1049700028330221184601F0F5FB0346002B02D034
:10498000012387F82631D7F81431D3E9002302F444
:1049900000333B6600237B66D7E918120B461343AE
:1049A00038D0D7F81431D3F88030B3F5407F18D021
:1049B000B3F5407F11D8B3F5007F14D0B3F5007F75
:1049C0000BD8002B11D0B3F5807F06D1C34BDB6A27
:1049D000C24A43F40033D36208E0012387F8273149
:1049E00004E000BF02E000BF00E000BF97F82731FD
:1049F000002B0BD1B94B5B6D23F44071D7F8143108
:104A0000D3F88030B54A0B43536503E097F827315C
:104A100087F82631D7F81431D3E9002302F4801344
:104A2000BB650023FB65D7E916120B46134309D07B
:104A3000AA4B1B6D23F00041D7F814315B6FA74AD6
:104A40000B431365D7F81431D3E9002302F08053E8
:104A50003B6500237B65D7E914120B4613430AD04C
:104A60009E4B1B6923F48041D7F81431D3F8B8303A
:104A70009A4A0B431361D7F81431D3E9002302F4A7
:104A80000013BB640023FB64D7E912120B461343E7
:104A900009D0924B1B6D23F08071D7F81431DB6E77
:104AA0008E4A0B431365D7F81431D3E9002302F083
:104AB00080433B6400237B64D7E910120B46134309
:104AC0000ED0864B1B69854A23F400431361834B48
:104AD0001969D7F81431D3F8BC30804A0B431361FD
:104AE000D7F81431D3E9002302F00043BB6300235D
:104AF000FB63D7E90E120B46134309D0774BDB6CEF
:104B000023F04051D7F814315B6D744A0B43D364E2
:104B1000D7F81431D3E9002302F400033B630023E8
:104B20007B63D7E90C120B4613430AD06B4B5B6DCA
:104B300023F44001D7F81431D3F88C30674A0B4383
:104B40005365D7F81431D3E900230021B96203F08B
:104B50000103FB62D7E90A120B46134311D0D7F8C1
:104B6000143108330021184601F04AFA034687F849
:104B7000273197F82731002B03D097F8273187F892
:104B80002631D7F81431D3E900230021396203F02C
:104B900002037B62D7E908120B46134311D0D7F802
:104BA000143108330121184601F02AFA034687F828
:104BB000273197F82731002B03D097F8273187F852
:104BC0002631D7F81431D3E900230021B96103F06D
:104BD0000403FB61D7E906120B46134311D0D7F843
:104BE000143108330221184601F00AFA034687F807
:104BF000273197F82731002B03D097F8273187F812
:104C00002631D7F81431D3E900230021396103F0AC
:104C100008037B61D7E904120B46134311D0D7F880
:104C2000143128330021184601F09CFA034687F816
:104C3000273197F82731002B03D097F8273187F8D1
:104C40002631D7F81431D3E900230021B96003F0ED
:104C50001003FB60D7E902120B46134311D0D7F8BB
:104C6000143128330121184601F07CFA034687F8F5
:104C7000273197F82731002B03D097F8273187F891
:104C80002631D7F81431D3E900230021396003F02D
:104C900020037B60D7E900120B46134311D0D7F8ED
:104CA000143128330221184601F05CFA034687F8D4
:104CB000273197F82731002B03D097F8273187F851
:104CC000263197F82631002B01D1002300E0012383
:104CD000184607F59477BD46BDE8B08F00440258EA
:104CE00080B590B000AFC7E90001D7E90023A2F575
:104CF00080710B4340F094809E4B1B6D03F00703C3
:104D00003B633B6B042B00F2878001A252F823F037
:104D1000254D00084D4D0008754D0008114E000846
:104D20009D4D0008934B1B6803F00073B3F1007FA7
:104D300008D107F12403184601F010F8BB6AFB63A1
:104D400000F045BD0023FB6300F041BD894B1B68AB
:104D500003F00063B3F1006F08D107F118031846A0
:104D600000F054FDBB69FB6300F031BD0023FB6321
:104D700000F02DBD7F4B1B6803F00053B3F1005FC3
:104D800008D107F10C03184600F094FEFB68FB63A2
:104D900000F01DBD0023FB6300F019BD754BDB6CFB
:104DA00003F040537B63734B1B6803F00403042B35
:104DB0000CD17B6B002B09D16E4B1B68DB0803F019
:104DC00003036D4A22FA03F3FB631FE0694B1B6880
:104DD00003F48073B3F5807F06D17B6BB3F1805F02
:104DE00002D1664BFB6311E0624B1B6803F4003396
:104DF000B3F5003F06D17B6BB3F1005F02D1604B8E
:104E0000FB6303E00023FB6300F0E1BC00F0DFBCC8
:104E10005C4BFB6300F0DBBC0023FB6300F0D7BC02
:104E2000D7E90023A2F500710B4340F0AD80514B50
:104E30001B6D03F4E0733B633B6BB3F5807F56D08F
:104E40003B6BB3F5807F00F290803B6BC02B00F092
:104E500088803B6BC02B00F288803B6B802B32D06C
:104E60003B6B802B00F281803B6B002B03D03B6BB4
:104E7000402B14D079E03F4B1B6803F00073B3F173
:104E8000007F08D107F12403184600F067FFBB6AD2
:104E9000FB6300F09CBC0023FB6300F098BC354B27
:104EA0001B6803F00063B3F1006F08D107F118032A
:104EB000184600F0ABFCBB69FB6300F088BC002324
:104EC000FB6300F084BC2B4B1B6803F00053B3F171
:104ED000005F08D107F10C03184600F0EBFDFB68FA
:104EE000FB6300F074BC0023FB6300F070BC214B3B
:104EF000DB6C03F040537B631E4B1B6803F0040321
:104F0000042B0CD17B6B002B09D11A4B1B68DB08DF
:104F100003F00303184A22FA03F3FB631FE0154B67
:104F20001B6803F48073B3F5807F06D17B6BB3F10C
:104F3000805F02D1114BFB6311E00E4B1B6803F441
:104F40000033B3F5003F06D17B6BB3F1005F02D1B4
:104F50000B4BFB6303E00023FB6300F038BC00F065
:104F600036BC084BFB6300F032BC0023FB6300F04F
:104F70002EBC00BF004402580090D00300093D0041
:104F800000127A000080BB00D7E90023A2F58061FF
:104F90000B4340F09C809E4B9B6D03F460033B638E
:104FA0003B6BB3F5000F54D03B6BB3F5000F00F231
:104FB0008B803B6BB3F5C00F00F083803B6BB3F588
:104FC000C00F00F281803B6BB3F5800F2FD03B6B9D
:104FD000B3F5800F78D83B6B002B04D03B6BB3F557
:104FE000001F12D070E08A4B1B6803F00073B3F10E
:104FF000007F07D107F12403184600F0AFFEBB6A1B
:10500000FB63E4E30023FB63E1E3814B1B6803F0F4
:105010000063B3F1006F07D107F11803184600F0E1
:10502000F5FBBB69FB63D2E30023FB63CFE3784B63
:105030001B6803F00053B3F1005F07D107F10C03C5
:10504000184600F037FDFB68FB63C0E30023FB63F9
:10505000BDE36F4BDB6C03F040537B636C4B1B6811
:1050600003F00403042B0CD17B6B002B09D1684B9C
:105070001B68DB0803F00303664A22FA03F3FB63B1
:105080001EE0634B1B6803F48073B3F5807F06D189
:105090007B6BB3F1805F02D15F4BFB6310E05C4B35
:1050A0001B6803F40033B3F5003F06D17B6BB3F10B
:1050B000005F02D1594BFB6302E00023FB6386E3F0
:1050C00085E3574BFB6382E30023FB637FE3D7E970
:1050D0000023A2F500610B4340F0A7804C4B9B6D71
:1050E00003F0E0633B633B6BB3F1806F55D03B6BE8
:1050F000B3F1806F00F296803B6BB3F1407F00F01C
:1051000084803B6BB3F1407F00F28C803B6BB3F14A
:10511000007F30D03B6BB3F1007F00F283803B6BAC
:10512000002B04D03B6BB3F1807F12D07AE0384B78
:105130001B6803F00073B3F1007F07D107F124036C
:10514000184600F00BFEBB6AFB6340E30023FB63E1
:105150003DE32F4B1B6803F00063B3F1006F07D1F1
:1051600007F11803184600F051FBBB69FB632EE3FF
:105170000023FB632BE3264B1B6803F00053B3F1C2
:10518000005F07D107F10C03184600F093FCFB68A1
:10519000FB631CE30023FB6319E31D4BDB6C03F093
:1051A00040537B631A4B1B6803F00403042B0CD1A0
:1051B0007B6B002B09D1164B1B68DB0803F0030344
:1051C000144A22FA03F3FB631EE0114B1B6803F43D
:1051D0008073B3F5807F06D17B6BB3F1805F02D122
:1051E0000D4BFB6310E00A4B1B6803F40033B3F56F
:1051F000003F06D17B6BB3F1005F02D1074BFB632D
:1052000002E00023FB63E2E2E1E2054BFB63DEE246
:10521000004402580090D00300093D0000127A00BB
:105220000080BB000023FB63D1E2D7E90023A2F595
:1052300080510B4340F09C80934B1B6D03F4E04383
:10524000BB63BB6BB3F5804F54D0BB6BB3F5804FE2
:1052500000F28B80BB6BB3F5405F00F08380BB6BCB
:10526000B3F5405F00F28180BB6BB3F5005F2FD0D8
:10527000BB6BB3F5005F78D8BB6B002B04D0BB6B66
:10528000B3F5805F12D070E07F4B1B6803F00073B2
:10529000B3F1007F07D107F12403184600F05EFD4B
:1052A000BB6AFB6393E20023FB6390E2764B1B68CF
:1052B00003F00063B3F1006F07D107F1180318463C
:1052C00000F0A4FABB69FB6381E20023FB637EE28A
:1052D0006D4B1B6803F00053B3F1005F07D107F17A
:1052E0000C03184600F0E6FBFB68FB636FE200234B
:1052F000FB636CE2644BDB6C03F040537B63624BFB
:105300001B6803F00403042B0CD17B6B002B09D129
:105310005D4B1B68DB0803F003035C4A22FA03F3CE
:10532000FB631EE0584B1B6803F48073B3F5807F6A
:1053300006D17B6BB3F1805F02D1554BFB6310E06C
:10534000514B1B6803F40033B3F5003F06D17B6B70
:10535000B3F1005F02D14F4BFB6302E00023FB631C
:1053600035E234E24C4BFB6331E20023FB632EE277
:10537000D7E90023A2F500510B4340F08F80424B48
:105380001B6D03F4E023BB63BB6BB3F5A02F6BD0A5
:10539000BB6BB3F5A02F74D8BB6BB3F5802F56D081
:1053A000BB6BB3F5802F6CD8BB6BB3F5403F3BD0E4
:1053B000BB6BB3F5403F64D8BB6BB3F5003F21D066
:1053C000BB6BB3F5003F5CD8BB6B002B04D0BB6B51
:1053D000B3F5803F04D054E0FEF74CFAF863F6E1F1
:1053E000294B1B6803F00063B3F1006F07D107F18D
:1053F0001803184600F00AFAFB69FB63E7E1002393
:10540000FB63E4E1204B1B6803F00053B3F1005F42
:1054100007D107F10C03184600F04CFB3B69FB6316
:10542000D5E10023FB63D2E1174B1B6803F00403B3
:10543000042B09D1144B1B68DB0803F00303134A48
:1054400022FA03F3FB63C2E10023FB63BFE10E4BCF
:105450001B6803F48073B3F5807F02D10C4BFB63B0
:10546000B5E10023FB63B2E1074B1B6803F4003393
:10547000B3F5003F02D1074BFB63A8E10023FB63B8
:10548000A5E10023FB63A2E1004402580090D00391
:1054900000093D0000127A000080BB00D7E900231C
:1054A000A2F500210B4373D19C4B9B6D03F4403359
:1054B000BB63BB6BB3F5003F2FD0BB6BB3F5003FB5
:1054C00063D8BB6B002B04D0BB6BB3F5803F12D00D
:1054D0005BE0924B1B6803F00063B3F1006F07D1F0
:1054E00007F11803184600F091F9BB69FB636EE100
:1054F0000023FB636BE1894B1B6803F00053B3F19E
:10550000005F07D107F10C03184600F0D3FA7B695E
:10551000FB635CE10023FB6359E1804BDB6C03F030
:1055200040537B637D4B1B6803F00403042B0CD1B9
:105530007B6B002B09D1794B1B68DB0803F003035D
:10554000774A22FA03F3FB631EE0744B1B6803F4F3
:105550008073B3F5807F06D17B6BB3F1805F02D19E
:10556000704BFB6310E06D4B1B6803F40033B3F525
:10557000003F06D17B6BB3F1005F02D16A4BFB6346
:1055800002E00023FB6322E121E10023FB631EE133
:10559000D7E90023A2F580310B4333D15F4BDB6C9D
:1055A00003F48033BB63BB6B002B04D0BB6BB3F540
:1055B000803F12D023E0594B1B6803F00073B3F116
:1055C000007F07D107F12403184600F0C7FBBB6A30
:1055D000FB63FCE00023FB63F9E0504B1B6803F026
:1055E0000063B3F1006F07D107F11803184600F00C
:1055F0000DF93B6AFB63EAE00023FB63E7E000236D
:10560000FB63E4E0D7E90023A2F580410B4340F0BF
:105610008D80424B9B6D03F0E043BB63BB6BB3F1EA
:10562000A04F6BD0BB6BB3F1A04F74D8BB6BB3F181
:10563000804F56D0BB6BB3F1804F6CD8BB6BB3F1CE
:10564000405F3BD0BB6BB3F1405F64D8BB6BB3F141
:10565000005F21D0BB6BB3F1005F5CD8BB6B002B4C
:1056600004D0BB6BB3F1805F04D054E000F0B8F815
:10567000F863ACE0294B1B6803F00063B3F1006FE3
:1056800007D107F11803184600F0C0F8FB69FB6367
:105690009DE00023FB639AE0204B1B6803F000535E
:1056A000B3F1005F07D107F10C03184600F002FACE
:1056B0003B69FB638BE00023FB6388E0174B1B68AF
:1056C00003F00403042B09D1144B1B68DB0803F01F
:1056D0000303134A22FA03F3FB6378E00023FB631E
:1056E00075E00E4B1B6803F48073B3F5807F02D125
:1056F0000C4BFB636BE00023FB6368E0074B1B680C
:1057000003F40033B3F5003F02D1074BFB635EE0C7
:105710000023FB635BE00023FB6358E00044025876
:105720000090D00300093D0000127A00D7E9002361
:10573000A2F500410B4348D1274B1B6D03F04053AA
:10574000BB63BB6BB3F1005F2AD0BB6BB3F1005FEF
:1057500038D8BB6B002B04D0BB6BB3F1805F0DD08E
:1057600030E01D4B1B6803F40033B3F5003F02D15A
:105770001A4BFB632BE00023FB6328E0164B1B68EE
:1057800003F00073B3F1007F07D107F1240318463B
:1057900000F0E4FABB6AFB6319E00023FB6316E048
:1057A0000D4B1B6803F00063B3F1006F07D107F1E5
:1057B0001803184600F02AF8FB69FB6307E0002392
:1057C000FB6304E00023FB6301E00023FB63FB6B4E
:1057D00018464037BD4680BD0044025800127A008A
:1057E00080B500AFFEF716F80246064B1B6A1B0990
:1057F00003F007030449CB5C03F01F0322FA03F311
:10580000184680BD0044025870EF000880B489B08B
:1058100000AF7860A14B9B6A03F00303BB619F4B11
:105820009B6A1B0B03F03F037B619C4BDB6A1B09EC
:1058300003F001033B61994BDB6BDB08C3F30C0303
:105840003A6902FB03F307EE903AF8EE677AC7ED88
:10585000037A7B69002B00F01181BB69022B00F0F9
:105860008380BB69022B00F2A180BB69002B03D0AF
:10587000BB69012B56D099E0884B1B6803F02003CD
:10588000002B2DD0854B1B68DB0803F00303844AF3
:1058900022FA03F3BB60BB6807EE903AF8EE676A42
:1058A0007B6907EE903AF8EE677A86EEA77A7B4B33
:1058B0009B6BC3F3080307EE903AF8EE676A97ED27
:1058C000036ADFED785AC6EE257A76EEA77AF7EE10
:1058D000006A77EEA67A67EE277AC7ED077A87E047
:1058E0007B6907EE903AF8EE677ADFED6F6A86EE35
:1058F000A77A6A4B9B6BC3F3080307EE903AF8EE66
:10590000676A97ED036ADFED675AC6EE257A76EE91
:10591000A77AF7EE006A77EEA67A67EE277AC7EDE8
:10592000077A65E07B6907EE903AF8EE677ADFED7B
:105930005F6A86EEA77A594B9B6BC3F3080307EEA9
:10594000903AF8EE676A97ED036ADFED565AC6EEB5
:10595000257A76EEA77AF7EE006A77EEA67A67EEFA
:10596000277AC7ED077A43E07B6907EE903AF8EEB5
:10597000677ADFED4F6A86EEA77A484B9B6BC3F3DD
:10598000080307EE903AF8EE676A97ED036ADFEDD9
:10599000455AC6EE257A76EEA77AF7EE006A77EEDC
:1059A000A67A67EE277AC7ED077A21E07B6907EED2
:1059B000903AF8EE677ADFED3D6A86EEA77A374BCC
:1059C0009B6BC3F3080307EE903AF8EE676A97ED16
:1059D000036ADFED345AC6EE257A76EEA77AF7EE43
:1059E000006A77EEA67A67EE277AC7ED077A00BFDE
:1059F0002A4B9B6B5B0A03F07F0307EE903AF8EEAD
:105A0000677AB7EE007A37EE877AD7ED076AC6EE87
:105A1000877AFCEEE77A17EE902A7B681A601F4BB4
:105A20009B6B1B0C03F07F0307EE903AF8EE677A4E
:105A3000B7EE007A37EE877AD7ED076AC6EE877A37
:105A4000FCEEE77A17EE902A7B685A60134B9B6B4B
:105A50001B0E03F07F0307EE903AF8EE677AB7EE7D
:105A6000007A37EE877AD7ED076AC6EE877AFCEEC2
:105A7000E77A17EE902A7B689A6008E07B6800223C
:105A80001A607B6800225A607B6800229A6000BF1F
:105A90002437BD465DF8047B704700BF00440258C0
:105AA0000090D003000000460024744C0024744A87
:105AB0000024F44A80B489B000AF7860A14B9B6A9F
:105AC00003F00303BB619F4B9B6A1B0D03F03F0375
:105AD0007B619C4BDB6A1B0A03F001033B61994B22
