:020000040800F2
:1000000000000824A11800083D1600084516000845
:100010004D160008551600085D1600080000000087
:10002000000000000000000000000000651600084D
:100030007316000800000000811600088F160008E3
:10004000F5180008F5180008F5180008F51800085C
:10005000F5180008F5180008F5180008F51800084C
:10006000F5180008F5180008F5180008F51800083C
:10007000F5180008F5180008F5180008F51800082C
:10008000F5180008F5180008F5180008F51800081C
:10009000F5180008F5180008F5180008F51800080C
:1000A000F5180008F5180008F5180008F5180008FC
:1000B000F5180008F5180008F5180008F5180008EC
:1000C000F5180008F5180008F5180008F5180008DC
:1000D000F5180008F5180008F51800089D16000826
:1000E000F5180008F518000800000000F5180008D1
:1000F000F5180008F5180008F5180008F5180008AC
:10010000F5180008B1160008F5180008F5180008E1
:10011000F5180008F5180008F5180008F51800088B
:10012000F5180008F5180008F5180008F51800087B
:10013000F5180008F5180008F5180008F51800086B
:1001400000000000000000000000000000000000AF
:10015000F5180008F5180008F5180008F51800084B
:10016000F5180008F5180008F5180008F51800083B
:10017000F5180008F5180008F51800080000000040
:10018000F5180008F5180008F5180008F51800081B
:10019000F5180008F5180008F5180008F51800080B
:1001A000F5180008F5180008F5180008F5180008FB
:1001B000F5180008F5180008F5180008F5180008EB
:1001C000F5180008F5180008F5180008F5180008DB
:1001D000F5180008F5180008F5180008F5180008CB
:1001E000F5180008F5180008F5180008F5180008BB
:1001F000F5180008F5180008F5180008F5180008AB
:10020000F5180008F5180008F5180008F51800089A
:10021000F5180008F5180008F5180008F51800088A
:10022000F5180008F5180008F5180008000000008F
:10023000F5180008F518000800000000F51800087F
:10024000F5180008F5180008F5180008F51800085A
:10025000F5180008F5180008F5180008F51800084A
:10026000F5180008F5180008F5180008F51800083A
:10027000F5180008F5180008F5180008000000003F
:10028000F5180008F5180008F5180008000000002F
:0802900000000000F518000851
:1002A00010B5054C237833B9044B13B10448AFF3B0
:1002B00000800123237010BDE02000240000000016
:1002C0001449010808B5034B1BB103490348AFF3B8
:1002D000008008BD00000000E4200024144901084B
:1002E00001F0FF01102A2BDB10F0070F08D010F8E7
:1002F000013B013A8B422DD010F0070F42B3F6D1EB
:10030000F0B441EA012141EA014122F007047FF003
:1003100000070023F0E80256083C85EA010586EA5A
:10032000010685FA47F5A3FA87F586FA47F6A5FA96
:1003300087F68EB9EED1F0BC01F0FF0102F00702A2
:1003400032B110F8013B013A83EA010313B1F8D14D
:100350000020704701387047002D06BF354603382E
:10036000073815F0010F07D1013015F4807F02BF67
:10037000013015F4C03F0130F0BC0138704700BFB8
:1003800081F0004102E000BF83F0004330B54FEA46
:1003900041044FEA430594EA050F08BF90EA020FB3
:1003A0001FBF54EA000C55EA020C7FEA645C7FEA46
:1003B000655C00F0E2804FEA5454D4EB5555B8BF69
:1003C0006D420CDD2C4480EA020281EA030382EADA
:1003D000000083EA010180EA020281EA0303362D6C
:1003E00088BF30BD11F0004F4FEA01314FF4801C3F
:1003F0004CEA113102D0404261EB410113F0004F51
:100400004FEA03334CEA133302D0524263EB430307
:1004100094EA050F00F0A780A4F10104D5F1200EA5
:100420000DDB02FA0EFC22FA05F2801841F1000100
:1004300003FA0EF2801843FA05F359410EE0A5F1D4
:1004400020050EF1200E012A03FA0EFC28BF4CF005
:10045000020C43FA05F3C01851EBE37101F00045BB
:1004600007D54FF0000EDCF1000C7EEB00006EEBC8
:100470000101B1F5801F1BD3B1F5001F0CD3490852
:100480005FEA30004FEA3C0C04F101044FEA4452A9
:1004900012F5800F80F09A80BCF1004F08BF5FEA30
:1004A000500C50F1000041EB045141EA050130BD10
:1004B0005FEA4C0C404141EB0101013C28BFB1F522
:1004C000801FE9D291F0000F04BF01460020B1FA6D
:1004D00081F308BF2033A3F10B03B3F120020CDA40
:1004E0000C3208DD02F1140CC2F10C0201FA0CF01E
:1004F00021FA02F10CE002F11402D8BFC2F1200C83
:1005000001FA02F120FA0CFCDCBF41EA0C01904038
:10051000E41AA2BF01EB0451294330BD6FEA040481
:100520001F3C1CDA0C340EDC04F11404C4F120026C
:1005300020FA04F001FA02F340EA030021FA04F37E
:1005400045EA030130BDC4F10C04C4F1200220FAD5
:1005500002F001FA04F340EA0300294630BD21FA13
:1005600004F0294630BD94F0000F83F4801306BFD9
:1005700081F480110134013D4EE77FEA645C18BFCD
:100580007FEA655C29D094EA050F08BF90EA020F64
:1005900005D054EA000C04BF1946104630BD91EA5C
:1005A000030F1EBF0021002030BD5FEA545C05D15F
:1005B0004000494128BF41F0004130BD14F580049E
:1005C0003CBF01F5801130BD01F0004545F0FE4112
:1005D00041F470014FF0000030BD7FEA645C1ABF47
:1005E000194610467FEA655C1CBF0B46024650EA7E
:1005F000013406BF52EA033591EA030F41F40021AA
:1006000030BD00BF90F0000F04BF0021704730B52F
:100610004FF4806404F132044FF000054FF0000104
:1006200050E700BF90F0000F04BF0021704730B5C5
:100630004FF4806404F1320410F0004548BF40429A
:100640004FF000013EE700BF42004FEAE2014FEAEF
:1006500031014FEA02701FBF12F07F4393F07F4FCA
:1006600081F06051704732F07F4208BF704793F0CD
:100670007F4F04BF41F40021704730B54FF46074E0
:1006800001F0004521F000411CE700BF50EA0102E3
:1006900008BF704730B54FF000050AE050EA01028C
:1006A00008BF704730B511F0004502D5404261EBFC
:1006B00041014FF4806404F132045FEA915C3FF43D
:1006C000D8AE4FF003025FEADC0C18BF03325FEADA
:1006D000DC0C18BF033202EBDC02C2F1200300FA8B
:1006E00003FC20FA02F001FA03FE40EA0E0021FAB0
:1006F00002F11444BDE600BF53B94AB9002908BF4E
:1007000000281CBF4FF0FF314FF0FF3000F0A2B9BE
:10071000ADF1080C6DE904CE00F03EF8DDF804E020
:10072000DDE9022304B0704708B502460B4643ECEE
:10073000172BB5EEC07BF1EE10FA03D4BDE80840EC
:1007400000F00AB8B1EE477B51EC170B00F004F84B
:10075000404261EB410108BD9FED0B6B41EC170B73
:100760009FED0B5B27EE066BBCEEC66BB8EE464BFF
:10077000A4EE457BFCEEC77B16EE101A17EE900A2E
:10078000704700BFAFF30080000000000000F03DA4
:10079000000000000000F0412DE9F047089D0C46E4
:1007A000002B4ED194468C458646B2FA82F262D92D
:1007B0004AB1C2F12003914020FA03F30CFA02FC83
:1007C000194300FA02FE4FEA1C471FFA8CF6B1FBF0
:1007D000F7F44FEA1E4307FB141143EA014304FBFD
:1007E00006F199420AD91CEB030304F1FF3080F0B3
:1007F0001281994240F20F81023C6344591A1FFA58
:100800008EF3B1FBF7F007FB101143EA014300FB45
:1008100006F69E420AD91CEB030300F1FF3180F07B
:10082000FC809E4240F2F980634402389B1B40EA00
:10083000044000211DB1D3400022C5E90032BDE8CB
:10084000F0878B4205D90DB1C5E9000100210846AA
:10085000F5E7B3FA83F1002946D1A34202D39042CF
:10086000C0F0F080861A64EB03030120002DE6D06F
:10087000C5E90063E3E7002A40F09080A1EB0C0497
:100880004FEA1C481FFA8CF70121B4FBF8F64FEA37
:100890001E4308FB164443EA044307FB06F0984254
:1008A00008D91CEB030306F1FF3402D2984200F290
:1008B000CD8026461C1A1FFA8EF3B4FBF8F008FB15
:1008C000104443EA044300FB07F79F4208D91CEB9E
:1008D000030300F1FF3402D29F4200F2B0802046B1
:1008E000DB1B40EA0640A5E7C1F120068B4022FA57
:1008F00006F71F4320FA06FC04FA01F343EA0C034F
:10090000F44000FA01F8380C4FEA1349B4FBF0FE4A
:100910001FFA87FC00FB1E4449EA04440EFB0CF955
:10092000A14502FA01F20AD93C190EF1FF3A80F012
:100930008480A14540F28180AEF1020E3C44A4EBDC
:1009400009041FFA83F9B4FBF0F300FB134449EAEE
:10095000044403FB0CFCA44507D93C1903F1FF3008
:1009600067D2A44565D9023B3C4443EA0E40A0FB54
:100970000293A4EB0C049C42CE469C4651D34ED02D
:1009800055B1B8EB0E0364EB0C0404FA06F6CB4049
:100990001E43CC40C5E90064002150E7C2F12003AA
:1009A00020FA03F10CFA02FC24FA03F394400C43FE
:1009B0004FEA1C4800FA02FE1FFA8CF7B3FBF8F06E
:1009C00008FB1031230C43EA014300FB07F1994275
:1009D00008D91CEB030300F1FF362CD299422AD927
:1009E000023863445B1AA4B2B3FBF8F108FB11337D
:1009F00044EA034401FB07F3A34208D91CEB0404B7
:100A000001F1FF3613D2A34211D902396444E41A2A
:100A100041EA004139E70446F0E6084606E7C845E2
:100A2000AED2B9EB020E63EB070C0138A8E73146F2
:100A3000EDE7034699E73046D4E7D6467FE76344BF
:100A400002384DE70646234608460FE7023E634458
:100A500030E700BF704700BF0FB480B5AAB000AF49
:100A600007F1B4033B60381D3B68D7F8B020A021E4
:100A700010F00AFAC7F8A400D7F8A430002B10DD54
:100A8000D7F8A430A02B02D9A023C7F8A430D7F8F8
:100A9000A4309AB2391D4FF0FF33054808F046FEE6
:100AA00000E000BFA837BD46BDE8804004B07047F5
:100AB0005C7B002480B582B000AF0F48FFF7CCFF0D
:100AC0004FF4B4620D490E4803F05CFB0346FB7122
:100AD000FB79002B03D10B48FFF7BEFF04E0FB7945
:100AE00019460948FFF7B8FF0848FFF7B5FF00BFF0
:100AF0000837BD4680BD00BF40490108FC200024E6
:100B00008C7A00245C4901087C490108AC49010841
:100B100080B586B000AF7860396001F0F3FC3861D1
:100B200000237B6130E0204B1B6801331F4AA2FB8E
:100B30000312520B42F2107101FB02F29B1AFB608E
:100B40001B4B1B68FA689A4208D11A4B1B68013389
:100B5000184A1360184B01221A7019E07B695B0078
:100B60007A681A44104B1B68B2F90010134A22F835
:100B700013100D4AFB681360114B1B680133104AB8
:100B800013607B6918337B617A693B689A42CAD3E8
:100B900001F0B8FC02463B69D31A0A4A136000BF51
:100BA0001837BD4680BD00BF607A00245917B7D101
:100BB000647A0024747A00248A7A0024402C002469
:100BC000707A0024847A002480B584B000AF786005
:100BD00001F098FCF8607B681B68114A934214D1BD
:100BE000104B1B6801330F4A13604FF434710E48E9
:100BF000FFF78EFF0D4B01221A700D4B1B6801335E
:100C00000B4A13600B4B01221A7001F07BFC024669
:100C1000FB68D31A084A136000BF1037BD4680BD79
:100C200000300140687A0024FC2000243C2C002481
:100C3000787A0024887A00247C7A002480B584B0F5
:100C400000AF786001F05EFCF8607B681B68114AB9
:100C5000934214D1104B1B6801330F4A13604FF4B9
:100C600034710E48FFF754FF0D4B01221A700D4BE3
:100C70001B6801330B4A13600B4B01221A7001F001
:100C800041FC0246FB68D31A084A136000BF1037C4
:100C9000BD4680BD003001406C7A00249C260024B3
:100CA0003C2C0024787A0024897A0024807A00245D
:100CB00080B584B000AF00F00BFA3D4B5B6903F4E4
:100CC0000033002B1BD1BFF34F8F00BFBFF36F8FDB
:100CD00000BF374B0022C3F85022BFF34F8F00BF35
:100CE000BFF36F8F00BF324B5B69314A43F400336F
:100CF0005361BFF34F8F00BFBFF36F8F00E000BFA2
:100D00002B4B5B6903F48033002B38D1284B002236
:100D1000C3F88420BFF34F8F00BF254BD3F880303A
:100D2000FB60FB685B0BC3F30E03BB60FB68DB0877
:100D3000C3F309037B60BB685A0143F6E0731340B9
:100D40007A6892071A491343C1F860327B685A1EC9
:100D50007A60002BEFD1BB685A1EBA60002BE5D138
:100D6000BFF34F8F00BF124B5B69114A43F48033CE
:100D70005361BFF34F8F00BFBFF36F8F00E000BF21
:100D800001F03AFB00F016F800F02CF900F08EF8B4
:100D900000F0BEF80AF0FEFF00F0D8F80BF086FB7A
:100DA00000F0C8F9FFF786FE0BF08EFBFCE700BFF2
:100DB00000ED00E080B59CB000AF07F124034C22A9
:100DC0000021184610F01CF93B1D20220021184676
:100DD00010F016F9022003F0D7FA00233B60314BE4
:100DE0009B69304A43F4404393612E4B9B6903F463
:100DF00040433B602C4BDB6A2B4A43F00103D36238
:100E0000294BDB6A03F001033B603B6800BF254BC5
:100E10009B6903F40053B3F5005FF8D101237B62B3
:100E20004FF4A023BB620223BB640223FB640423B0
:100E30003B654FF4F0737B650223BB651423FB65B0
:100E400002233B6604237B660023BB660023FB660C
:100E500007F12403184603F0D1FA0346002B01D012
:100E600000F062F93F237B600323BB600023FB603B
:100E700008233B6140237B614023BB614FF48063C7
:100E8000FB6140233B623B1D0421184603F010FF29
:100E90000346002B01D000F047F900BF7037BD4674
:100EA00080BD00BF004802580004005880B500AF64
:100EB000154B164A1A60144B06225A60124B002238
:100EC0009A60114B0022DA600F4B00221A610E4B20
:100ED0004BF680325A610C4B00229A610A4B002279
:100EE000DA61094B00221A62074B00225A62064B54
:100EF00000229A62044803F023F80346002B01D035
:100F000000F012F900BF80BD8C7A0024003001404F
:100F100080B400AF0B4B0C4A1A600A4B00225A6097
:100F2000084B00229A60074B4FF48042DA60054B71
:100F300000221A61034B04225A6100BFBD465DF8CE
:100F4000047B7047E07A00240070005280B500AF47
:100F5000224B234A1A60214B4FF4E1325A601F4B57
:100F600000229A601D4B0022DA601C4B00221A619D
:100F70001A4B0C225A61194B00229A61174B00221E
:100F8000DA61164B00221A62144B00225A62134B8C
:100F900000229A62114808F079FB0346002B01D029
:100FA00000F0C2F800210D480AF060F80346002B5B
:100FB00001D000F0B9F8002108480AF095F803467E
:100FC000002B01D000F0B0F804480AF016F80346F0
:100FD000002B01D000F0A8F800BF80BD5C7B00248E
:100FE0000048004080B58AB000AF07F1140300222A
:100FF0001A605A609A60DA601A61334BD3F8E030B5
:10100000314A43F08003C2F8E0302F4BD3F8E03090
:1010100003F080033B613B692B4BD3F8E0302A4A55
:1010200043F00103C2F8E030274BD3F8E03003F07F
:101030000103FB60FB68244BD3F8E030224A43F005
:101040000203C2F8E030204BD3F8E03003F0020393
:10105000BB60BB681C4BD3F8E0301B4A43F0040371
:10106000C2F8E030184BD3F8E03003F004037B60A3
:101070007B68154BD3F8E030134A43F00803C2F8FD
:10108000E030114BD3F8E03003F008033B603B68DD
:10109000002202210D4802F039FF02237B61012367
:1010A000BB610023FB6100233B6207F11403194677
:1010B000064802F07BFD00214FF0007001F05EFA5F
:1010C00000BF2837BD4680BD0044025800000258CA
:1010D00080B584B000AF3B4600221A605A609A6027
:1010E000DA6001F071FB01233B7000237B70002369
:1010F0007B601F233B7287237B720023BB7200231C
:10110000FB7201233B7301237B730023BB7300231A
:10111000FB733B46184601F08FFB042001F06CFB8B
:1011200000BF1037BD4680BD80B400AF72B600BFAF
:1011300000BFFDE780B500AF1022002157480FF037
:101140005FFF564B564A022156480FF0E1F94FF423
:101150008272002154480FF053FF4FF48272002135
:1011600052480FF04DFF524B00221A60514B0022A3
:101170001A6001224FF496614F4801F081F803464E
:10118000002B01D0FFF7D0FF4FF480714B480FF0D8
:101190008BF94B4B4B4A1A60494B4B4A5A60484BB0
:1011A0004A4A9A60464B80221A61454B4FF480723E
:1011B0005A61434B4BF680329A61414B4FF000022B
:1011C000DA613F4B424A1A623D4B012283F82420E8
:1011D0003B4B01229A623A4B0122DA62384800F016
:1011E000C9FD374BDB68B3F5005F01D9FFF79CFF02
:1011F000334BDB68374A1360374B0D221A60364B8E
:1012000080225A60344B02221A72334B0022DA6079
:10121000314B324A1A61304800F06EFB0346002B16
:1012200001D0FFF781FF2E4B244A1A602C4B01227C
:101230001A712B4B204A9A60294B4BF68032DA60A8
:10124000274B4FF496621A61254B4FF480725A6116
:10125000234B244A9A61244B214A1A60224B184A94
:101260005A60224B204A1A60204B01221A711F4BF0
:101270004FF07E529A601D4B4FF0FF42DA601C4BDC
:101280001A4A1A601A4B144A5A60194B0D229A6076
:10129000174B184ADA6000BF80BD00BF9C7C002459
:1012A00000000024907C00245CFE012460FF0124E7
:1012B0006400022468000224B07C0024F07B002437
:1012C000087C0024702F01247031012470AF0024A9
:1012D0000080BB46AC7C0024387C00247093002442
:1012E0004C7C0024708F0024687C0024707C0024D7
:1012F000807C002470AD002480B483B000AF0A4B22
:10130000D3F8F430084A43F00203C2F8F430064B35
:10131000D3F8F43003F002037B607B6800BF0C3726
:10132000BD465DF8047B70470044025880B5BAB0F2
:1013300000AF786007F1D40300221A605A609A6007
:10134000DA601A6107F11003C022002118460FF07D
:1013500057FE7B681B68264A934244D14FF4805263
:101360004FF00003C7E9042300233B6707F1100394
:10137000184604F029F80346002B01D0FFF7D4FEED
:101380001C4BD3F8F0301B4A43F48053C2F8F030C2
:10139000184BD3F8F03003F48053FB60FB68154B17
:1013A000D3F8E030134A43F00103C2F8E030114BA8
:1013B000D3F8E03003F00103BB60BB687023C7F8CB
:1013C000D4300223C7F8D8300023C7F8DC3000231C
:1013D000C7F8E0300523C7F8E43007F1D403194615
:1013E000054802F0E3FB00BFE837BD4680BD00BF03
:1013F00000300140004402580000025880B5BCB0E3
:1014000000AF786007F1DC0300221A605A609A602E
:10141000DA601A6107F11803C022002118460FF0A4
:10142000EFFD7B681B68484A934240F088804FF488
:1014300080324FF00003C7E906230023BB6607F1A3
:101440001803184603F0C0FF0346002B01D0FFF736
:101450006BFE3E4BD3F8D4303C4A43F48033C2F8A1
:10146000D4303A4BD3F8D43003F480337B617B69BA
:10147000364BD3F8E030354A43F00403C2F8E0308D
:10148000324BD3F8E03003F004033B613B692F4B50
:10149000D3F8E0302D4A43F00803C2F8E0302B4B7C
:1014A000D3F8E03003F00803FB60FB684FF470638F
:1014B000C7F8DC300223C7F8E0300123C7F8E43076
:1014C0000023C7F8E8300C23C7F8EC3007F1DC0341
:1014D00019461F4802F06AFB4FF48053C7F8DC300E
:1014E0000223C7F8E0300023C7F8E4300023C7F830
:1014F000E8300C23C7F8EC3007F1DC031946144838
:1015000002F054FB0423C7F8DC300223C7F8E030B4
:101510000123C7F8E4300023C7F8E8300C23C7F8EC
:10152000EC3007F1DC0319460A4802F03FFB0022C9
:101530000021312001F013F9312001F02AF900BF18
:10154000F037BD4680BD00BF007000520044025815
:1015500000080258000C025880B5BAB000AF78609D
:1015600007F1D40300221A605A609A60DA601A61A7
:1015700007F11003C022002118460FF041FD7B68DF
:101580001B682B4A93424ED14FF002024FF00003EA
:10159000C7E904230023C7F8883007F11003184671
:1015A00003F012FF0346002B01D0FFF7BDFD214BD6
:1015B000D3F8E8301F4A43F48023C2F8E8301D4BCB
:1015C000D3F8E83003F48023FB60FB68194BD3F8B1
:1015D000E030184A43F00203C2F8E030154BD3F86C
:1015E000E03003F00203BB60BB684FF44063C7F810
:1015F000D4300223C7F8D8300023C7F8DC300023EA
:10160000C7F8E0300723C7F8E43007F1D4031946E0
:10161000094802F0CBFA00220021272001F09FF8B0
:10162000272001F0B6F800BFE837BD4680BD00BFF7
:1016300000480040004402580004025880B400AF43
:1016400000BFFDE780B400AF00BFFDE780B400AF8E
:1016500000BFFDE780B400AF00BFFDE780B400AF7E
:1016600000BFFDE780B400AF00BFBD465DF8047B5E
:10167000704780B400AF00BFBD465DF8047B704783
:1016800080B400AF00BFBD465DF8047B704780B5F5
:1016900000AF00F023FF00BF80BD000080B500AFA9
:1016A000024808F0D1F800BF80BD00BF5C7B002479
:1016B00080B500AF024806F0F5FD00BF80BD00BF59
:1016C000E07A002480B586B000AF7860144A154BEC
:1016D000D31A7B617B693B61134B1B68002B02D1E2
:1016E000114B124A1A60104B1A687B6813443A690E
:1016F0009A4207D20FF0E2FC03460C221A604FF028
:10170000FF3309E0084B1B68FB60074B1A687B68D6
:101710001344054A1360FB6818461837BD4680BD60
:1017200000000824000800006C00022400000020D3
:1017300080B400AF434BD3F88830424A43F470037F
:10174000C2F88830404B1B6803F00F03062B07D804
:101750003D4B1B6823F00F033B4A43F00703136024
:101760003A4B1B68394A43F001031360374B0022A0
:101770001A61364B1A683549354B13400B60324BB2
:101780001B6803F00803002B07D02F4B1B6823F0C6
:101790000F032D4A43F0070313602C4B00229A617C
:1017A0002A4B0022DA61294B00221A62274B294A70
:1017B0009A62264B284ADA62244B284A1A63234B42
:1017C00000225A63214B254A9A63204B0022DA6398
:1017D0001E4B224A1A641D4B00225A641B4B1B6885
:1017E0001A4A23F480231360184B00221A661C4BFC
:1017F0001A681C4B1340B3F1005F02D21A4B01224E
:101800001A60124BD3F8D43003F48053002B13D159
:101810000E4BD3F8D4300D4A43F48053C2F8D43081
:10182000124B43F2D2021A60084BD3F8D430074A65
:1018300023F48053C2F8D43000BFBD465DF8047B6A
:10184000704700BF00ED00E0002000520044025845
:101850007FEDF6EA000202020000FF0180020101B2
:101860000010005C0000FFFF0881005100400052A2
:1018700080B400AF094BDB68084A43F00203D36031
:1018800000BF064B5B6803F40053002BF9D000BF88
:1018900000BFBD465DF8047B704700BF004802589A
:1018A000DFF838D0FFF7E4FFFFF742FF0C480D499F
:1018B0000D4A002302E0D458C4500433C4188C42AB
:1018C000F9D30A4A0A4C002301E013600432A24211
:1018D000FBD30FF0F9FBFFF7EBF97047000008248A
:1018E00000000024D4200024F0FE0208E0200024A0
:1018F00040D40324FEE7000080B598B000AF7860C4
:101900007B681B687B627B685B683B627B681B69EA
:10191000FB617B68DB68002B0BD07B681B7A042B98
:1019200004D04FF0FF33FB65FB6D1FE20123BB6565
:1019300001E00023BB657B681B7A013B042B00F2AE
:10194000108201A252F823F05D190008F319000873
:10195000011B0008BF1B0008591C000800237B6501
:1019600040E000233B6536E03B6D07EE903AB8EE71
:10197000677BB6EE006B37EE067B9FEDC16B27EE03
:10198000065B3B6A07EE903AB8EE676B85EE067B26
:1019900087ED027B7B6D07EE903AB8EE676B97EDB3
:1019A000027B26EE077BB0EE470B12F079F8B0EE23
:1019B000407B37EE077B7B6D3A6A03FB02F23B6D9F
:1019C00013449B00FA691344F7EEC77BC3ED007A1A
:1019D0003B6D01333B653A6D3B6A9A42C4D37B6DE4
:1019E00001337B657A6D7B6A9A42BAD30023FB652B
:1019F000BBE13B6A9B0007EE903AB8EE677BB7EE1F
:101A0000005B85EE076BB0EE460B12F029F8B0EEE6
:101A1000407B37EE077B87ED047B0023FB640CE003
:101A2000FB6C9B00FA69134497ED047BF7EEC77BD0
:101A3000C3ED007AFB6C0133FB64FA6C3B6A9A429B
:101A4000EED33B6A5B0007EE903AB8EE677BB0EEF0
:101A5000470B12F005F8B0EE406BB0EE005B85EE80
:101A6000067B87ED047B0123BB6442E000237B649B
:101A700038E07B6C07EE903AB8EE677BB6EE006B11
:101A800037EE067B9FED7E6B27EE065B3B6A07EE2B
:101A9000903AB8EE676B85EE067B87ED027BBB6CF8
:101AA00007EE903AB8EE676B97ED027B26EE077B68
:101AB000B0EE470B11F0F4FFB0EE406B97ED047BF6
:101AC00026EE077BBB6C3A6A03FB02F27B6C134485
:101AD0009B00FA691344F7EEC77BC3ED007A7B6C79
:101AE00001337B647A6C3B6A9A42C2D3BB6C01338C
:101AF000BB64BA6C7B6A9A42B8D30023FB6534E1BD
:101B00003B6A5B0007EE903AB8EE677BB0EE470B9E
:101B100011F0A6FFB0EE406BB0EE005B85EE067BE9
:101B200087ED047B00233B6442E00023FB6338E045
:101B3000FB6B07EE903AB8EE677BB6EE006B37EEC4
:101B4000067B9FED4F6B27EE065B3B6A07EE903AF4
:101B5000B8EE676B85EE067B87ED027B3B6C07EE8C
:101B6000903AB8EE676B97ED027B26EE077BB0EEFE
:101B7000470B11F095FFB0EE406B97ED047B26EE1E
:101B8000077B3B6C3A6A03FB02F2FB6B13449B003E
:101B9000FA691344F7EEC77BC3ED007AFB6B0133A0
:101BA000FB63FA6B3B6A9A42C2D33B6C01333B64E2
:101BB0003A6C7B6A9A42B8D30023FB65D5E00023D8
:101BC000BB6342E0BA6BBB6D134407EE903AB8EECC
:101BD000677BB6EE006B37EE067B9FED296B27EE39
:101BE000065B3B6A07EE903AB8EE676B85EE067BC4
:101BF00087ED027B00237B6320E07B6B07EE903A4E
:101C0000B8EE676B97ED027B26EE077BB0EE470BD5
:101C100011F046FFB0EE407B37EE077BBB6B3A6AB4
:101C200003FB02F27B6B13449B00FA691344F7EE4B
:101C3000C77BC3ED007A7B6B01337B637A6B3B6AB6
:101C40009A42DAD3BB6B0133BB63BA6B7B6A9A42AD
:101C5000B8D30023FB6588E03B6A07EE903AB8EE04
:101C6000677BB0EE470B11F0FBFEB0EE406BB7EEBA
:101C7000005B85EE067B87ED047B00233B6310E071
:101C8000182D4454FB2109403B6B9B00FA69134417
:101C900097ED047BF7EEC77BC3ED007A3B6B013316
:101CA0003B633A6B3B6A9A42EED33B6A07EE903A4B
:101CB000B8EE677BB0EE005B85EE076BB0EE460BCF
:101CC00011F0CEFE87ED040B0023FB6242E00123FE
:101CD000BB6238E0FB6A07EE903AB8EE677BB6EE7F
:101CE000006B37EE067B1FED1A6B27EE065B3B6A37
:101CF00007EE903AB8EE676B85EE067B87ED027BC8
:101D0000BB6A07EE903AB8EE676B97ED027B26EE62
:101D1000077BB0EE470B11F0C3FEB0EE406B97EDC2
:101D2000047B26EE077BFB6A3A6A03FB02F2BB6A7E
:101D300013449B00FA691344F7EEC77BC3ED007AA6
:101D4000BB6A0133BB62BA6A3B6A9A42C2D3FB6A7E
:101D50000133FB62FA6A7B6A9A42B8D30023FB65BF
:101D600003E04FF0FF33FB6500BFFB6D18466037A3
:101D7000BD4680BD80B5A4B000AF78607B689B6A2B
:101D80003B667B68DB6AFB657B6893F8243087F8E9
:101D90005B307B681B687B657B685B683B657B6849
:101DA0009B68C7F884307B680C33FB647B689B6955
:101DB000BB647B681B697B647B685B693B647B6895
:101DC000DB69FB637B681B6ABB6397F85B30184673
:101DD00097ED0F0A00F072F987ED0D0A97F85B3066
:101DE000184697ED0E0A00F069F987ED0C0A97ED99
:101DF0000C7AD7ED0D7A77EE676A7B6C013307EECC
:101E0000903AB8EE677AC6EE877AC7ED0B7ABB6C6C
:101E100007EE903AF8EE677AB0EE007AC7EE876A7E
:101E20003B6C5B0807EE903AB8EE677AC6EE877AAD
:101E3000C7ED0A7AFB6C00221A600023BB6633E10F
:101E4000FB6D002B44D0BB6E07EE903AB8EE677A7C
:101E5000D7ED0B7A27EE277AD7ED0D7A77EE277A32
:101E600097F85B301846B0EE670A00F097F987EDF7
:101E7000200ABB6E013307EE903AB8EE677AD7EDD1
:101E80000B7A27EE277AD7ED0D7A77EE277A97F837
:101E90005B301846B0EE670A00F080F987ED1F0A44
:101EA000BB6E023307EE903AB8EE677AD7ED0B7A45
:101EB00027EE277AD7ED0D7A77EE277A97F85B3001
:101EC0001846B0EE670A00F069F987ED1E0A2EE0A9
:101ED000BB6E07EE903AB8EE677AD7ED0B7A67EEF5
:101EE000277A97ED0D7A77EE277AC7ED207ABB6EC9
:101EF000013307EE903AB8EE677AD7ED0B7A67EECA
:101F0000277A97ED0D7A77EE277AC7ED1F7ABB6EA9
:101F1000023307EE903AB8EE677AD7ED0B7A67EEA8
:101F2000277A97ED0D7A77EE277AC7ED1E7A97ED2F
:101F30001F7AD7ED207A77EE677AC7ED097A97EDA9
:101F40001E7AD7ED1F7A77EE677AC7ED087A4FF0E1
:101F5000FF33C7F88C304FF0FF33C7F888300023C9
:101F60007B6698E0FB6D002B0BD07B6E07EE903A02
:101F7000F8EE677A97ED0A7A67EE277AC7ED1D7A51
:101F800011E07B6E07EE903AB8EE677AD7ED0A7AE9
:101F900067EE277A97F85B301846B0EE670A00F0D4
:101FA0008DF887ED1D0A97ED207AD7ED1D7A77EE33
:101FB000677AC7ED077A97ED1E7AD7ED1D7A77EE2F
:101FC000677AC7ED067AD7ED077AF1EE676A97ED83
:101FD000097AC6EE877AC7ED057AD7ED066A97EDDE
:101FE000087AC6EE877AC7ED047A97ED057AD7EDC1
:101FF000047AB4EEE77AF1EE10FA02D57B693B671A
:1020000001E03B693B67D7ED1C7AF5EEC07AF1EE53
:1020100010FA2FDD3B6FFB663B6E002B13D097ED64
:102020001E7AD7ED207A37EE677AF0EE006AC6EEB8
:10203000877AC7ED037A97ED1B7AD7ED037A67EEBF
:10204000277AC7ED1B7AD7F884301A1DC7F8842089
:10205000FA6E1A60D7F88C30B3F1FF3F02D17B6E75
:10206000C7F88C307B6EC7F88830FB6C1B685A1C35
:10207000FB6C1A60BB6E9B007A6D1344D7F88C2002
:102080001A60BB6E9B003A6D1344D7F888201A6023
:102090007B6E01337B663B6C5B087A6E9A42FFF481
:1020A00061AFBB6E0133BB66BA6E7B6C9A42FFF4C4
:1020B000C7AE00BF00BF9037BD4680BD80B588B0B9
:1020C00000AF87ED010A0346FB70FB78002B42D07E
:1020D0004FF00003BB612C4B7B6197ED017AD7ED8C
:1020E000067A77EE676A97ED057AC6EE877AC7EDCE
:1020F000077A264B3B6197ED047AD7ED067A77EEA7
:10210000676A97ED057AC6EE877AC7ED037A204BAA
:10211000BB6097ED017AD7ED047AB4EEE77AF1EE81
:1021200010FA15DB97ED017AD7ED047AC7EE276A2E
:10213000B0EE660A11F074FDF0EE406A97ED027A97
:10214000C6EE877A97ED037A77EE277AC7ED077A9E
:10215000D7ED077A13E097ED017ADFED0E6AC7EE4F
:10216000267AB7EE007A77EE877AB0EE670A11F03A
:1021700057FDF0EE407A9FED087A67EE877AB0EE71
:10218000670A2037BD4680BD5555854200007A4418
:10219000BBCD8C3D00002F4400E08C4480B588B05E
:1021A00000AF87ED010A0346FB70FB78002B42D09D
:1021B0004FF00003BB612C4B7B6197ED057AD7EDA7
:1021C000017A67EE277A97ED067A77EE277AC7EDE0
:1021D000077A264B3B6197ED047AD7ED067A77EEC6
:1021E000676A97ED057AC6EE877AC7ED037A204BCA
:1021F000BB6097ED017AD7ED037AB4EEE77AF1EEA2
:1022000010FA15DB97ED017AD7ED037A37EE677A8E
:10221000D7ED027A67EE277AB0EE670A11F08CFCF0
:10222000B0EE407AD7ED047A67EE877AC7ED077A89
:10223000D7ED077A13E0D7ED017ADFED0E6A87EE6E
:10224000A67AB0EE470A11F077FCF0EE407AB7EECE
:10225000007A77EEC77A9FED087A67EE877AB0EE5C
:10226000670A2037BD4680BD5555854200007A4437
:10227000BBCD8C3D00E08C4400002F4400000000EA
:1022800080B586B000AFF860B9601346FB710023DB
:102290007B61FB79022B1CD0022B25DC002B02D0AA
:1022A000012B0BD020E09FED162BB6EE001BB6EEF7
:1022B000000BB968F86800F037F819E09FED102BB3
:1022C0009FED111B9FED120BB968F86800F02CF818
:1022D0000EE09FED112BB6EE001B9FED110BB968C0
:1022E000F86800F021F803E04FF0FF337B6100BF96
:1022F0007B6918461837BD4680BD00BFAFF300802C
:102300000000000000000000713D0AD7A370DD3F0F
:1023100048E17A14AE47E13F7B14AE47E17AB43F1F
:10232000E17A14AE47E1DA3F80B52DED028B8AB039
:1023300000AFF861B96187ED040B87ED021B87EDF3
:10234000002B00237B6243E07B6A07EE903AB8EEF5
:10235000677B9FED256B27EE066BBB6907EE903A16
:10236000B8EE677B86EE075BB0EE450B11F098FB8D
:10237000B0EE406B97ED027B26EE077B97ED046B8A
:1023800036EE478B7B6A07EE903AB8EE677B9FED9F
:10239000186B27EE066BBB6907EE903AB8EE677BC9
:1023A00086EE075BB0EE450B11F07AFBB0EE406BAA
:1023B00097ED007B26EE077B38EE077BFB691A1D45
:1023C000FA61F7EEC77BC3ED007A7B6A01337B626B
:1023D0007A6ABB699A42B7D300BF00BF2837BD46AF
:1023E000BDEC028B80BD00BF182D4454FB21194069
:1023F000182D4454FB21294080B582B000AF032042
:1024000000F0A2F902F00AFE0246154B9B691B0A76
:1024100003F00F031349CB5C03F01F0322FA03F30D
:102420007B600F4B9B6903F00F030E4AD35C03F0F4
:102430001F037A6822FA03F30B4A13600B4A7B6886
:1024400013600F2000F014F80346002B01D0012385
:1024500002E0FEF751FF002318460837BD4680BD55
:1024600000440258004C01082C00002428000024DD
:1024700080B582B000AF7860154B1B78002B01D17E
:10248000012321E0134B1A68114B1B7819464FF4B6
:102490007A73B3FBF1F3B2FBF3F3184600F087F95C
:1024A0000346002B01D001230EE07B680F2B0AD8D6
:1024B000002279684FF0FF3000F051F9064A7B683E
:1024C0001360002300E0012318460837BD4680BD95
:1024D00034000024280000243000002480B400AF21
:1024E000064B1B781A46064B1B681344044A1360BC
:1024F00000BFBD465DF8047B704700BF3400002478
:102500007000022480B400AF034B1B681846BD4620
:102510005DF8047B704700BF7000022480B584B072
:1025200000AF7860FFF7EEFFB8607B68FB60FB6888
:10253000B3F1FF3F05D00A4B1B781A46FB681344E2
:10254000FB6000BFFFF7DEFF0246BB68D31AFA68E4
:102550009A42F7D800BF00BF1037BD4680BD00BF0C
:102560003400002480B400AF034B1B681B0C1846DA
:10257000BD465DF8047B70470010005C80B483B0FA
:1025800000AF78603960074B5A687B68DB431A40BC
:1025900004493B6813434B6000BF0C37BD465DF8F0
:1025A000047B70470004005880B485B000AF7860A9
:1025B0007B6803F00703FB600B4BDB68BB60BA680A
:1025C0004FF6FF031340BB60FB681A02BB681A4357
:1025D000064B1343BB60044ABB68D36000BF14378B
:1025E000BD465DF8047B704700ED00E00000FA0591
:1025F00080B400AF044BDB681B0A03F007031846E6
:10260000BD465DF8047B704700ED00E080B483B008
:1026100000AF0346FB80B7F90630002B0BDBFB88CD
:1026200003F01F020749B7F906305B09012000FAE1
:1026300002F241F8232000BF0C37BD465DF8047B51
:10264000704700BF00E100E080B483B000AF0346F4
:102650003960FB80B7F90630002B0ADB3B68DAB241
:102660000C49B7F906301201D2B20B4483F80023AB
:102670000AE03B68DAB20849FB8803F00F03043B29
:102680001201D2B20B441A7600BF0C37BD465DF87A
:10269000047B704700E100E000ED00E080B489B009
:1026A00000AFF860B9607A60FB6803F00703FB6174
:1026B000FB69C3F10703042B28BF0423BB61FB693B
:1026C0000433062B02D9FB69033B00E000237B6146
:1026D0004FF0FF32BB6902FA03F3DA43BB681A40DA
:1026E0007B699A404FF0FF317B6901FA03F3D943CC
:1026F0007B680B40134318462437BD465DF8047BC6
:102700007047000080B582B000AF78607B68013B05
:10271000B3F1807F01D301230FE00A4A7B68013BBC
:1027200053600F214FF0FF30FFF78EFF054B002263
:102730009A60044B07221A60002318460837BD46EA
:1027400080BD00BF10E000E080B582B000AF7860CF
:102750007868FFF729FF00BF0837BD4680BD80B508
:1027600086B000AF0346B9607A60FB81FFF740FF97
:1027700078617A68B9687869FFF790FF0246B7F91F
:102780000E3011461846FFF75FFF00BF1837BD46F1
:1027900080BD80B582B000AF0346FB80B7F906303C
:1027A0001846FFF733FF00BF0837BD4680BD80B530
:1027B00082B000AF78607868FFF7A4FF0346184640
:1027C0000837BD4680BD000080B400AFBFF35F8F07
:1027D00000BF074B5B6A064A23F480335362054B04
:1027E00000225A6000BFBD465DF8047B704700BF01
:1027F00000ED00E090ED00E080B483B000AF7860C1
:102800000B4A7B6843F0010353600A4B5B6A094A39
:1028100043F480335362BFF34F8F00BFBFF36F8F1A
:1028200000BF00BF0C37BD465DF8047B704700BF9A
:1028300090ED00E000ED00E080B483B000AF786080
:102840007B685A781B4B9A601A4B1B69194A23F014
:1028500001031361174A7B685B68D3607B681B7B4D
:102860001A077B68DB7A1B061A437B689B7ADB04BA
:102870001A437B685B7B9B041A437B689B7B5B04EE
:102880001A437B68DB7B1B041A437B685B7A1B0261
:102890001A437B681B7A5B0013437A6812781146EF
:1028A000044A0B43136100BF0C37BD465DF8047B3F
:1028B000704700BF90ED00E080B586B000AFF860D3
:1028C000B9607A603B600023FB75FB68002B01D187
:1028D000012326E2FB6893F83430012B01D1022357
:1028E0001FE2FB68012283F83420FB6893F835303F
:1028F000DBB2012B40F00A82FB68022283F835200C
:10290000FB6800225A65FB681B68684A93424AD0FC
:10291000FB681B68664A934245D0FB681B68654AA2
:10292000934240D0FB681B68634A93423BD0FB68EC
:102930001B68624A934236D0FB681B68604A934228
:1029400031D0FB681B685F4A93422CD0FB681B6840
:102950005D4A934227D0FB681B685C4A934222D0B1
:10296000FB681B685A4A93421DD0FB681B68594A92
:10297000934218D0FB681B68574A934213D0FB68F8
:102980001B68564A93420ED0FB681B68544A934218
:1029900009D0FB681B68534A934204D0FB681B684C
:1029A000514A934208D1FB681B681A68FB681B6890
:1029B00022F001021A6007E0FB681B681A68FB68D6
:1029C0001B6822F001021A603B687A68B968F868EF
:1029D00000F040FFFB681B68344A93424AD0FB6812
:1029E0001B68334A934245D0FB681B68314A9342C7
:1029F00040D0FB681B68304A93423BD0FB681B68A1
:102A00002E4A934236D0FB681B682D4A934231D040
:102A1000FB681B682B4A93422CD0FB681B682A4A30
:102A2000934227D0FB681B68284A934222D0FB6858
:102A30001B68274A93421DD0FB681B68254A9342B6
:102A400018D0FB681B68244A934213D0FB681B68AC
:102A5000224A93420ED0FB681B68214A934209D058
:102A6000FB681B681F4A934204D0FB681B681E4A20
:102A7000934201D1012300E00023002B36D0FB68F4
:102A80001B681B6823F01E02FB681B6842F01602DD
:102A90001A60FB681B6C002B3ED0FB681B681A6831
:102AA000FB681B6842F008021A6035E01000024023
:102AB00028000240400002405800024070000240DE
:102AC00088000240A0000240B8000240100402400A
:102AD00028040240400402405804024070040240AE
:102AE00088040240A0040240B8040240FB681B684E
:102AF0001B6823F00E02FB681B6842F00A021A6092
:102B0000FB681B6C002B07D0FB681B681A68FB680E
:102B10001B6842F004021A60FB681B68834A9342F8
:102B200072D0FB681B68824A93426DD0FB681B68B9
:102B3000804A934268D0FB681B687F4A934263D007
:102B4000FB681B687D4A93425ED0FB681B687C4A29
:102B5000934259D0FB681B687A4A934254D0FB6871
:102B60001B68794A93424FD0FB681B68774A9342AF
:102B70004AD0FB681B68764A934245D0FB681B68C5
:102B8000744A934240D0FB681B68734A93423BD01F
:102B9000FB681B68714A934236D0FB681B68704A19
:102BA000934231D0FB681B686E4A93422CD0FB687D
:102BB0001B686D4A934227D0FB681B686B4A93429F
:102BC00022D0FB681B686A4A93421DD0FB681B68D1
:102BD000684A934218D0FB681B68674A934213D037
:102BE000FB681B68654A93420ED0FB681B68644A09
:102BF000934209D0FB681B68624A934204D0FB6889
:102C00001B68614A934201D1012300E00023002B9D
:102C10001AD0FB681B6E1B6803F48033002B07D0AF
:102C2000FB681B6E1A68FB681B6E42F480721A60A8
:102C3000FB68DB6E002B07D0FB68DB6E1A68FB6855
:102C4000DB6E42F480721A60FB681B68374A93425D
:102C50004AD0FB681B68364A934245D0FB681B6824
:102C6000344A934240D0FB681B68334A93423BD0BE
:102C7000FB681B68314A934236D0FB681B68304AB8
:102C8000934231D0FB681B682E4A93422CD0FB68DC
:102C90001B682D4A934227D0FB681B682B4A93423E
:102CA00022D0FB681B682A4A93421DD0FB681B6830
:102CB000284A934218D0FB681B68274A934213D0D6
:102CC000FB681B68254A93420ED0FB681B68244AA8
:102CD000934209D0FB681B68224A934204D0FB68E8
:102CE0001B68214A934208D1FB681B681A68FB687D
:102CF0001B6842F001021A6012E0FB681B681A6848
:102D0000FB681B6842F001021A6009E0FB684FF49F
:102D100000625A65FB68002283F834200123FB75AA
:102D2000FB7D18461837BD4680BD00BF100002402D
:102D3000280002404000024058000240700002405B
:102D400088000240A0000240B80002401004024087
:102D5000280402404004024058040240700402402B
:102D600088040240A0040240B804024008540258FB
:102D70001C540258305402584454025858540258B3
:102D80006C540258805402589454025880B586B04E
:102D900000AF7860FFF7B6FB38617B68002B01D18C
:102DA0000123DCE27B6893F83530DBB2022B08D0DC
:102DB0007B6880225A657B68002283F834200123D7
:102DC000CDE27B681B68764A93424AD07B681B68D9
:102DD000744A934245D07B681B68734A934240D043
:102DE0007B681B68714A93423BD07B681B68704AC2
:102DF000934236D07B681B686E4A934231D07B6821
:102E00001B686D4A93422CD07B681B686B4A9342C7
:102E100027D07B681B686A4A934222D07B681B6874
:102E2000684A93421DD07B681B68674A934218D05A
:102E30007B681B68654A934213D07B681B68644AB1
:102E400093420ED07B681B68624A934209D07B682C
:102E50001B68614A934204D07B681B685F4A9342B7
:102E600001D1012300E00023002B13D07B681B68F5
:102E70001A687B681B6822F01E021A607B681B6858
:102E80005A697B681B6822F080025A617B681B6864
:102E90007B610AE07B681B681A687B681B6822F00C
:102EA0000E021A607B681B687B617B681B683C4A6A
:102EB000934272D07B681B683A4A93426DD07B681C
:102EC0001B68394A934268D07B681B68374A934233
:102ED00063D07B681B68364A93425ED07B681B6870
:102EE000344A934259D07B681B68334A934254D08A
:102EF0007B681B68314A93424FD07B681B68304A1D
:102F000093424AD07B681B682E4A934245D07B6827
:102F10001B682D4A934240D07B681B682B4A934222
:102F20003BD07B681B682A4A934236D07B681B687B
:102F3000284A934231D07B681B68274A93422CD0A1
:102F40007B681B68254A934227D07B681B68244A0C
:102F5000934222D07B681B68224A93421DD07B6833
:102F60001B68214A934218D07B681B681F4A934212
:102F700013D07B681B681E4A93420ED07B681B6887
:102F80001C4A934209D07B681B681B4A934204D0B9
:102F90007B681B68194A934232D1012331E000BF9C
:102FA0001000024028000240400002405800024049
:102FB0007000024088000240A0000240B8000240B9
:102FC0001004024028040240400402405804024019
:102FD0007004024088040240A0040240B804024089
:102FE000085402581C540258305402584454025891
:102FF000585402586C540258805402589454025841
:103000000023002B07D07B681B6E1A687B681B6E41
:1030100022F480721A607B681B686D4A93424AD022
:103020007B681B686B4A934245D07B681B686A4A81
:10303000934240D07B681B68684A93423BD07B68D0
:103040001B68674A934236D07B681B68654A934287
:1030500031D07B681B68644A93422CD07B681B6824
:10306000624A934227D07B681B68614A934222D010
:103070007B681B685F4A93421DD07B681B685E4A71
:10308000934218D07B681B685C4A934213D07B68DC
:103090001B685B4A93420ED07B681B68594A934277
:1030A00009D07B681B68584A934204D07B681B6830
:1030B000564A934208D17B681B681A687B681B6874
:1030C00022F001021A6007E07B681B681A687B68BF
:1030D0001B6822F001021A6013E0FFF713FA0246A0
:1030E0003B69D31A052B0CD97B6820225A657B6873
:1030F000032283F835207B68002283F834200123E3
:103100002DE17B691B6803F00103002BE5D17B688F
:103110001B682F4A93424AD07B681B682D4A934212
:1031200045D07B681B682C4A934240D07B681B6863
:103130002A4A93423BD07B681B68294A934236D087
:103140007B681B68274A934231D07B681B68264AFC
:1031500093422CD07B681B68244A934227D07B681B
:103160001B68234A934222D07B681B68214A934202
:103170001DD07B681B68204A934218D07B681B686F
:103180001E4A934213D07B681B681D4A93420ED09F
:103190007B681B681B4A934209D07B681B681A4AEC
:1031A000934204D07B681B68184A934201D10123E3
:1031B00000E00023002B2BD07B689B6DBB607B68FD
:1031C000DB6D03F01F033F229A40BB689A602AE040
:1031D0001000024028000240400002405800024017
:1031E0007000024088000240A0000240B800024087
:1031F00010040240280402404004024058040240E7
:103200007004024088040240A0040240B804024056
:103210007B689B6DFB607B68DB6D03F01F03012205
:103220009A40FB685A607B681B684F4A934272D091
:103230007B681B684D4A93426DD07B681B684C4A83
:10324000934268D07B681B684A4A934263D07B688C
:103250001B68494A93425ED07B681B68474A934289
:1032600059D07B681B68464A934254D07B681B68E0
:10327000444A93424FD07B681B68434A93424AD0EA
:103280007B681B68414A934245D07B681B68404A73
:10329000934240D07B681B683E4A93423BD07B6898
:1032A0001B683D4A934236D07B681B683B4A934279
:1032B00031D07B681B683A4A93422CD07B681B68EC
:1032C000384A934227D07B681B68374A934222D002
:1032D0007B681B68354A93421DD07B681B68344A63
:1032E000934218D07B681B68324A934213D07B68A4
:1032F0001B68314A93420ED07B681B682F4A934269
:1033000009D07B681B682E4A934204D07B681B68F7
:103310002C4A934201D1012300E00023002B15D059
:103320007B685B6E7A68926E5A607B68DB6E002BFE
:103330000CD07B68DB6E1A687B68DB6E22F48072CF
:103340001A607B681B6F7A68526F5A607B68012233
:1033500083F835207B68002283F834200023184648
:103360001837BD4680BD00BF100002402800024053
:1033700040000240580002407000024088000240B5
:10338000A0000240B800024010040240280402409D
:103390004004024058040240700402408804024085
:1033A000A0040240B8040240085402581C540258B9
:1033B0003054025844540258585402586C5402581D
:1033C000805402589454025880B584B000AF78609D
:1033D0007B68002B01D1012337E27B6893F83530FD
:1033E000DBB2022B04D07B6880225A6501232CE2D9
:1033F0007B681B685C4A93424AD07B681B685B4AC7
:10340000934245D07B681B68594A934240D07B6801
:103410001B68584A93423BD07B681B68564A9342CC
:1034200036D07B681B68554A934231D07B681B6855
:10343000534A93422CD07B681B68524A934227D050
:103440007B681B68504A934222D07B681B684F4AB6
:1034500093421DD07B681B684D4A934218D07B680D
:103460001B684C4A934213D07B681B684A4A9342BC
:103470000ED07B681B68494A934209D07B681B6861
:10348000474A934204D07B681B68464A934201D165
:10349000012300E00023002B00F086807B680422DB
:1034A00083F835207B681B682F4A93424AD07B689B
:1034B0001B682E4A934245D07B681B682C4A934276
:1034C00040D07B681B682B4A93423BD07B681B68CB
:1034D000294A934236D07B681B68284A934231D0F0
:1034E0007B681B68264A93422CD07B681B68254A60
:1034F000934227D07B681B68234A934222D07B6883
:103500001B68224A93421DD07B681B68204A934265
:1035100018D07B681B681F4A934213D07B681B68D6
:103520001D4A93420ED07B681B681C4A934209D007
:103530007B681B681A4A934204D07B681B68194A4F
:10354000934208D17B681B681A687B681B6822F06D
:1035500001021A6078E17B681B681A687B681B6847
:1035600022F001021A606FE11000024028000240C0
:1035700040000240580002407000024088000240B3
:10358000A0000240B800024010040240280402409B
:103590004004024058040240700402408804024083
:1035A000A0040240B80402407B681B681A687B686C
:1035B0001B6822F00E021A607B681B686C4A9342FB
:1035C0004AD07B681B686B4A934245D07B681B6876
:1035D000694A934240D07B681B68684A93423BD05B
:1035E0007B681B68664A934236D07B681B68654AD5
:1035F000934231D07B681B68634A93422CD07B682E
:103600001B68624A934227D07B681B68604A9342DA
:1036100022D07B681B685F4A93421DD07B681B6881
:103620005D4A934218D07B681B685C4A934213D072
:103630007B681B685A4A93420ED07B681B68594AC4
:10364000934209D07B681B68574A934204D07B6839
:103650001B68564A934208D17B681B681A687B68CE
:103660001B6822F001021A6007E07B681B681A6879
:103670007B681B6822F001021A607B681B683C4A69
:10368000934272D07B681B683A4A93426DD07B6844
:103690001B68394A934268D07B681B68374A93425B
:1036A00063D07B681B68364A93425ED07B681B6898
:1036B000344A934259D07B681B68334A934254D0B2
:1036C0007B681B68314A93424FD07B681B68304A45
:1036D00093424AD07B681B682E4A934245D07B6850
:1036E0001B682D4A934240D07B681B682B4A93424B
:1036F0003BD07B681B682A4A934236D07B681B68A4
:10370000284A934231D07B681B68274A93422CD0C9
:103710007B681B68254A934227D07B681B68244A34
:10372000934222D07B681B68224A93421DD07B685B
:103730001B68214A934218D07B681B681F4A93423A
:1037400013D07B681B681E4A93420ED07B681B68AF
:103750001C4A934209D07B681B681B4A934204D0E1
:103760007B681B68194A934232D1012331E000BFC4
:103770001000024028000240400002405800024071
:103780007000024088000240A0000240B8000240E1
:103790001004024028040240400402405804024041
:1037A0007004024088040240A0040240B8040240B1
:1037B000085402581C5402583054025844540258B9
:1037C000585402586C540258805402589454025869
:1037D0000023002B28D07B681B6E1A687B681B6E49
:1037E00022F480721A607B689B6DFB607B68DB6DE6
:1037F00003F01F0301229A40FB685A607B685B6EEE
:103800007A68926E5A607B68DB6E002B0CD07B6806
:10381000DB6E1A687B68DB6E22F480721A607B684C
:103820001B6F7A68526F5A607B68012283F83520DB
:103830007B68002283F834207B681B6D002B03D04B
:103840007B681B6D78689847002318461037BD4683
:1038500080BD00BF80B487B000AFF860B9607A6007
:103860003B60FB689B6D7B61FB689B6D3B61FB680C
:103870001B687F4A934272D0FB681B687D4A934263
:103880006DD0FB681B687C4A934268D0FB681B685C
:103890007A4A934263D0FB681B68794A93425ED0B0
:1038A000FB681B68774A934259D0FB681B68764ACD
:1038B000934254D0FB681B68744A93424FD0FB6814
:1038C0001B68734A93424AD0FB681B68714A934253
:1038D00045D0FB681B68704A934240D0FB681B6868
:1038E0006E4A93423BD0FB681B686D4A934236D0C8
:1038F000FB681B686B4A934231D0FB681B686A4ABD
:1039000093422CD0FB681B68684A934227D0FB681F
:103910001B68674A934222D0FB681B68654A934242
:103920001DD0FB681B68644A934218D0FB681B6873
:10393000624A934213D0FB681B68614A93420ED0DF
:10394000FB681B685F4A934209D0FB681B685E4AAC
:10395000934204D0FB681B685C4A934201D1012367
:1039600000E00023002B0DD0FB685B6EFA68926EBE
:103970005A60FB68DB6E002B04D0FB681B6FFA6893
:10398000526F5A60FB681B68394A93424AD0FB6801
:103990001B68384A934245D0FB681B68364A9342FD
:1039A00040D0FB681B68354A93423BD0FB681B68DC
:1039B000334A934236D0FB681B68324A934231D077
:1039C000FB681B68304A93422CD0FB681B682F4A67
:1039D000934227D0FB681B682D4A934222D0FB6894
:1039E0001B682C4A93421DD0FB681B682A4A9342ED
:1039F00018D0FB681B68294A934213D0FB681B68E8
:103A0000274A93420ED0FB681B68264A934209D08E
:103A1000FB681B68244A934204D0FB681B68234A56
:103A2000934201D1012300E00023002B59D0FB6811
:103A3000DB6D03F01F033F229A407B699A60FB68AD
:103A40001B681A68FB681B6822F480221A60FB68F6
:103A50001B683A685A60FB689B68402B38D1FB684A
:103A60001B687A689A60FB681B68BA68DA6086E04F
:103A7000100002402800024040000240580002406E
:103A80007000024088000240A0000240B8000240DE
:103A9000100402402804024040040240580402403E
:103AA0007004024088040240A0040240B8040240AE
:103AB000085402581C5402583054025844540258B6
:103AC000585402586C540258805402589454025866
:103AD000FB681B68BA689A60FB681B687A68DA60E2
:103AE0004DE0FB681B68294A934222D0FB681B68A3
:103AF000274A93421DD0FB681B68264A934218D080
:103B0000FB681B68244A934213D0FB681B68234A56
:103B100093420ED0FB681B68214A934209D0FB6890
:103B20001B68204A934204D0FB681B681E4A9342DC
:103B300001D1012300E00023002B20D0FB68DB6DC6
:103B400003F01F0301229A403B695A60FB681B681F
:103B50003A685A60FB689B68402B08D1FB681B6879
:103B60007A689A60FB681B68BA68DA6007E0FB68ED
:103B70001B68BA689A60FB681B687A68DA6000BFE5
:103B80001C37BD465DF8047B704700BF08540258DF
:103B90001C54025830540258445402585854025885
:103BA0006C540258805402589454025880B489B01E
:103BB00000AF786039600023FB61894B7B6194E141
:103BC0003B681A680121FB6901FA03F313403B616A
:103BD0003B69002B00F086813B685B6803F00303C0
:103BE000012B05D03B685B6803F00303022B30D147
:103BF0007B689B68BB61FB695B00032202FA03F3ED
:103C0000DB43BA691340BB613B68DA68FB695B0060
:103C100002FA03F3BA691343BB617B68BA699A601D
:103C20007B685B68BB610122FB6902FA03F3DB433B
:103C3000BA691340BB613B685B681B0903F0010272
:103C4000FB6902FA03F3BA691343BB617B68BA6983
:103C50005A603B685B6803F00303032B17D07B6853
:103C6000DB68BB61FB695B00032202FA03F3DB4301
:103C7000BA691340BB613B689A68FB695B0002FA52
:103C800003F3BA691343BB617B68BA69DA603B68C6
:103C90005B6803F00303022B23D1FB69DA087B681E
:103CA000083253F82230BB61FB6903F007039B0025
:103CB0000F2202FA03F3DB43BA691340BB613B688E
:103CC0001A69FB6903F007039B0002FA03F3BA6960
:103CD0001343BB61FB69DA087B680832B96943F8B2
:103CE00022107B681B68BB61FB695B00032202FA40
:103CF00003F3DB43BA691340BB613B685B6803F0C5
:103D00000302FB695B0002FA03F3BA691343BB6168
:103D10007B68BA691A603B685B6803F44033002B28
:103D200000F0E0802F4BD3F8F4302E4A43F002032A
:103D3000C2F8F4302B4BD3F8F43003F00203FB60ED
:103D4000FB68294AFB699B08023352F82330BB61A8
:103D5000FB6903F003039B000F2202FA03F3DB432A
:103D6000BA691340BB617B68204A934252D07B689A
:103D70001F4A934231D07B681E4A93422BD07B6806
:103D80001D4A934225D07B681C4A93421FD07B6812
:103D90001B4A934219D07B681A4A934213D07B681E
:103DA000194A93420DD07B68184A934207D07B682A
:103DB000174A934201D109232DE00A232BE008235F
:103DC00029E0072327E0062325E0052323E0042339
:103DD00021E003231FE002231DE001231BE000BFBD
:103DE00080000058004402580004005800000258A7
:103DF0000004025800080258000C02580010025833
:103E00000014025800180258001C025800200258E2
:103E1000002402580023FA6902F003029200934042
:103E2000BA691343BB613849FB699B080233BA691D
:103E300041F823204FF0B0431B68BB613B69DB4373
:103E4000BA691340BB613B685B6803F48013002BC5
:103E500003D0BA693B691343BB614FF0B042BB6901
:103E600013604FF0B0435B68BB613B69DB43BA69E9
:103E70001340BB613B685B6803F40013002B03D065
:103E8000BA693B691343BB614FF0B042BB695360F1
:103E90007B695B68BB613B69DB43BA691340BB610B
:103EA0003B685B6803F40033002B03D0BA693B69BD
:103EB0001343BB617B69BA695A607B691B68BB614C
:103EC0003B69DB43BA691340BB613B685B6803F441
:103ED0008033002B03D0BA693B691343BB617B6914
:103EE000BA691A60FB690133FB613B681A68FB69B8
:103EF00022FA03F3002B7FF463AE00BF00BF243728
:103F0000BD465DF8047B70470004005880B483B060
:103F100000AF78600B467B8013467B707B78002B6C
:103F200003D07A887B689A6103E07B881A047B68F7
:103F30009A6100BF0C37BD465DF8047B70470000F6
:103F400080B588B000AF78607B68002B01D1012379
:103F50000DE17B6893F84D30DBB2002B06D17B6816
:103F6000002283F84C207868FDF7E0F97B68022294
:103F700083F84D207B681B681B6803F00103012B4D
:103F800007D17B681B681A687B681B6822F00102F6
:103F90001A607B681B6800221A657B685B68042BCB
:103FA00008D07B685B68062B04D07B685B680A2BB3
:103FB00040F087807B685B69022B5AD07B68DB68A6
:103FC000002B02D002237B6101E001237B617B682F
:103FD0009B68302B03D07B689B68B02B02D10123F8
:103FE000FB6001E00023FB604FF480504FF00001C4
:103FF00002F0F4FBB8607B681B69B3F1007F13D15A
:104000004FF48072FB6822FA03F3BA68B2FBF3F252
:1040100013469B0013445B001A467B685B69B2FB46
:10402000F3F305333B6114E02022FB6822FA03F32B
:104030007A6902FB03F3BA68B2FBF3F213469B0002
:1040400013445B001A467B685B69B2FBF3F30533EC
:104050003B613B69484AA2FB0323DB083B613B69A8
:1040600003F00103BB613A69BB69D31A5B08FB61CA
:1040700003E00223FB610023BB61BB69012B02D17A
:10408000FB69012B02D0FB69FF2B07D97B681B6DF5
:1040900043F010027B681A65012368E0FB69002B7E
:1040A00001D10123BB617B681B681A6D334B134040
:1040B000FA691104BA69120611437A6812680B434F
:1040C00013657B681B681A6D2D4B13407A68516825
:1040D0007A68926811437A68D26811437A68926963
:1040E00011437A68126A11437A68526A11437A68F6
:1040F00012690A431A437B681B6842F001021A6581
:104100007B681B6840F6F8729A617B681B681A68C6
:104110007B681B6822F480321A607B681B68DB684E
:1041200023F400017B68DA697B681B680A43DA6064
:104130007B685B68042B07D07B685B68062B03D029
:104140007B685B680A2B0AD17B681B68DB6823F0FD
:1041500000417B689A6A7B681B680A43DA607B6867
:1041600000221A657B68012283F84D20002318463F
:104170002037BD4680BD00BFCDCCCCCCFFFF00FEBC
:104180004090FFFD80B586B000AFF860B96013467F
:10419000FB800023FB75BB68002B02D0FB88002B43
:1041A00001D1012386E0FB6893F84D30DBB2012B8F
:1041B00001D002237EE0FB6893F84C30DBB2012B88
:1041C00001D1022376E0FB68012283F84C20FB68D2
:1041D000042283F84D20FB6800221A65FB68BA6848
:1041E0005A63FB68FA881A87FB68FA885A87FB6863
:1041F0000022DA62FB6800221A86FB6800225A86D7
:10420000FB689B6C2D4A1A64FB689B6C2C4ADA6332
:10421000FB689B6C2B4ADA64FB68986CFB681B6834
:1042200030331946FB685B6B1A46FB685B8F9BB2A9
:10423000FEF742FB0346002B11D0FB681B6D43F0D9
:104240000802FB681A65FB68012283F84D200123F0
:10425000FB75FB68002283F84C20FB7D2AE0FB689D
:104260001B689B6803F48043002B07D1FB681B6825
:104270009A68FB681B6842F480429A60FB681B687E
:104280001B6803F00103002B07D1FB681B681A6849
:10429000FB681B6842F001021A60FB681B681A6821
:1042A000FB681B6842F400721A60FB68002283F806
:1042B0004C20FB7D18461837BD4680BD1F430008C3
:1042C000DD4200083B43000880B483B000AF786053
:1042D00000BF0C37BD465DF8047B704780B584B0E5
:1042E00000AF78607B689B6BFB607B68DB69002BB1
:1042F0000ED1FB681B689A68FB681B6822F4804239
:104300009A60FB6800225A87FB68012283F84D20DF
:10431000F868FCF793FC00BF1037BD4680BD80B540
:1043200084B000AF78607B689B6BFB60F868FCF73B
:104330004BFC00BF1037BD4680BD80B584B000AFD8
:1043400078607B689B6BFB60FB681B689A68FB6806
:104350001B6822F440429A60FB6800225A86FB6880
:1043600000225A87FB68012283F84D20FB681B6DF1
:1043700043F00802FB681A65F868FFF7A5FF00BF65
:104380001037BD4680BD000080B584B000AF7860B6
:10439000194BDB6803F00403042B0AD0164BDB68CF
:1043A00003F007037A689A4201D001231FE000233B
:1043B0001DE0114BDB6823F007020F497B681343B4
:1043C000CB60FEF79FF8F86009E0FEF79BF8024625
:1043D000FB68D31AB3F57A7F01D9012307E0064BB6
:1043E0005B6803F40053B3F5005FEED10023184679
:1043F0001037BD4680BD00BF0048025880B58CB064
:1044000000AF78607B68002B02D1012300F048BC2C
:104410007B681B6803F00103002B00F08880994B38
:104420001B6903F03803FB62964B9B6ABB62FB6A15
:10443000102B07D0FB6A182B11D1BB6A03F00303C2
:10444000022B0CD18F4B1B6803F40033002B6DD073
:104450007B685B68002B69D1012300F021BC7B687D
:104460005B68B3F5803F06D1864B1B68854A43F4F1
:10447000803313602EE07B685B68002B0CD1814B8E
:104480001B68804A23F4803313607E4B1B687D4A8F
:1044900023F4802313601DE07B685B68B3F5A02FD5
:1044A0000CD1784B1B68774A43F480231360754B1B
:1044B0001B68744A43F4803313600BE0714B1B6834
:1044C000704A23F4803313606E4B1B686D4A23F4EB
:1044D000802313607B685B68002B13D0FEF712F813
:1044E000786208E0FEF70EF802467B6AD31A642B66
:1044F00001D90323D4E3634B1B6803F40033002B7F
:10450000F0D014E0FDF7FEFF786208E0FDF7FAFF57
:1045100002467B6AD31A642B01D90323C0E3594BAB
:104520001B6803F40033002BF0D100E000BF7B6870
:104530001B6803F00203002B00F0CA80514B1B697B
:1045400003F038033B624F4B9B6AFB613B6A002BD5
:1045500007D03B6A182B56D1FB6903F00303002BED
:1045600051D1484B1B6803F00403002B05D07B6836
:10457000DB68002B01D1012392E3424B1B6823F03F
:1045800019027B68DB683F4913430B60FDF7BAFFF4
:10459000786208E0FDF7B6FF02467B6AD31A022B69
:1045A00001D903237CE3374B1B6803F00403002B82
:1045B000F0D0FDF7D7FF034641F20302934217D82C
:1045C0007B681B69402B08D12E4B5B6823F47C333E
:1045D0002C4A43F4003353607AE02A4B5B6823F49F
:1045E0007C327B681B691B03264913434B606FE0D9
:1045F000244B5B6823F0FE427B681B691B06214944
:1046000013434B6064E07B68DB68002B47D01D4B95
:104610001B6823F019027B68DB681A4913430B609F
:10462000FDF770FF786208E0FDF76CFF02467B6AD9
:10463000D31A022B01D9032332E3124B1B6803F078
:104640000403002BF0D0FDF78DFF034641F2030277
:10465000934219D87B681B69402B08D1094B5B68D2
:1046600023F47C33074A43F40033536030E0054BB6
:104670005B6823F47C327B681B691B03014913438D
:104680004B6025E0004402589A4B5B6823F0FE42E1
:104690007B681B691B06974913434B6018E0954BD9
:1046A0001B68944A23F001031360FDF72BFF786227
:1046B00008E0FDF727FF02467B6AD31A022B01D9D7
:1046C0000323EDE28B4B1B6803F00403002BF0D1B6
:1046D0007B681B6803F01003002B00F0A980854B5A
:1046E0001B6903F03803BB61824B9B6A7B61BB692A
:1046F000082B07D0BB69182B3AD17B6903F0030361
:10470000012B35D17B4B1B6803F48073002B05D044
:104710007B68DB69802B01D00123C1E2FDF722FF1A
:10472000034641F20302934217D87B681B6A202B91
:1047300008D1704B5B6823F0F8436E4A43F0804326
:10474000536075E06B4B5B6823F0F8427B681B6A33
:104750009B06684913434B606AE0664BDB6823F0B5
:104760007C527B681B6A1B0662491343CB605FE087
:104770007B68DB69002B42D05E4B1B685D4A43F0CF
:1047800080031360FDF7BEFE786208E0FDF7BAFE15
:1047900002467B6AD31A022B01D9032380E2554BD0
:1047A0001B6803F48073002BF0D0FDF7DBFE03469B
:1047B00041F20302934217D87B681B6A202B08D171
:1047C0004C4B5B6823F0F8434A4A43F08043536004
:1047D0002EE0484B5B6823F0F8427B681B6A9B061F
:1047E000444913434B6023E0424BDB6823F07C5287
:1047F0007B681B6A1B063F491343CB6018E03D4BA7
:104800001B683C4A23F080031360FDF77BFE78624F
:1048100008E0FDF777FE02467B6AD31A022B01D926
:1048200003233DE2334B1B6803F48073002BF0D16C
:104830007B681B6803F00803002B36D07B685B693C
:10484000002B19D02B4B5B6F2A4A43F001035367AF
:10485000FDF758FE786208E0FDF754FE02467B6AD9
:10486000D31A022B01D903231AE2224B5B6F03F008
:104870000203002BF0D018E01E4B5B6F1D4A23F0A3
:1048800001035367FDF73EFE786208E0FDF73AFE4C
:1048900002467B6AD31A022B01D9032300E2154B8F
:1048A0005B6F03F00203002BF0D17B681B6803F001
:1048B0002003002B39D07B689B69002B1CD00D4B4B
:1048C0001B680C4A43F480531360FDF71BFE7862AB
:1048D00008E0FDF717FE02467B6AD31A022B01D9C6
:1048E0000323DDE1034B1B6803F40053002BF0D0DE
:1048F0001BE000BF004402589B4B1B689A4A23F4FC
:1049000080531360FDF7FEFD786208E0FDF7FAFDC5
:1049100002467B6AD31A022B01D90323C0E1924BD2
:104920001B6803F40053002BF0D17B681B6803F075
:104930000403002B00F081808C4B1B688B4A43F4EE
:1049400080731360FDF7DEFD786208E0FDF7DAFDA5
:1049500002467B6AD31A642B01D90323A0E1834B5F
:104960001B6803F48073002BF0D07B689B68012BDD
:1049700006D17D4B1B6F7C4A43F0010313672DE08A
:104980007B689B68002B0CD1774B1B6F764A23F01A
:1049900001031367744B1B6F734A23F004031367FF
:1049A0001CE07B689B68052B0CD16F4B1B6F6E4A1C
:1049B00043F0040313676C4B1B6F6B4A43F0010316
:1049C00013670BE0684B1B6F674A23F00103136703
:1049D000654B1B6F644A23F0040313677B689B6875
:1049E000002B15D0FDF78EFD78620AE0FDF78AFDF9
:1049F00002467B6AD31A41F28832934201D90323DB
:104A00004EE1594B1B6F03F00203002BEED014E074
:104A1000FDF778FD78620AE0FDF774FD02467B6AD7
:104A2000D31A41F28832934201D9032338E14E4B25
:104A30001B6F03F00203002BEED17B685B6A002B37
:104A400000F02D81484B1B6903F03803182B00F050
:104A5000BD807B685B6A022B40F09E80424B1B68E6
:104A6000414A23F080731360FDF74CFD786208E043
:104A7000FDF748FD02467B6AD31A022B01D90323B6
:104A80000EE1394B1B6803F00073002BF0D1364B5D
:104A90009A6A374B13407A68916A7A68D26A12012F
:104AA0000A43314913438B627B681B6B013BC3F3A1
:104AB00008027B685B6B013B5B029BB21A437B681D
:104AC0009B6B013B1B0403F4FE031A437B68DB6B07
:104AD000013B1B0603F0FE43234913430B63224BA8
:104AE000DB6A214A23F00103D3621F4B5A6B214B2F
:104AF00013407A68926CD2001B4913434B631A4BE4
:104B0000DB6A23F00C027B681B6C17491343CB62F2
:104B1000154BDB6A23F002027B685B6C124913437E
:104B2000CB62114BDB6A104A43F48033D3620E4BE5
:104B3000DB6A0D4A43F40033D3620B4BDB6A0A4A4B
:104B400043F48023D362084BDB6A074A43F0010336
:104B5000D362054B1B68044A43F080731360FDF772
:104B6000D1FC786211E000BF0044025800480258AE
:104B70000CFCFFFF0700FFFFFDF7C4FC02467B6A49
:104B8000D31A022B01D903238AE0474B1B6803F099
:104B90000073002BF0D082E0434B1B68424A23F0A5
:104BA00080731360FDF7AEFC786208E0FDF7AAFCA5
:104BB00002467B6AD31A022B01D9032370E03A4BD9
:104BC0001B6803F00073002BF0D168E0364B9B6A42
:104BD0003B61354B1B6BFB607B685B6A012B31D003
:104BE0003B6903F003027B689B6A9A422AD13B69C6
:104BF0001B0903F03F027B68DB6A9A4222D1FB6803
:104C0000C3F308027B681B6B013B9A421AD1FB6815
:104C10005B0A03F07F027B685B6B013B9A4211D118
:104C2000FB681B0C03F07F027B689B6B013B9A4285
:104C300008D1FB681B0E03F07F027B68DB6B013B36
:104C40009A4201D001232BE0174B5B6BDB08C3F3C7
:104C50000C033B617B689B6C3A699A421FD0124BF4
:104C6000DB6A114A23F00103D362FDF74BFC786243
:104C700000BFFDF747FC02467B6A9342F9D00A4B1E
:104C80005A6B0A4B13407A68926CD2000649134360
:104C90004B63054BDB6A044A43F00103D3620023F4
:104CA00018463037BD4680BD004402580700FFFF5C
:104CB00080B586B000AF786039607B68002B01D189
:104CC00001239CE18A4B1B6803F00F033A689A4268
:104CD00010D9874B1B6823F00F0285493B681343AB
:104CE0000B60834B1B6803F00F033A689A4201D0B4
:104CF000012384E17B681B6803F00403002B10D0C0
:104D00007B681A697B4B9B6903F070039A4208D950
:104D1000784B9B6923F070027B681B6975491343CC
:104D20008B617B681B6803F00803002B10D07B6845
:104D30005A69704BDB6903F070039A4208D96D4BD6
:104D4000DB6923F070027B685B696A491343CB61BE
:104D50007B681B6803F01003002B10D07B689A69F6
:104D6000644BDB6903F4E0639A4208D9614BDB6969
:104D700023F4E0627B689B695E491343CB617B68E7
:104D80001B6803F02003002B10D07B68DA69594BB5
:104D90001B6A03F070039A4208D9564B1B6A23F032
:104DA00070027B68DB69534913430B627B681B68A5
:104DB00003F00203002B10D07B68DA684D4B9B692F
:104DC00003F00F039A4208D94A4B9B6923F00F0264
:104DD0007B68DB68474913438B617B681B6803F082
:104DE0000103002B55D0434B9B6923F470627B6811
:104DF0009B68404913438B617B685B68022B07D13A
:104E00003C4B1B6803F40033002B21D10123F6E057
:104E10007B685B68032B07D1364B1B6803F000737C
:104E2000002B15D10123EAE07B685B68012B07D1D9
:104E3000304B1B6803F48073002B09D10123DEE0A3
:104E40002C4B1B6803F00403002B01D10123D6E097
:104E5000284B1B6923F007027B685B6825491343D5
:104E60000B61FDF74FFB78610AE0FDF74BFB024653
:104E70007B69D31A41F28832934201D90323BEE001
:104E80001C4B1B6903F038027B685B68DB009A42AD
:104E9000EBD17B681B6803F00203002B10D07B680A
:104EA000DA68144B9B6903F00F039A4208D2114B46
:104EB0009B6923F00F027B68DB680E4913438B610B
:104EC0000B4B1B6803F00F033A689A4214D2084B4D
:104ED0001B6823F00F0206493B6813430B60044B29
:104EE0001B6803F00F033A689A4205D0012386E05D
:104EF00000200052004402587B681B6803F0040342
:104F0000002B10D07B681A693F4B9B6903F070033C
:104F10009A4208D23C4B9B6923F070027B681B6964
:104F2000394913438B617B681B6803F00803002B2E
:104F300010D07B685A69344BDB6903F070039A42E6
:104F400008D2314BDB6923F070027B685B692E4924
:104F50001343CB617B681B6803F01003002B10D058
:104F60007B689A69284BDB6903F4E0639A4208D2B4
:104F7000254BDB6923F4E0627B689B69224913437C
:104F8000CB617B681B6803F02003002B10D07B688B
:104F9000DA691D4B1B6A03F070039A4208D21A4B60
:104FA0001B6A23F070027B68DB69174913430B62AD
:104FB00000F034F80246144B9B691B0A03F00F0300
:104FC0001249CB5C03F01F0322FA03F33B610E4B43
:104FD0009B6903F00F030D4AD35C03F01F033A698A
:104FE00022FA03F30A4A13600A4A3B6913600A4B28
:104FF0001B681846FDF73CFA0346FB73FB7B18461B
:105000001837BD4680BD00BF00440258004C01085F
:105010002C000024280000243000002480B489B033
:1050200000AFB34B1B6903F03803182B00F2558116
:1050300001A252F823F000BF9D500008DB52000887
:10504000DB520008DB520008DB520008DB5200088C
:10505000DB520008DB520008C3500008DB52000896
:10506000DB520008DB520008DB520008DB5200086C
:10507000DB520008DB520008C9500008DB52000870
:10508000DB520008DB520008DB520008DB5200084C
:10509000DB520008DB520008CF500008944B1B681D
:1050A00003F02003002B09D0914B1B68DB0803F0B1
:1050B0000303904A22FA03F3BB6111E18D4BBB61FC
:1050C0000EE18D4BBB610BE18C4BBB6108E1884B62
:1050D0009B6A03F003037B61854B9B6A1B0903F00A
:1050E0003F033B61824BDB6A03F00103FB60804BB3
:1050F0005B6BDB08C3F30C03FA6802FB03F307EEF8
:10510000903AF8EE677AC7ED027A3B69002B00F01F
:10511000E1807B69022B00F083807B69022B00F227
:10512000A1807B69002B03D07B69012B56D099E0CD
:105130006F4B1B6803F02003002B2DD06C4B1B68BA
:10514000DB0803F003036B4A22FA03F37B607B68FE
:1051500007EE903AF8EE676A3B6907EE903AF8EE90
:10516000677A86EEA77A624B1B6BC3F3080307EEE0
:10517000903AF8EE676A97ED026ADFED615AC6EE83
:10518000257A76EEA77AF7EE006A77EEA67A67EED2
:10519000277AC7ED077A87E03B6907EE903AF8EE89
:1051A000677ADFED586A86EEA77A514B1B6BC3F323
:1051B000080307EE903AF8EE676A97ED026ADFEDB2
:1051C000505AC6EE257A76EEA77AF7EE006A77EEA9
:1051D000A67A67EE277AC7ED077A65E03B6907EEA6
:1051E000903AF8EE677ADFED486A86EEA77A404B90
:1051F0001B6BC3F3080307EE903AF8EE676A97ED6E
:10520000026ADFED3F5AC6EE257A76EEA77AF7EE10
:10521000006A77EEA67A67EE277AC7ED077A43E051
:105220003B6907EE903AF8EE677ADFED386A86EE72
:10523000A77A2F4B1B6BC3F3080307EE903AF8EEE7
:10524000676A97ED026ADFED2E5AC6EE257A76EE92
:10525000A77AF7EE006A77EEA67A67EE277AC7EDAF
:10526000077A21E03B6907EE903AF8EE677ADFEDC6
:10527000266A86EEA77A1E4B1B6BC3F3080307EE64
:10528000903AF8EE676A97ED026ADFED1D5AC6EEB6
:10529000257A76EEA77AF7EE006A77EEA67A67EEC1
:1052A000277AC7ED077A00BF114B1B6B5B0A03F02F
:1052B0007F0301333B603B6807EE903AB8EE677AB4
:1052C000D7ED076AC6EE877AFCEEE77A17EE903ADA
:1052D000BB6105E00023BB6102E0074BBB6100BF7F
:1052E000BB6918462437BD465DF8047B704700BF94
:1052F000004402580090D00300093D0000127A00DB
:10530000000000460024744C0024744A0024F44A2F
:1053100080B582B000AFFFF781FE0246104B9B695B
:105320001B0A03F00F030F49CB5C03F01F0322FAA3
:1053300003F37B600A4B9B6903F00F03094AD35CBC
:1053400003F01F037A6822FA03F3074A1360074A3F
:105350007B681360044B1B6818460837BD4680BD48
:1053600000440258004C01082C00002428000024AE
:1053700080B500AFFFF7CCFF0246064BDB691B0987
:1053800003F007030449CB5C03F01F0322FA03F385
:10539000184680BD00440258004C010880B500AF9B
:1053A000FFF7B6FF0246064BDB691B0A03F0070353
:1053B0000449CB5C03F01F0322FA03F3184680BDB7
:1053C00000440258004C01082DE9B04FCAB000AFAC
:1053D000C7F81401002387F82731002387F8263106
:1053E000D7F81431D3E9002302F00064002554EA11
:1053F000050349D0D7F814319B6EB3F5401F2FD069
:10540000B3F5401F28D8B3F5001F1AD0B3F5001F1D
:1054100022D8002B03D0B3F5801F07D01CE0B84B77
:10542000DB6AB74A43F40033D3621AE0D7F8143189
:1054300008330221184602F061FB034687F8273142
:105440000FE0D7F8143128330221184602F008FC87
:10545000034687F8273104E0012387F8273100E06D
:1054600000BF97F82731002B0AD1A54B1B6D23F401
:105470004011D7F814319B6EA14A0B43136503E02A
:1054800097F8273187F82631D7F81431D3E900236C
:1054900002F480784FF0000958EA090347D0D7F8A2
:1054A00014319B6D042B2AD801A252F823F000BFBF
:1054B000C5540008D3540008E954000807550008F3
:1054C000075500088E4BDB6A8D4A43F40033D362E4
:1054D0001AE0D7F8143108330021184602F00EFB09
:1054E000034687F827310FE0D7F81431283300211D
:1054F000184602F0B5FB034687F8273104E0012384
:1055000087F8273100E000BF97F82731002B0AD138
:105510007B4B1B6D23F00701D7F814319B6D784A44
:105520000B43136503E097F8273187F82631D7F846
:105530001431D3E9002302F4007A4FF0000B5AEA49
:105540000B034CD0D7F81431DB6DB3F5807F30D02E
:10555000B3F5807F29D8C02B2DD0C02B25D8802B28
:1055600018D0802B21D8002B02D0402B07D01CE074
:10557000634BDB6A624A43F40033D3621CE0D7F822
:10558000143108330021184602F0B8FA034687F8B0
:10559000273111E0D7F8143128330021184602F0E2
:1055A0005FFB034687F8273106E0012387F82731A0
:1055B00002E000BF00E000BF97F82731002B0AD1BE
:1055C0004F4B1B6D23F4E071D7F81431DB6D4C4A5F
:1055D0000B43136503E097F8273187F82631D7F896
:1055E0001431D3E9002302F48063C7F808310023A3
:1055F000C7F80C31D7E942120B46134353D0D7F802
:105600001431D3F8A830B3F5000F35D0B3F5000F3F
:105610002ED8B3F5C00F31D0B3F5C00F28D8B3F5ED
:10562000800F1AD0B3F5800F22D8002B03D0B3F52A
:10563000001F07D01CE0324BDB6A314A43F40033D1
:10564000D3621CE0D7F8143108330021184602F069
:1056500055FA034687F8273111E0D7F8143128337B
:105660000021184602F0FCFA034687F8273106E0CD
:10567000012387F8273102E000BF00E000BF97F860
:105680002731002B0BD11E4B9B6D23F46001D7F803
:105690001431D3F8A8301A4A0B43936503E097F806
:1056A000273187F82631D7F81431D3E9002302F4E3
:1056B0000063C7F800310023C7F80431D7E940126E
:1056C0000B46134356D0D7F81431D3F8AC30B3F1AE
:1056D000806F38D0B3F1806F31D8B3F1407F34D0D0
:1056E000B3F1407F2BD8B3F1007F1DD0B3F1007F21
:1056F00025D8002B06D0B3F1807F0AD01FE000BF71
:1057000000440258A24BDB6AA14A43F40033D3623F
:105710001CE0D7F8143108330021184602F0EEF9E6
:10572000034687F8273111E0D7F8143128330021D8
:10573000184602F095FA034687F8273106E0012360
:1057400087F8273102E000BF00E000BF97F827315B
:10575000002B0BD18E4B9B6D23F0E061D7F81431F9
:10576000D3F8AC308A4A0B43936503E097F82731AE
:1057700087F82631D7F81431D3E9002302F00073FB
:10578000C7F8F8300023C7F8FC30D7E93E120B46C3
:1057900013433AD0D7F81431DB6C302B1FD0302BA9
:1057A00019D8202B0CD0202B15D8002B19D0102B5A
:1057B00011D1774BDB6A764A43F40033D36211E0B0
:1057C000D7F8143108330221184602F097F903463E
:1057D00087F8273106E0012387F8273102E000BF70
:1057E00000E000BF97F82731002B0AD1684BDB6C33
:1057F00023F03001D7F81431DB6C654A0B43D364D6
:1058000003E097F8273187F82631D7F81431D3E928
:10581000002302F48053C7F8F0300023C7F8F430B7
:10582000D7E93C120B46134351D0D7F814311B6E05
:10583000B3F5804F35D0B3F5804F2ED8B3F5405F28
:1058400031D0B3F5405F28D8B3F5005F1AD0B3F577
:10585000005F22D8002B03D0B3F5805F07D01CE097
:105860004B4BDB6A4A4A43F40033D3621CE0D7F85F
:10587000143108330021184602F040F9034687F836
:10588000273111E0D7F8143128330021184602F0EF
:10589000E7F9034687F8273106E0012387F8273127
:1058A00002E000BF00E000BF97F82731002B0AD1CB
:1058B000374B1B6D23F4E041D7F814311B6E344A8B
:1058C0000B43136503E097F8273187F82631D7F8A3
:1058D0001431D3E9002302F40053C7F8E830002361
:1058E000C7F8EC30D7E93A120B46134356D0D7F835
:1058F00014315B6EB3F5A02F33D0B3F5A02F2CD8A5
:10590000B3F5802F2FD0B3F5802F26D8B3F5403FC5
:105910002BD0B3F5403F20D8B3F5003F12D0B3F5FC
:10592000003F1AD8002B22D0B3F5803F15D1D7F80D
:10593000143108330121184602F0E0F8034687F8D5
:10594000273115E0D7F8143128330121184602F029
:1059500087F9034687F827310AE0012387F82731C2
:1059600006E000BF04E000BF02E000BF00E000BFAF
:1059700097F82731002B0DD1054B1B6D23F4E02147
:10598000D7F814315B6E024A0B43136506E000BF83
:105990000044025897F8273187F82631D7F8143198
:1059A000D3E9002302F48043C7F8E0300023C7F8AE
:1059B000E430D7E938120B46134355D0D7F81431E9
:1059C000D3F8B030B3F1A04F33D0B3F1A04F2CD8FF
:1059D000B3F1804F2FD0B3F1804F26D8B3F1405FA1
:1059E0002BD0B3F1405F20D8B3F1005F12D0B3F1F8
:1059F000005F1AD8002B22D0B3F1805F15D1D7F801
:105A0000143108330121184602F078F8034687F86C
:105A1000273115E0D7F8143128330121184602F058
:105A20001FF9034687F827310AE0012387F8273159
:105A300006E000BF04E000BF02E000BF00E000BFDE
:105A400097F82731002B0BD1A34B9B6D23F0E0413E
:105A5000D7F81431D3F8B0309F4A0B43936503E075
:105A600097F8273187F82631D7F81431D3E9002386
:105A700002F40043C7F8D8300023C7F8DC30D7E978
:105A800036120B46134337D0D7F814311B6FB3F1DE
:105A9000005F0ED0B3F1005F16D8002B18D0B3F121
:105AA000805F11D18C4BDB6A8B4A43F40033D362A5
:105AB0000FE0D7F8143108330121184602F01EF820
:105AC000034687F8273104E0012387F8273100E0F7
:105AD00000BF97F82731002B0AD17F4B1B6D23F0B5
